:020000040800F2
:10000000100D0020CD000008D12200088922000830
:1000100000000000000000000000000000000000E0
:10002000000000000000000000000000F92C0008A3
:1000300000000000000000004D230008212D0008F2
:10004000DF00000800000000DF000008DF000008FB
:10005000DF000008DF000008DF0000086906000874
:1000600000000000DF000008DF000008DF000008DB
:10007000DF000008DF000008DF00000800000000CB
:10008000952E00080000000000000000DF000008BE
:10009000DF000008852E0008DF000008DF000008F0
:1000A000DF000008DF000008DF00000861340008FE
:1000B000713400080448854600F03CFA00480047C7
:1000C000893B0008C046C046100D00200448804708
:1000D00004480047FEE7FEE7FEE7FEE7FEE7FEE72F
:1000E000112E0008B500000830B50B46014600206F
:1000F0002022012409E00D46D5409D4205D31D462E
:100100009540491B2546954040191546521E002D25
:10011000F1DC30BD10B5202A04DB0846203AD0407F
:10012000002110BD0B46D340D0402024A21A91409C
:100130000843194610BD03460B439B0703D009E053
:1001400008C9121F08C0042AFAD203E00B78037012
:10015000401C491C521EF9D27047D2B201E0027015
:10016000401C491EFBD270470022F6E710B513462B
:100170000A4604461946FFF7F0FF204610BD421C10
:100180000178401C0029FBD1801A704730B5054624
:100190000020034600E05B1C934205D2EC5CC85C87
:1001A000201A01D1002CF6D130BD0000F0B51FB4EB
:1001B00088B00B990998002448400999C00F49005C
:1001C00049080991C0070B990090490049080B9113
:1001D00009990898A64608431CD00B990A98084329
:1001E00018D0099801244000420D4800410D09989B
:1001F00024050003000B204309900B980003000B1B
:1002000020430B9050181C494018002201901446BE
:10021000104605E0002001460DB0F0BD032801DACC
:10022000034600E003239C46C11A0AAE0AE05F00C1
:1002300008ADED5B4F00F75B7D430027AA187C41BA
:10024000491C5B1E6145F2DD410004AB5A5221049A
:10025000120C0A43240C401C0828DFDB0198029092
:100260000099704601910090059B049A07990698A1
:1002700000F00EF9D0E700000DFCFFFFF0B50C46D2
:100280005C4085B0E40FE40703944C00002664084A
:1002900059009446490802460296224321D06246FC
:1002A0000A431ED06200570D4A000E032303550D6A
:1002B000012402462C492405781B1B0B360B4018E1
:1002C00023432643614600901C46501AB44103D391
:1002D0000098401C009002E0921800985B410028B2
:1002E00003DA0020014605B0F0BD00200121090518
:1002F0000746864611E064461D46141BB54106D3E9
:100300006546521BB341744607430C43A646CD07CE
:1003100040084908284392185B4105460D43EAD13D
:100320001046184313D060461946504071400843A8
:1003300006D06046101AB34106D20122002306E01F
:1003400000220123DB0702E00122D2435310009870
:1003500074460105381C6141029C039D00196941E6
:1003600000F089F8BFE70000FD030000C217C10FCD
:10037000504010B54018CA079623002100F042F8FB
:1003800010BD000070B5CD0F4A0009030123090B11
:100390001B0519430B4BED070024520D9A4201DA5D
:1003A000002070BD074B34339A4203DC9A1AFFF7E2
:1003B000B1FE02E00449511888402C43F1D040427C
:1003C00070BD0000FF030000CDFBFFFFC20FD2078E
:1003D000400040080BD0C10D0723DB01C9184002C3
:1003E0000905400A1143C208400711437047002025
:1003F00001467047002904DA401C490001D1400839
:100400004000704770B40024050C05D1102400048E
:1004100002D1002921D01124050E01D10002083497
:10042000050F01D10001241D850F01D18000A41CFE
:10043000002801DB4000641C002908D020252E1B69
:100440000D46F540A14000D0012129430843010693
:100450001B1B000ADB1D02D5002070BC7047DB05AA
:10046000181880180029F8DA401C4900F5D170BC32
:1004700040084000704710B5002B08DA0024401CEB
:10048000614192185B411A4301D14008400010BD00
:10049000F0B51FB482B005460C0003D0084603F047
:1004A00003F802E003F000F82030024600902146F5
:1004B000284600F051F8049B059A04460F4618435D
:1004C0001143084314D0184610431BD00098402114
:1004D0000A1A18460599FFF71DFE05460E46009AB2
:1004E0000599049800F038F8084305D0012004E08D
:1004F0002046394607B0F0BD0020C11705430E4322
:100500002C43374300990E986305401A7905E40A95
:1005100000220C43FD0A0A3002D500200146E9E71B
:100520000105101969410C9C0D9D00196941FFF7E7
:10053000A2FFDFE7064C0125064E05E0E36807CC85
:100540002B430C3C98471034B442F7D3FFF7B6FD69
:100550006C4800088C48000810B5202A04DB0146CE
:10056000203A9140002010BD914020239C1A034660
:10057000E3401943904010BD70B58C180578401CBD
:100580006B075B0F01D10378401C2A1106D102785A
:10059000401C03E006780E70401C491C5B1EF9D11C
:1005A0002B0705D40023521E0DD40B70491CFAE70B
:1005B0000378401CCB1A921C03E01D780D70491C77
:1005C0005B1C521EF9D5A142D8D3002070BD00009B
:1005D00030B502460023002004E0145C5C40034D6B
:1005E0002B5D401C8842F8D3184630BD54470008A4
:1005F00010B50B110A07120F092B03DC1C4630340F
:10060000047002E01C4637340470092A03DC1446E7
:100610003034447002E014463734447010BD00009A
:1006200070B5014600220023002400250C48046810
:1006300001F076FB024600BF01F072FB034608485A
:100640000068A04207D906480068001B054E7043A9
:10065000C018851A00E09D1A8D42EDD370BD0000D0
:100660002400002050C3000010B50120400300F01A
:100670000FF810BD31B5002400F026F9044600BF84
:1006800000F022F9001B00998842F9D338BD704769
:1006900010B50446054840692040002804D00348AE
:1006A00044612046FFF7F3FF10BD00000004014045
:1006B00078B50346002200240020DEE001269640A3
:1006C0000D6835402C46002C7ED04D68022D02D09E
:1006D0004D68122D15D1D508AE001D462035A859FC
:1006E0005507EE0E0F25B5400646AE433046560779
:1006F000F60E0D69B5402843D508AD001E462036DC
:100700007051186856000325B5400646AE43304682
:100710000D79AD07AD0F5600B540284318604D6800
:10072000012D08D04D68022D05D04D68112D02D045
:100730004D68122D18D1986856000325B54006461D
:10074000AE4330465600CD68B5402843986058689F
:10075000012595400646AE43304610264D6835408B
:100760002D09954028435860D86856000325B540A8
:100770000646AE43304656008D68B5402843D860E3
:10078000012636074D683540B54275D100BF3E4D54
:10079000AD69012635433C4EB5613546AD69ED077F
:1007A000ED0F009500BF00BF384D9608B600A85960
:1007B00095072E0F0F25B5400646AE433046092556
:1007C000ED06AB4203D100E056E000250FE0304DCE
:1007D000AB4201D101250AE02E4DAB4201D10225E9
:1007E00005E02D4DAB4201D1032500E0052596071C
:1007F000360FB5402843254D9608B600A851274D21
:1008000028680546A5432846012636044D6835402C
:10081000B54202D1054625432846204D2860686828
:100820000546A5432846012676044D683540B54265
:1008300002D1054625432846184D6860A86805463C
:10084000A5432846012636054D683540B54202D1FC
:10085000054625432846114DA860E8680546A5438E
:100860002846012676054D683540B54202D1054639
:1008700025432846094DE860521C0D68D540002DDF
:1008800000D01BE778BD00000010024008000140C6
:100890000004004800080048000C00480004014023
:1008A000024613690B40002B01D0012000E000201C
:1008B000704742694A4042617047002A01D0816115
:1008C00000E0816270470000014800687047000046
:1008D000E801002002480068401C01490860704798
:1008E000E801002010B506480068102108430449BB
:1008F0000860032000F006F800F017F8002010BD93
:100900000020024070B5044600F0F0F806467D2154
:10091000C900FFF7E9FB054601F08AF800222146ED
:10092000501E00F00FF8002070BD704700BFC206D7
:10093000D20E01219140024A116000BF70470000B1
:1009400000E100E070B504460D46164629462046F3
:1009500001F0C0FC70BD000070B504460D460026D5
:100960005D480068C007C00FA8420ED25A48006810
:100970004008400028435849086008460068C007FE
:10098000C00FA84201D0012070BD0221206808409C
:10099000022807D151484068F0218843A1680843E4
:1009A0004E4948602078C007C00F00285FD06068BB
:1009B000012808D14948006801214904084000285D
:1009C00015D10120E0E76068022808D1434800689B
:1009D000012149060840002809D10120D4E73F48F9
:1009E000006802210840002801D10120CCE73B48E3
:1009F0004068800880006168084338494860FFF714
:100A000063FF0646606801280FD107E0FFF75CFF2F
:100A1000801B3349884201D90320B5E72F4840683D
:100A20000C2108400428F1D121E0606802280FD190
:100A300007E0FFF749FF801B2949884201D90320BD
:100A4000A2E7264840680C2108400828F1D10EE0B2
:100A500007E0FFF739FF801B2149884201D90320B5
:100A600092E71E4840680C2108400028F1D11A483E
:100A70000068C007C00FA8420ED917480068400898
:100A8000400028431449086008460068C007C00FAA
:100A9000A84201D0012077E70421206808400428FB
:100AA00008D10E484068072109028843E1680843DD
:100AB0000A49486000F032F808494968F0221140BC
:100AC0000909084A515CC840074908600320FFF73C
:100AD00019FF002058E700000020024000100240EB
:100AE0008813000054480008EC0100200148006809
:100AF00070470000EC01002000B5FFF7F7FF054943
:100B00004968072212021140090A034A515CC84091
:100B100000BD00000010024064480008F0B589B034
:100B200024A001460EC9C06805AC0EC4089025A0DB
:100B300001460EC9C06801AC0EC404900024002711
:100B40000025002600200090224844680C20204008
:100B5000002827D0042802D0082822D102E01E480D
:100B6000009022E00F2080042040800C05A90E5C3C
:100B70001848C06A0007000F01A90F5C012000049B
:100B8000204001210904884206D139461248FFF766
:100B9000ABFA7043054602E01048354645430095E0
:100BA00003E000BF0C48009000BF00BF009809B0F0
:100BB000F0BD000002030405060708090A0B0C0D2E
:100BC0000E0F10100102030405060708090A0B0C9A
:100BD0000D0E0F100010024000127A0000093D00B7
:100BE000F8B5044600252078C007C00F002871D052
:100BF000F94840680C21084004280BD0F6484068AA
:100C00000840082812D1F44840680121090408402E
:100C100088420BD1F04800680121490408400028AF
:100C20006BD06068002868D10120F8BD00BF606803
:100C3000012807D1E8480068012109040843E64972
:100C4000086031E0606800280ED1E34800680121A7
:100C500009048843E04908600846006801218904C6
:100C60008843DD4908601FE0606805280ED1DA4836
:100C70000068012189040843D749086008460068D4
:100C8000012109040843D44908600DE0D2480068F6
:100C9000012109048843D049086008460068012101
:100CA00089048843CC49086000BF6068002812D0DE
:100CB000FFF70AFE054606E0FFF706FE401B642824
:100CC00001D90320B1E7C448006801214904084064
:100CD0000028F1D011E0FFF7F7FD054606E0FFF729
:100CE000F3FD401B642801D903209EE7BA48006841
:100CF0000121490408400028F1D102212068084060
:100D0000022861D1B44840680C21084000280BD06B
:100D1000B1484068084008281BD1AF48406801210D
:100D200009040840002814D1AB480068022108409B
:100D3000002804D0E068012801D0012075E7A6480A
:100D40000068F82188432169C9000843A249086066
:100D50003AE0E068002820D09F480068012108435D
:100D60009D490860FFF7B0FD054606E0FFF7ACFDC2
:100D7000401B022801D9032057E797480068022149
:100D800008400028F2D094480068F821884321697F
:100D9000C90008439049086016E08F480068400881
:100DA00040008D490860FFF78FFD054606E0FFF71C
:100DB0008BFD401B022801D9032036E786480068D6
:100DC000022108400028F2D10821206808400828A4
:100DD00031D1E069002817D07F48406A01210843DB
:100DE0007D494862FFF770FD054606E0FFF76CFDA0
:100DF000401B022801D9032017E77748406A0221E7
:100E000008400028F2D016E07348406A40084000CD
:100E100071494862FFF758FD054606E0FFF754FDAB
:100E2000401B022801D90320FFE66B48406A0221DB
:100E300008400028F2D1042120680840042871D11C
:100E400000266548C0698906084000280DD100BF0A
:100E50006148C06908436049C8610846C06909041F
:100E60000840009000BF00BF01265C480068FF21D9
:100E700001310840002816D15848006808435749F6
:100E80000860FFF721FD054606E0FFF71DFD401B4A
:100E9000642801D90320C8E650480068FF210131C9
:100EA00008400028F1D000BFA068012806D14A48B8
:100EB000006A01210843484908622BE0A068002825
:100EC0000CD14548006A4008400043490862084682
:100ED000006A04218843404908621BE0A068052895
:100EE0000CD13D48006A042108433B49086208468A
:100EF000006A01210843384908620BE03648006A5D
:100F000040084000344908620846006A04218843CA
:100F10003149086200BFA068002813D0FFF7D4FC55
:100F2000054608E029E0FFF7CFFC401B2C4988422A
:100F300001D9032079E62848006A022108400028E8
:100F4000F1D011E0FFF7C0FC054607E0FFF7BCFC5D
:100F5000401B2349884201D9032066E61E48006AE7
:100F6000022108400028F1D1012E05D11A48C0699C
:100F7000310788431849C86100BF10212068084024
:100F800010285FD1606901282CD11348406B0421DF
:100F90000843114948630846406B012108430E4944
:100FA0004863FFF791FC054606E0FFF78DFC401B08
:100FB000022801D9032038E60748406B0221084087
:100FC0000028F2D00448406BF8218843A169C90089
:100FD00008430149486335E00010024000700040BA
:100FE000881300006069401D00280FD14E48406BF7
:100FF000042188434C4948630846406BF8218843E4
:10100000A169C9000843484948631BE04648406B52
:1010100004210843444948630846406B40084000A7
:101020004863FFF751FC054606E0FFF74DFC401B07
:10103000022801D90320F8E53B48406B0221084013
:101040000028F2D1206A00286CD0374840680C2173
:101050000840082864D0206A022847D13248006836
:1010600001210906884330490860FFF72DFC054639
:1010700006E0FFF729FC401B022801D90320D4E534
:10108000294800680121490608400028F1D100BF25
:101090002548C06A00090001E16A08432249C86284
:1010A000616AA06A0843204949683D2212049143BD
:1010B00008431D49486000BF084600680121090631
:1010C000084319490860FFF7FFFB054606E0FFF7F4
:1010D000FBFB401B022801D90320A6E5124800684B
:1010E0000121490608400028F1D01BE00E480068A5
:1010F0000121090688430C490860FFF7E5FB054616
:1011000006E0FFF7E1FB401B022801D903208CE534
:10111000054800680121490608400028F1D101E096
:10112000012082E5002080E50010024070B50446F1
:10113000002C01D1012070BD5D20005D002805D18B
:1011400000215C200155204600F068F802215D2056
:101150000155206800684021884321680860072104
:101160000902E068884201D9002501E001252D032C
:101170000F210902E068884206D007210902E068D1
:10118000884201D00021A162206B002809D10721EB
:101190000902E068884202D90221216301E00121AD
:1011A0002163A168606808432169084361690843B5
:1011B00001225202A16911400843E1690843216AF2
:1011C0000843A16A084321680860206B022805D102
:1011D000206800689100084321680860A069000C3D
:1011E00004210840616A0843616B0843E1680843D1
:1011F0002843216848602168E06A08612068C06966
:10120000054908402168C8610020206601215D2051
:10121000015500208FE70000FFF700007047000035
:10122000F0B585B004460F4616461D46FFF74CFB49
:10123000029000200190FF210531606888420BD1A7
:10124000A068002808D133463A4639462046009522
:1012500000F02CFA05B0F0BD00BF5C20005D012855
:1012600001D10220F6E701215C20015500BF5D207D
:10127000005D012802D00220019022E1002F01D060
:10128000002E02D1012001901BE104215D200155B7
:101290000020206627644420065346200653002081
:1012A000A063A087E087C902A06A884214D100BF6A
:1012B0002068006888490840216808602068006844
:1012C0000121490308432168086000BF4620005BF4
:1012D000401E81B24620015307210902E06888427E
:1012E00007D92068406801210903884321684860C4
:1012F00006E020684068012109030843216848602E
:101300000121C903A068884205D1206800684910FE
:101310008843216808602068006840210840402810
:1013200004D020680068084321680860072109028A
:10133000E068884226D820E020688068C007C00F97
:1013400000280CD02068017B226C501C2064117096
:101350004620005B401E81B2462001530DE0002D67
:1013600008D0681C002808D0FFF7AEFA0299401A8E
:10137000A84202D303200190A3E04620005B00288E
:10138000DADC26E021E020688068C007C00F002872
:101390000DD02068C068216C0880206C801C2064FF
:1013A0004620005B401E81B2462001530DE0002D17
:1013B00008D0681C002808D0FFF786FA0299401A66
:1013C000A84202D3032001907BE04620005B002866
:1013D000D9DC01214903A06A884256D120680068FF
:1013E00049100843216808602B4601221146204617
:1013F00001F02CFC002802D00320019061E00721BD
:101400000902E068884204D92068C068216C08801D
:1014100003E02068007B216C08702B4601221146F6
:10142000204601F013FC002804D00220206603208F
:10143000019046E00F210902E068884206D1206849
:10144000C06881B20391684680891EE02068017BF4
:1014500003916846808907210902E068884214D117
:10146000206B022811D12B4601221146204601F0A3
:10147000EDFB002804D0022020660320019020E02C
:101480002068017B0391684680892946204601F047
:1014900093FA002801D0202020662068806810215F
:1014A00008400009002806D0206E0221084320666B
:1014B0000A4821688860206E002801D00120019030
:1014C00000BF01215D20015500BF00215C200155B6
:1014D00000BF0198BEE60000FFDF0000EFFF000044
:1014E000FEB504460F4616461D46FFF7EDF902907D
:1014F0000020019000BF5C20005D012801D1022086
:10150000FEBD01215C20015500BF5D20005D01286A
:1015100002D002200190BCE0002F01D0002E02D1A9
:1015200001200190B5E003215D20015500202066D7
:10153000A763A687E6872064002144200153462044
:1015400001530121C903A068884205D120680068C1
:10155000491008432168086001214903A06A8842B4
:101560000ED100BF206800684F490840216808601C
:10157000206800680121490308432168086000BF12
:101580002068006840210840402804D02068006896
:1015900008432168086007210902E068884223D9CE
:1015A0001EE0206880680221084002280AD1A06B52
:1015B00000882168C860A06B801CA063E08F401E7B
:1015C000E0870DE0002D08D0681C002808D0FFF748
:1015D0007BF90299401AA84202D30320019058E0F7
:1015E000E08F0028DDDC2FE02BE0206880680221FE
:1015F0000840022817D1E08F01280ADDA06B00887F
:101600002168C860A06B801CA063E08F801EE0870B
:1016100017E0A16B481CA063087821680873E08F6D
:10162000401EE0870DE0002D08D0681C002808D07F
:10163000FFF74AF90299401AA84202D30320019009
:1016400027E0E08F0028D0DC01214903A06A88420E
:1016500005D12068006849100843216808602946C0
:10166000204601F0EDF9002801D020202066A06876
:10167000002808D100BF2068C068009020688068FA
:10168000009000BF00BF206E002801D00120019013
:1016900000BF01215D20015500BF00215C200155E4
:1016A00000BF01982CE70000FFDF0000FFB583B00A
:1016B00004460F461D460C9EFFF706F901900020D8
:1016C000009000BF5C20005D012802D1022007B01D
:1016D000F0BD01215C20015500BF5D20005D0128A7
:1016E00002D00220009095E1002F04D00598002838
:1016F00001D0002D02D1012000908BE105215D2059
:10170000015500202066059820644620055344209A
:101710000553A763E587A58701214903A06A88428D
:101720000ED100BF20680068BF49084021680860EA
:10173000206800680121490308432168086000BF50
:1017400007210902E068884203D84620005B01288F
:1017500007DD20684068012109038843216848604B
:1017600006E02068406801210903084321684860B9
:101770002068006840210840402804D020680068A4
:1017800008432168086007210902E06888425FD9A0
:1017900056E0E08F002830DD206880680221084094
:1017A00002282AD1A06B00882168C860A06B801C29
:1017B000A063E08F401EE087E08F00281DD101214B
:1017C0004903A06A884218D12068006804210840B3
:1017D00000280BD12068406808210840082805D15E
:1017E0002068006889010843216808602068006853
:1017F000012109030843216808604620005B002896
:1018000012DD20688068C007C00F00280CD0206857
:10181000C068216C0880206C801C20644620005B1E
:10182000401E81B246200153701C002808D0FFF7EB
:101830004BF80199401AB04202D303200090E9E02E
:10184000E08F0028A5DC4620005B0028A1DC87E0B3
:101850007EE0E08F00283DDD20688068022108409E
:10186000022837D1E08F01280ADDA06B00882168AB
:10187000C860A06B801CA063E08F801EE08708E03A
:10188000A16B481CA063087821680873E08F401E94
:10189000E087E08F00281DD101214903A06A88421A
:1018A00018D1206800680421084000280BD1206866
:1018B000406808210840082805D12068006889018F
:1018C0000843216808602068006801210903084373
:1018D000216808604620005B00282DDD20688068B4
:1018E000C007C00F002827D04620005B012817DD65
:1018F0002068C068216C0880206C801C2064462011
:10190000005B801E81B246200153005B012813DC7E
:1019100020684068012109030843216848600BE002
:101920002068017B226C501C206411704620005BF3
:10193000401E81B246200153701C002808D0FEF7DB
:10194000C3FF0199401AB04202D30320009061E026
:10195000E08F002800DD7CE74620005B0028FADCF1
:1019600001214903A06A884236D13346012211463B
:10197000204601F06BF9002806D0206E02210843B2
:1019800020660320009045E00F210902E0688842AC
:1019900006D12068C06881B20291684600891BE0C8
:1019A0002068017B029168460089206B022813D1D0
:1019B000334601221146204601F048F9002806D09E
:1019C000206E0221084320660320009022E0206858
:1019D000017B0291684600892068806810210840D8
:1019E0000009002808D0206E0221084320660F4815
:1019F00021688860012000903146204601F020F8DF
:101A0000002801D020202066206E002801D001206F
:101A1000009000BF01215D20015500BF00215C2026
:101A2000015500BF009852E6FFDF0000EFFF000005
:101A300070B504462546681E0949884201D901202F
:101A40000CE0681E074948610321081F00F042FCB2
:101A500000200449886107200861002070BD000053
:101A6000FFFFFF0000E000E07047704710B504463C
:101A7000002C01D1012010BD3D20005D002805D1C2
:101A800000213C200155204600F00CF802213D20A9
:101A90000155211D206801F005FA01213D20015565
:101AA0000020E8E7704701460868C068012210433B
:101AB0000A68D06008680068012210430A68106054
:101AC0000020704701460868C068400840000A6866
:101AD000D06000BF0868006A094A104000280BD196
:101AE0000868006A92101040002805D10868006854
:101AF000400840000A68106000BF002070470000E6
:101B000011110000704710B50446206800690221D9
:101B10000840400800281CD02068C06808404008E1
:101B2000002816D0481F216808610120207720680E
:101B300080698007800F002803D02046FFF7E2FF6E
:101B400005E0204600F0C3F8204600F0C1F8002070
:101B500020772068006904210840800800281DD0F3
:101B60002068C06808408008002817D0C843216852
:101B7000086102202077206880690321090208405B
:101B8000002803D02046FFF7BDFF05E0204600F007
:101B90009EF8204600F09CF800202077206800691D
:101BA00008210840C00800281CD02068C0680840F0
:101BB000C008002816D0C843216808610420207797
:101BC0002068C0698007800F002803D02046FFF7F7
:101BD00099FF05E0204600F07AF8204600F078F8FA
:101BE00000202077206800691021084000090028A3
:101BF0001DD02068C06808400009002817D0C843DD
:101C000021680861082020772068C0690321090243
:101C10000840002803D02046FFF774FF05E0204667
:101C200000F055F8204600F053F800202077206897
:101C30000069C007C00F01214840484000280CD06F
:101C40002068C068084048404840002805D0C81EA9
:101C500021680861204600F03DF820680069802175
:101C60000840C00900280BD02068C0680840C0099F
:101C7000002805D0C843216808612046FFF7F4FE1C
:101C80002068006940210840800900280BD02068A6
:101C9000C06808408009002805D0C8432168086151
:101CA000204600F03BF820680069202108404009E8
:101CB00000280BD02068C06808404009002805D0E3
:101CC000C843216808612046FFF7CFFE10BD70476A
:101CD0007047000010B504460B492068884203D1C4
:101CE00001200A4908700DE009492068884209D19D
:101CF00008480068401C074908600121890206481D
:101D0000FEF7D7FD10BD00000004004020000020B9
:101D100000440140240000200004004870470000F7
:101D200001480068406A70474806002010B5044624
:101D300007492068884202D102F034FC07E00549D7
:101D40002068884203D102F0E7F802F035F910BDAF
:101D5000003801400044004010B504462068C069C6
:101D6000C007C00F00280DD020680068FF21013196
:101D70000840002806D0012021680862E06E012199
:101D80000843E0662068C0690221084000280CD0A2
:101D900020688068C007C00F002806D00220216894
:101DA0000862E06E04210843E0662068C0690421EF
:101DB000084000280CD020688068C007C00F0028A9
:101DC00006D0042021680862E06E02210843E06624
:101DD0002068C0690821084000280CD0206880686D
:101DE000C007C00F002806D0082021680862E06EF6
:101DF00008210843E0662068C069202108400028C7
:101E000007D0206800680840002802D0204601F072
:101E10002AF92068C06980210840002807D020687E
:101E200000680840002802D0204601F05DFA2068D2
:101E3000C06940210840002807D020680068084099
:101E4000002802D0204601F0FEF8E06E002807D0FE
:101E50002021692001556A2001552046FFF766FFC1
:101E600010BD10B50446002C01D1012010BDA069A1
:101E7000002800D000E000BF6920005D002805D1E7
:101E8000002168200155204600F02CF8242169200B
:101E9000015520680068400840002168086020461D
:101EA00001F030F9012800D1E0E7606A002802D093
:101EB000204601F041F8206840680121C9028843AA
:101EC000216848602068806808218843216888600C
:101ED000206800680121084321680860204601F05D
:101EE000A3F8C3E710B58CB004465949206888426E
:101EF00052D100BF57484069012149040843554960
:101F0000486108464069012149040840069000BF25
:101F100000BF00BF4F48406908434E49486108462A
:101F20004069012149040840069000BF00BF00BF7E
:101F30004848C06908434749C8610846C06901214B
:101F400049040840069000BF00BF0420079002200B
:101F500008900120099003200A9001200B9007A906
:101F60000920C006FEF7A4FB0820079001200B9073
:101F700007A90920C006FEF79BFB012200211C20B7
:101F8000FEF7E0FC1C20FEF7D1FC206880680121F0
:101F900008432168886058E02F492068884254D15E
:101FA00000BF2C4840690121490408432949486180
:101FB00008464069012149040840019000BF00BF64
:101FC00000BF2448406908432249486108464069E7
:101FD000012149040840019000BF00BF00BF1D4817
:101FE0008069C91008431B4988610846806901213E
:101FF00089030840019000BF00BF481102900220F1
:10200000039001200490032005900120069002A96E
:102010000920C006FEF74CFB01208002029001203F
:10202000069002A90920C006FEF742FB012200210A
:102030001B20FEF787FC1B20FEF778FC20688068D9
:10204000012108432168886000BF0CB010BD00006A
:1020500000440040001002400038014010B5034623
:102060006A20C05C202860D1002901D0002A01D15B
:10207000012010BD012424039868A04208D11869EA
:10208000002805D1C807C00F002801D00120F0E7C3
:1020900000BF6820C05C012801D10220E9E70124CB
:1020A0006820C45400BF59655820C2525A20C252F9
:1020B00000BF24039868A0420AD11869002803D100
:1020C0001B4C5C20C45210E0FF245C20C4520CE086
:1020D0009868002809D11869002803D1FF245C20E2
:1020E000C45202E07F245C20C45200BF0020D866A6
:1020F00022246A20C45418680068FF240134204355
:102100001C68206018688068012420431C68A06057
:1021100000BF00246820C45400BF18680068202451
:1021200020431C6820600020A3E70220A1E70000F4
:10213000FF01000010B504461149206888420FD104
:1021400010480178104802780078401C0E4B187037
:102150000E48815401F030FF04200D4908700EE054
:102160000C4801780C4802780078401C0A4B187023
:102170000A48815401F000FC04200949087010BD90
:10218000004400400A000020090000203C03002019
:102190000E0000200C0000200B0000203B0400205B
:1021A0000F000020FFB581B004460D461646692099
:1021B000005D202865D1002D01D0002E02D1012024
:1021C00005B0F0BD01210903A068884208D120694B
:1021D000002805D1E807C00F002801D00120EFE753
:1021E00000BF6820005D012801D10220E8E701213D
:1021F0006820015500BF0020E066212169200155BB
:10220000502006535220065323E05220005B401E0C
:1022100081B252200153002280212046049B01F00C
:102220009CF8002801D00320CAE701210903A06817
:1022300088420AD12069002807D12F463888C00576
:10224000C00D21680885AD1C03E028786D1C21684D
:1022500008855220005B0028D7DC00224021204660
:10226000049B01F07AF8002801D00320A8E7202180
:102270006920015500BF00216820015500BF0020E2
:102280009EE702209CE7704700BFFEE700B587B0DD
:1022900000BF0E4840690121490408430B494861C9
:1022A00008464069012149040840019000BF00BF71
:1022B00000200390032005904812029002A90920F3
:1022C000C006FEF7F5F907B000BD0000001002409F
:1022D0007047000010B5002819DA1A4A03071B0FCF
:1022E000083B9B089B00D2588307DC0EFF23A340CA
:1022F0009A438B071B0E8407E40EA3401A43114B2D
:102300000407240F083CA408A4001A5118E00E4A40
:1023100003231B02D21883089B00D2588307DC0ECC
:10232000FF23A3409A438B071B0E8407E40EA340B0
:102330001A43054B032424021B198408A4001A51D4
:1023400010BD00001CED00E000E100E0704700005F
:10235000F0B5DDB006460F4600205C9001205B9092
:10236000851E801E0290002400200190092F07DAAC
:1023700039463046FDF7F8FE002700205DB0F0BD7D
:10238000002406E0305D3A2801D1651C03E0601CA2
:10239000C4B2BC42F6DB00BFB81EA04201DC002084
:1023A000ECE7ECB20AE0305D0D2805D1601C305C32
:1023B0000A2801D1029404E0601CC4B2781EA04235
:1023C000F1DC00BF0298A84201DC0020D6E76421BE
:1023D00042A8FDF7C9FE0298421B711942A8FDF7F9
:1023E000AAFE0A2242A142A8FDF7D0FE002818D179
:1023F000342103A8FDF7B8FE40A103A801F040F87E
:10240000C7B203A8FDF7BBFEC0B20146009003A807
:1024100000F08CF86420FEF72DF901203B4908708C
:102420005FE007223AA142A8FDF7B0FE00284FD195
:102430000725642129A8FDF797FE2C4606E042A84F
:10244000005D611B29AA5054601CC4B243A803302C
:10245000FDF795FEA04203D942A8005D2C28EED1DD
:10246000601CC0B20446054642A94819FDF787FE24
:1024700000280BD042A94819FDF781FE009042A820
:10248000411931A8009AFDF756FE02E00020C04332
:1024900074E710A929A802F0F3F85C905C98002872
:1024A0000AD1202210A91C48FDF745FE20221B4915
:1024B000881AFDF740FE14E0462220211648FDF759
:1024C0004CFE4622202115482038FDF746FE08E044
:1024D0000A2213A142A8FDF759FE002801D102F0FB
:1024E00055F8394642A8FDF73FFE002046E70000B8
:1024F00041542B53544152543D31000041542B4D13
:102500004F44554C453D3032000000000D00002086
:1025100041542B4D49443D003A0500207A050020E6
:1025200041542B52455345543D31000070B504468B
:102530000D462946204600F005F82946204601F0C0
:1025400027FA70BD70B504460D460122D1020C4831
:10255000FEF7B3F91F2301220AA10B48FFF722FE61
:10256000AAB20A4B21460848FFF71CFE1F2302228D
:1025700007A10548FFF716FE01F01EFD70BD000023
:10258000000400483A0000005C020020FFFF000049
:102590000D0A000070B504460D46164633462A461D
:1025A00021460448FEF73CFE002800D170BD002003
:1025B000C043FBE790050020F8B50446250300263C
:1025C000771E01204002844201DD701EF8BD00F03C
:1025D000A7F8401C002801D1401EF7E70022102177
:1025E0000920C006FEF769F9FF220121234800F007
:1025F00085FB012210210920C006FEF75EF901F0DB
:10260000E5F9002210210920C006FEF756F9FF2245
:1026100001211B4800F072FB2802010E0091FF22ED
:102620000121684600F06AFB2804010E0091FF2298
:102630000121684600F062FBE9B20091FF2201210E
:10264000684600F05BFB012210210920C006FEF75E
:1026500034F907E01420FEF70DF800F061F80746A2
:10266000701CC6B2781C002801D1282EF2DB282E5F
:1026700002DB0020C043A9E70020A7E714000020E8
:10268000190000200EB54021029100210191009116
:1026900000F046F8002802D00020C0430EBD002202
:1026A00010210920C006FEF708F9FF2201211A486F
:1026B00000F024FB012210210920C006FEF7FDF8DE
:1026C0000520FDF7D7FF002210210920C006FEF7E4
:1026D000F4F8FF220121114800F010FBFF22012134
:1026E00002A800F00BFBFF22012101A800F006FB6D
:1026F000FF220121684600F001FB01221021092080
:10270000C006FEF7DAF800F00BF8002802D000202F
:10271000C043C3E70020C1E71600002017000020D7
:1027200038B5002401200090FF2500221021092047
:10273000C006FEF7C2F801F049F9FF220121134853
:1027400000F0DCFA06E0FF2201216846FFF722FFD5
:10275000601C84B27D20C000844205DA684600789F
:10276000C007C00F0028EED1012210210920C006A9
:10277000FEF7A3F868460078C007C00F002802D013
:102780000020C04338BD0020FCE7000011000020FD
:1027900038B505460C46002000902248844202D9F4
:1027A0000020C04338BDFFF7BBFF401C002801D10B
:1027B000401EF7E7002210210920C006FEF77DF831
:1027C000FF220121184800F099FA2002010E009121
:1027D000FF220121684600F091FA2004010E0091C9
:1027E000FF220121684600F089FAE1B20091FF2240
:1027F0000121684600F082FA01F0E8F80B4A012155
:102800002846FFF7C7FE012210210920C006FEF767
:1028100054F8FFF785FF002802D00020C043C1E72D
:102820000020BFE7FFFF1F001C000020FF01000089
:1028300013B582B00C46002001902B48844203D986
:102840000020C04304B010BDFFF76AFF401C002801
:1028500001D1401EF6E7002210210920C006FEF734
:102860002CF8FF220121214800F048FA0122102112
:102870000920C006FEF721F801F0A8F80022102177
:102880000920C006FEF719F8FF220121184800F0C0
:1028900035FA2002010E0191FF22012101A800F06A
:1028A0002DFA2004010E0191FF22012101A800F060
:1028B00025FAE1B20191FF22012101A800F01EFAE0
:1028C000FF22012102A800F019FA0122102109209B
:1028D000C006FDF7F2FFFFF723FF002802D000201B
:1028E000C043AFE70020ADE7FFFF1F00140000204A
:1028F0001800002010B586B0044600206946C8754F
:1029000014216846FDF730FCFFF70AFF401C002841
:1029100002D1401E06B010BD002210210920C006C1
:10292000FDF7CBFF01F052F8FF2201211F4800F014
:10293000E5F9FF22032105A8FFF72CFE0122102153
:102940000920C006FDF7B9FF6846007D2070684683
:10295000407D60706846807DA0726420FDF78AFE2D
:10296000FFF7DEFE401C002801D1401ED2E7002206
:1029700010210920C006FDF7A0FF01F027F8FF2273
:1029800001210B4800F0BAF90A4A0C216846FFF70A
:1029900001FE012210210920C006FDF78EFF08224A
:1029A00001A9A01CFDF7C7FB0020B3E71E00002013
:1029B0001F000020FF01000070B504460D46FF21F6
:1029C0000531606888420ED10121C903A0688842A0
:1029D00003D04911A068884205D1206800684021D1
:1029E0008843216808602B4600228021204600F0A1
:1029F0002DF9002805D0206E2021084320660320F1
:102A000070BDFF2105316068884217D10121C903DB
:102A1000A068884203D04911A06888420ED12B4695
:102A2000002203214902204600F0B0F8002805D01A
:102A3000206E2021084320660320E1E70020DFE725
:102A400070B504460D462B4600220321C9022046DC
:102A500000F09CF8002805D0206E20210843206655
:102A6000032070BD2B4600228021204600F0EEF8A6
:102A7000002805D0206E2021084320660320F0E7BF
:102A80000020EEE708B500BF3C4840690121490439
:102A900008433A4948610846406901214904084011
:102AA000009000BF00BF0120354948600320C86086
:102AB000102008600920C006FDF7FAFD0122102150
:102AC0000920C006FDF7F9FE00BF2C4880690121EE
:102AD0000903084329498861084680698914084028
:102AE000009000BF00BF0220254948600320C86055
:102AF00020200860002008610920C006FDF7D8FDED
:102B000002201F4948600320C86040200860002060
:102B100008610920C006FDF7CBFD02201849486076
:102B20000320C86080200860002008610920C006DA
:102B3000FDF7BEFDFF200530124948600021114815
:102B4000816007210902C1603821C1610121490268
:102B500081610221016101214161002101628162E3
:102B60000721C1620848074908600846FEF7DEFAF7
:102B7000002801D0012008BD0020FCE70010024021
:102B8000F40500209005002000300140FEB5044609
:102B90000E4617461D46FDF797FE00904DE00320B8
:102BA0004002864206D1002F04D12068017B0191AA
:102BB00068460079681C00283FD0002D05D0FDF73D
:102BC00083FE0099401AA84237D320684068E0216C
:102BD000884321684860FF210531606888420ED132
:102BE0000121C903A068884203D04911A068884226
:102BF00005D12068006840218843216808600121D0
:102C00004903A06A88420ED100BF206800680E49BF
:102C100008402168086020680068012149030843D2
:102C20002168086000BF01215D20015500BF00211F
:102C30005C20015500BF0320FEBD20688068304045
:102C4000B842ACD10020F7E7FFDF0000F8B504463A
:102C50000E4617461D46FDF737FE009042E0681C01
:102C600000283FD0002D05D0FDF72EFE0099401A18
:102C7000A84237D320684068E02188432168486033
:102C8000FF210531606888420ED10121C903A06887
:102C9000884203D04911A068884205D120680068A5
:102CA000402188432168086001214903A06A8842C5
:102CB0000ED100BF206800680E49084021680860F6
:102CC000206800680121490308432168086000BFAB
:102CD00001215D20015500BF00215C20015500BF8E
:102CE0000320F8BD206880683040B842B7D100208A
:102CF000F7E70000FFDF00007047000070B50446F2
:102D00000D46164633462A4621460448FEF7E8FBA0
:102D1000002800D170BD0020C043FBE790050020D3
:102D200010B5FDF7D7FD14480078012805DD1248DD
:102D30000078401E1049087009E00F48007801280B
:102D400005D100200C49087001200C4908700C487E
:102D50000078012805DD0A480078401E08490870FF
:102D600009E007480078012805D1002004490870CF
:102D700001200449087010BD0E000020060000204C
:102D80000F0000200700002010B592B0002404209E
:102D90001D49087000BF1D48C0690121090708438B
:102DA0001A49C8610846C06909040840019000BF7B
:102DB00000BF0120029001040B91039002200A90B1
:102DC00001210D910521C9040C9102A8FDF708FF0E
:102DD0000446002C0AD000210B910521C9040C9156
:102DE00000200949087002A8FDF7FAFE07200E909E
:102DF00002200F9000201090119001210EA8FDF7E5
:102E0000ABFD12B010BD0000050000200010024014
:102E100019480068012108431749086008464068BE
:102E2000164908401449486008460068144908409B
:102E300011490860084600680121890488430E4949
:102E40000860084640683F21090488430A494860F1
:102E50000846C06A00090001C8620846006BFF21ED
:102E600014318843044908630846406B4008400019
:102E70004863002088607047001002400CB8FF08CB
:102E8000FFFFF6FE10B50248FEF73DFE10BD000044
:102E90004806002010B50248FEF735FE10BD0000C0
:102EA0000806002010B5002202681D4B984202D08F
:102EB0001C4B984205D170241346A3431A464B6815
:102EC0001A43174B98420ED0164B98420BD0164B14
:102ED000984208D0154B984205D0154B984202D025
:102EE000144B984206D1032424021346A3431A46E6
:102EF000CB681A4302608B68C3620B688362084B1D
:102F0000984208D0094B984205D0094B984202D00C
:102F1000084B984201D10B6903630123436110BD43
:102F2000002C01400004004000200040004001400F
:102F30000044014000480140818CC907C90F0029A5
:102F400008D001684968012252049143826A114302
:102F5000026851600222416A1140002907D00168CD
:102F60004968D2039143C26A114302685160042246
:102F7000416A1140002907D0016849681204914351
:102F8000026B1143026851600822416A1140002916
:102F900007D00168496812039143426B11430268EC
:102FA00051601022416A1140002907D001688968E8
:102FB00012029143826B1143026891602022416AA0
:102FC0001140002907D00168896812029143C26B41
:102FD0001143026891604022416A1140002915D0D6
:102FE0000168496892039143026C11430268516081
:102FF00001221205016C914208D10168496803223F
:1030000052059143426C1143026851608022416A2B
:103010001140002907D00168496812039143826C6E
:10302000114302685160704701460020C8662022A3
:10303000692042546A20425400BF00226820425452
:1030400000BF0020704710B504462068006840218A
:103050008843216808602021692001552046FFF738
:1030600012F9002010BD70B504465C20065B6A2092
:10307000005D22283DD101210903A06888420BD1BF
:103080002069002808D1656D2068808C3040288038
:10309000606D801C606507E02068808CF1B208409C
:1030A000626D511C616510705A20005B401E81B238
:1030B0005A20015300291AD1206800682021884332
:1030C0002168086020680068FF2101318843216879
:1030D00008602068806840084000216888602021DE
:1030E0006A2001552046FFF725F8002070BD00201A
:1030F000FCE7206880690821084321688861022074
:10310000F4E70000FEB50446002510260027002045
:10311000029001902169A068084361690843E16950
:10312000084305462068006868490840284321682C
:10313000086020684068032109038843E168084368
:1031400021684860216AA0690843054620688068B4
:103150000B210902884328432168886000BF5C492D
:103160002068884217D15B48006B8007800F0028D9
:1031700006D0012808D0022808D0032808D101E091
:10318000002607E0022605E0042603E0082601E009
:10319000102600BF06E050492068884201D1002671
:1031A00000E0102600BF0121C903E069884249D12F
:1031B000042E20D004DC002E07D0022E32D111E0E4
:1031C000082E25D0102E2DD12DE0FDF795FC4000C6
:1031D00061684908401800906168FCF785FF80B27B
:1031E000029023E061684A083C4BD018FCF77CFF52
:1031F00080B202901AE0FDF791FC40006168490836
:10320000401800906168FCF76FFF80B202900DE0FB
:1032100061684A0801231B04D018FCF765FF80B2DF
:10322000029003E000BF0120019000BF00BF2C49C5
:1032300002980840074602980007400F074320689D
:10324000C76040E0042E21D004DC002E07D0022EFF
:1032500034D111E0082E26D0102E2FD12FE0FDF70B
:103260004BFC61684908401800906168FCF73CFF1E
:1032700080B22168C86025E061684A08194BD018FF
:10328000FCF732FF80B22168C8601BE0FDF746FC06
:1032900061684908401800906168FCF725FF80B21A
:1032A0002168C8600EE061684A080123DB03D0187A
:1032B000FCF71AFF80B22168C86003E000BF01205C
:1032C000019000BF00BF0198FEBD0000F369FFFF41
:1032D0000038014000100240004400400024F40087
:1032E000F0FF000000127A0001466920405C2128AE
:1032F00031D15220405A00280DD10868006880233F
:1033000098430B68186008680068402318430B68EE
:1033100018600020704701231B03886898420CD175
:103320000869002809D1CA6C1088C005C00D0B6857
:103330001885C86C801CC86405E0CB6C581CC86438
:1033400018780B6818855220405A401E83B25220CC
:1033500043520020DEE70220DCE7FFB581B00446DF
:103360000E461D46FDF7B0FA0746039800283BD1EC
:103370002FE0681C00282CD0002D04D0FDF7A4FA03
:10338000C01BA84225D92068006880218843216895
:103390000860206800682021884321680860206850
:1033A0000068FF2101318843216808602068806837
:1033B00040084000216888602021692001556A206A
:1033C000015500BF00216820015500BF032005B052
:1033D000F0BD2068C0693040B04201D1012000E05A
:1033E00000200028C5D039E02EE0681C00282BD032
:1033F000002D04D0FDF768FAC01BA84224D920682C
:1034000000688021884321680860206800682021C6
:1034100088432168086020680068FF2101318843E3
:103420002168086020688068400840002168886042
:103430002021692001556A20015500BF0021682024
:10344000015500BF0320C2E72068C0693040B04288
:1034500001D1012000E000200028C6D10020B6E7FD
:1034600010B50248FEF778FC10BD0000CC02002029
:1034700010B50248FEF770FC10BD00005C02002091
:103480000FB410B504A9074B02AA039800F032F854
:10349000044602A9002000F0D5F9204610BC08BC63
:1034A00004B01847453800082021020C01D0102133
:1034B0001046020A01D010460839020901D0104610
:1034C000091F820801D01046891E420801D0881EBB
:1034D0007047081A704702E008C8121F08C1002A86
:1034E000FAD170477047002001E001C1121F002A85
:1034F000FBD17047FFB58FB00546002606E02528B2
:103500000AD0129A119990476D1C761C28780028D1
:10351000F5D1304613B0F0BD002402940121B54A24
:10352000009400E004436D1C2B780846203B984033
:103530001042F7D128782A280ED002222878014696
:103540003039092916D802990A23594330394018CD
:1035500014436D1C0290F1E7109802C8029110907C
:10356000002904DA0120400304434842029002206B
:1035700004436D1C28782E2817D104200443687852
:103580006D1C2A280CD110986D1C02C80091109057
:103590000BE000990A225143303940186D1C00900D
:1035A0002878014630390929F3D928786C2810D0B9
:1035B00006DC4C281AD068280ED06A2817D104E0FF
:1035C000742813D07A2812D110E00120400504435A
:1035D0000CE00121090501E0032109050C4369788C
:1035E000814203D10120000524186D1C6D1C287830
:1035F000692874D006DC00288BD0632827D0642883
:1036000006D16CE06E2808D073282CD0752878D0AD
:10361000129A11999047761C5FE06002400F0228D1
:1036200009D003280DD00428109801680DD00E6031
:10363000001D109051E01098F21701680E604A606A
:10364000F6E7109801680E80F2E70E70F0E7109828
:103650006A4601781173001D10900020507303A872
:103660000190012005E0109802C8019110900020FF
:10367000C04361070CD5002700E07F1C00998F42F2
:103680000FDA8742F9DB0199C95D0029F5D108E01D
:10369000002700E07F1C8742FCDB0199C95D0029FF
:1036A000F8D102982146C01B0290129B119A00F09B
:1036B000B3F88019C61907E0019801990078491CF0
:1036C0000191129A119990477F1EF5D22146129BC3
:1036D000119A029800F090F886196D1C16E70A20DE
:1036E0000190109901C910916102490F032900D17D
:1036F00000B2042900D140B2002803DA40422D2153
:1037000003E00DE0210504D52B216A461173012148
:1037100003E0E10711D02021F7E70CAF0C9114E092
:103720000A200190109901C910916102490F0329E3
:1037300000D180B2042900D1C0B20021EDE7019987
:10374000FCF7D2FC30317F1E39700028F7D104A875
:10375000C01B20300190600704D501200004844381
:10376000009801E0012000900199884201DD401A93
:1037700000E00020411800900C9809180298401AA7
:103780000290E00306D42146129B119A029800F0A1
:1037900043F8861900200D9008E003A9085C129AEE
:1037A000119990470D98401C761C0D900C998842F9
:1037B000F3DBE0030CD52146129B119A029800F02E
:1037C0002BF8861904E0129A302011999047761C44
:1037D0000099481E00900029F5DC05E03878129A1F
:1037E0007F1C11999047761C0199481E0190002971
:1037F000F4DC6BE709280100F8B5044600251E46F5
:103800001746880404D405E039462020B0476D1CD3
:10381000641EF9D52846F8BDFFB50446002581B0E1
:103820001E46C80301D5302700E02027880404D5B0
:1038300005E038460399B0476D1C641EF9D528464B
:1038400005B0F0BD0A68531C0B6010707047000093
:1038500000B587B000BF1D484069012189040843B5
:103860001A494861084640690121890408400190CD
:1038700000BF00BF01200390032005908811029033
:1038800002A91348FCF714FF00BF1048406901214A
:10389000890408430D4948610846406901218904AB
:1038A0000840019000BF00BF012249110848FDF700
:1038B00004F80020039003200590012040030290AB
:1038C00002A90348FCF7F4FE07B000BD0010024057
:1038D0000004004810B50F2000F032F8002201214A
:1038E00009030448FCF7E9FFFF20E13000F075F818
:1038F00010BD00000004004810B50F2000F020F8B3
:103900000022012109030348FCF7D7FF024800F019
:1039100064F810BD000400489605000010B5FFF7DC
:10392000B1F8002802D00020C04310BDFEF7AAFE67
:10393000002802D00020C043F7E70020F5E7000090
:1039400070B50446002500BF11E0012211030948AB
:10395000FCF7B3FF0A2000F040F800220121090320
:103960000448FCF7AAFF112000F037F86D1CA542AF
:10397000EBD970BD0004004810B50122024903488C
:10398000FEF76CFB10BD00000C000020CC020020F4
:1039900070B504460D461F23012208A10848FEF712
:1039A00001FC084B2A4621460548FEF7FBFB1F2376
:1039B000022205A10248FEF7F5FB70BD3A000000A7
:1039C000CC020020FFFF00000D0A0000002001E0F3
:1039D000411CC8B23228FBDB704730B501460624D3
:1039E0004C432246083A002300BF002000E0401C60
:1039F0000024851A9C41FADB30BDF3B585B00C4636
:103A0000002002900394039C600000F02DF905460D
:103A1000002606E071000598405A71006852701C3B
:103A2000C6B2A642F6DB002618E0701CC7B211E051
:103A30007000285E7900695E884209DD7800285EA2
:103A400002907000285A79006852710002986852FA
:103A5000781CC7B2A742EBDB701CC6B2601EB04236
:103A6000E3DC2046E10F091849104900611A0DD026
:103A7000E10F091849104900611A4900695E28469A
:103A8000019100F013F8019807B0F0BD2046E10F56
:103A9000091849104900611A491E4900695E284603
:103AA000049100F003F80498EEE7000010B5002838
:103AB00023D0124B0022001F196803E0814203D873
:103AC0000A4649680029F9D1002A0AD01368841AE5
:103AD0009C4204D1006818181060104602E0506043
:103AE00000E01860002907D002680B1A934203D146
:103AF0000B68D21802604968416010BDF0010020D7
:103B000010B50024012149030548FCF7C9FE01282E
:103B100001D0012000E000200446204610BD000036
:103B20000004004801480068704700003000002091
:103B300001480078704700000500002070B500249F
:103B400000250E48C06A0E4908600C48006B4860AA
:103B50000A48406B886032210A48FCF705FB00BF29
:103B600009E0074A115D62005219064BD018FCF7B4
:103B70003FFD601CC4B20C2CF3DB70BD80F7FF1F4F
:103B800094060020A00600200024651E00BFFCF75C
:103B9000A9FEFFF7F9F800F005FDFFF7EDFE00F0D4
:103BA00047FD00F0BBFCFFF753FEFEF76FFB00BFC5
:103BB000FFF7B4FE0546601CC4B2032C01DA002DE9
:103BC000F6DB00F021FB00F0A7F900F0F5F900F0BA
:103BD0003DFCFCF779FE1C49086034E01B48007886
:103BE00000280AD002221A4801781A48FEF7B0FBD2
:103BF00000201649087016490870174800780028F8
:103C00000AD00122154801781548FEF7A1FB0020D3
:103C10001149087011490870FCF756FE0A490968F5
:103C2000401A7D21090188420DD3FCF74DFE06495B
:103C3000086000F0E6FB00F039FB0A480078002835
:103C400001D000F047F8C9E700000020060000207E
:103C5000090000203C030020070000200B0000208A
:103C60003B0400200D000020F0B50B30C108C90056
:103C7000144F0026144A0FE003688B420BD38B428B
:103C800005D95C1A4318456830C3083B00E0436817
:103C9000136002C004E0021D10680028ECD1304619
:103CA000002803D13868002801D00020F0BD064A62
:103CB00006481060064A121AD208D20044C00120F9
:103CC0003860D7E7F4010020F0010020140700203D
:103CD00010090020F0B5B9B00027FFF711FF044626
:103CE000FFF720FF0546FFF723FF042801D101203D
:103CF00000E0002006460D48C07A0D490495059461
:103D0000029103900B480C4B0C4A0DA100960190B8
:103D100007A8FFF7B5FBC7B207A8FCF730FAC4B293
:103D2000214607A8FEF702FC39B0F0BD04070020C9
:103D3000D2060020A00600205A0500203A050020E7
:103D400041542B494E464F523D25732C25732C254B
:103D5000642C25732C25732C25642C25642C256458
:103D60000A00000070B57D250024012280211D4835
:103D7000FCF7A3FD00F026FA6420FCF751FC00F0EC
:103D8000FFF900BF681EC0B2051E01D1401E70BD04
:103D90007D200001FCF744FC80211248FCF780FDE7
:103DA0000028EFD0002280210E48FCF786FD00F0AD
:103DB00009FA7D20C000FCF733FC0122802109486C
:103DC000FCF77BFD00F0DCF96420FCF729FC802186
:103DD0000448FCF765FD0446FF20F530FCF720FCA5
:103DE0002046D4E70004004870B5002400250022D6
:103DF00080210F48FCF761FD00F0E4F90120FCF799
:103E00000FFC012280210A48FCF757FD00F0B8F9A9
:103E10006421012000F0F8FB0546082D01D801209F
:103E200000E0002004463220FCF7FAFB204670BD7B
:103E30000004004870B50024002500BF06E0FFF72D
:103E4000D3FFA0402843C5B2601CC4B2082CF6DBE7
:103E5000284670BD70B50546002400262846FEF7AA
:103E600049FDC017401CE872002004460AE0AA1C65
:103E7000115D62009219054BD018FCF7B9FB601C6C
:103E8000C0B20446082CF2DB70BD0000D206002050
:103E9000F8B5054600240020009000264622402167
:103EA0002846FCF75AF9FEF73BFC401C002801D1DC
:103EB0000820F8BD002410E007221203A1182819D9
:103EC000FEF766FC002806D0462240212846FCF773
:103ED00044F90420EDE7601CC4B2402CECDB072061
:103EE000000321186846FEF753FC002801D0042087
:103EF000DFE740212846FCF76BFB06466846007862
:103F0000B04206D0462240212846FCF726F904207C
:103F1000CFE70020CDE7000000B587B000BF224802
:103F200040690121890408431F49486108464069E6
:103F3000012189040840019000BF00BF01200390C7
:103F400003200590C811029002A91848FCF7B0FBA5
:103F500000220121C9021548FCF7AFFC00BF12483E
:103F6000C0690121490408430F49C8610846C06976
:103F7000012149040840019000BF00BF0C480D49D1
:103F80000860E1204002486000210A488160C16069
:103F9000016181610C2141610020064948620846A7
:103FA000FDF75FFF07B000BD0010024000040048AD
:103FB000004400405C02002010B500220121C9022B
:103FC0000448FCF77AFC012203490448FEF746F84E
:103FD00010BD0000000400480A0000205C02002020
:103FE00070B50546002400BF0CE028462041C007FC
:103FF000C00F002802D000F043F901E000F02AF9D8
:10400000601CC4B2082CF0DB70BD70B505460024FE
:1040100000BF0CE028462041C007C00F002802D096
:10402000FFF76AFC01E0FFF755FC601CC4B2082CE6
:10403000F0DB0F20FFF784FC70BD0000F0B58DB001
:10404000074600256E1E002400200B900890099062
:104050000A9000BFFFF786FE0646601CC4B2002E21
:1040600001D0032CF6DB002E03D00020C0430DB09E
:10407000F0BDCC20FFF7B4FF4420FFF7B1FF00BF35
:10408000601CC4B23B48FCF7CBFAFFF7ADFE012839
:1040900001D0642CF4DB642C02DB0120C043E6E792
:1040A000002400BFFFF75EFE0646601CC4B2002E6F
:1040B00001D0032CF6DB002E02D00220C043D6E74D
:1040C000CC20FFF78DFFBE20FFF78AFF002405E01C
:1040D000FFF7B0FE08A90855601CC4B2092CF7DB35
:1040E00008A8C079662802D00320C043BFE7082192
:1040F00008A8FCF76DFA0B9008A8017A0B9881428A
:1041000002D00420C043B2E708A80178407800023A
:1041100001430DB208A840780121C90308400028D6
:1041200002D0E843401C05B2ED102846FCF71EF90A
:104130000190FCF74BF9002201239B0703910290A9
:10414000FCF79CF800220C4B05910490FCF72EF82C
:1041500007910690FCF716F905B20848854201D090
:10416000002D03D10526F643304680E73D80002030
:104170007DE7000088130000000024405203000087
:1041800000B587B000BF0D4840690121890408438C
:104190000A494861084640690121890408400190A4
:1041A00000BF00BF002003900320059080200290F4
:1041B00002A90348FCF77CFA07B000BD00100240DA
:1041C0000004004800B587B000BF0D4840690121D8
:1041D000890408430A494861084640690121890465
:1041E0000840019000BF00BF01200390032005900C
:1041F0008020029002A90348FCF75AFA07B000BDDC
:10420000001002400004004870B50024E44300257B
:10421000FFF7D8FF00BFFFF7A5FD0446681CC5B235
:10422000002C01D0032DF6DB002C02D00020C0436F
:1042300070BDCC20FFF7D4FE4E20FFF7D1FE00204A
:10424000FFF7CEFE7F20FFF7CBFE0F20FFF7C8FE63
:104250000020EDE710B5002280210848FCF72DFB77
:10426000FFF7B0FF4620FCF7DBF90122802103486D
:10427000FCF723FB0520FCF7D3F910BD0004004830
:1042800010B5002280210848FCF717FBFFF79AFFC2
:104290000520FCF7C5F9012280210348FCF70DFB3E
:1042A0004620FCF7BDF910BD0004004838B568464B
:1042B000FFF7C4FE0446002C13DA22480078401CA5
:1042C0002049087008460078042807DD002008709F
:1042D0001D480078012108431B4908700020C04395
:1042E00038BD1A480078032812DD1948408818495B
:1042F000088008468088488069460020085E144986
:10430000888003211248FFF778FB1249086011E00A
:1043100068460021415E0D48007840000C4A115269
:1043200068460021415E0B48016008480078401C47
:104330000649087004480078FE21084002490870C8
:104340000020CDE73400002045000020350000208B
:1043500088060020300000201CB5002400200090BA
:104360000190FEF7DDF9401C002801D108201CBD9A
:104370000820FEF721F9002412E00122D203A1183F
:104380006A461019FEF704FA002801D00420EEE76F
:104390006846005DFF2801D00120E8E7601CC4B238
:1043A000052CEADB00200090019000240BE00120A6
:1043B000C00321182046FEF73BFA002801D0022056
:1043C000D5E7601CC4B2052CF1DB6420FCF752F980
:1043D000002412E00122D203A1186A461019FEF748
:1043E000D7F9002801D00420C1E76846005DA0424B
:1043F00001D00420BBE7601CC4B2052CEADB00201E
:10440000B5E770B50024651E00BFFF20FFF7FDFD76
:10441000601C84B2FF2091308442F6DB70BD000046
:1044200070B50025102408E00748FFF707FE0028B4
:1044300001D1002405E0681CC5B2052D01DA102C5D
:10444000F2D000BF204670BD3000002030B59DB0D6
:1044500000252648406A012189060840002805D029
:1044600023A110A8FFF70CF8C5B204E023A110A8FF
:10447000FFF706F8C5B21D48406A01210906084346
:104480001A494862294610A8FEF750F8FFF756FB74
:10449000462220216846FBF760FEFFF75DFF44B22D
:1044A000002C03D11948FFF7D5FC05E0002017497F
:1044B000C87201201DB030BDFFF7B2FF1449097862
:1044C00040181349087040216846FBF74DFE6846C6
:1044D000FFF7DEFC202269460E48FBF72CFE202267
:1044E00008A90D48FBF727FE0020E3E70010024073
:1044F00041542B52455345543D4F4B0041542B5290
:10450000455345543D4552524F5200000407002088
:10451000E70100203A0500205A05002008B500BF39
:1045200016488069012149040843144988610846F6
:104530008069012149040840009000BF00BF104875
:10454000104908603020486000210E4881600E4903
:10455000C160002101614161802181610122114618
:104560001520FCF7EFF91520FCF7E0F90548FDF7F9
:104570007DFA0448FDF797FA08BD000000100240DC
:1045800000440140480600204FC3000010B5034816
:10459000FDF798FA00200249086010BD4806002087
:1045A0002400002008B500BF144880690121890358
:1045B000084312498861084680690121890308403F
:1045C000009000BF00BF0E480E490860E120400285
:1045D000486000210B488160C160016181610C214C
:1045E00041610020074948620846FDF73AFC00286F
:1045F00001D000BFFEE7002008BD0000001002400F
:1046000000380140CC020020F8B505460E460024D3
:10461000002700BF80210548FCF742F90746641CCB
:10462000AF4201D0B442F5D32046F8BD00040048A3
:1046300000B587B000BF10484069012189040843D4
:104640000D494861084640690121890408400190EC
:1046500000BF00BF012003900320059008120290C4
:1046600002A90648FCF724F8002201218902034828
:10467000FCF723F907B000BD001002400004004819
:10468000F8B506460D460024002700200090FEF7EE
:1046900047F8401C002801D10820F8BD40213046D1
:1046A000FBF796FF07460720FDF786FF00240BE087
:1046B00007221203A118305DFEF7BAF8002801D0D6
:1046C0000220EAE7601CC4B2402CF1DB07200003A3
:1046D00021183846FEF7ACF8002801D00220DCE7AC
:1046E0006420FBF7C7FF002416E007221203A1187D
:1046F0002819FEF74DF8002801D00420CDE7285DE9
:10470000315D884206D0462240212846FBF725FD30
:104710000420C2E7601CC4B2402CE6DB0720000383
:1047200021186846FEF734F8002801D00420B4E7C9
:1047300040212846FBF74CFF074668460078B84200
:1047400006D0462240212846FBF707FD0420A4E7B7
:104750000020A2E7005EBCE2613FDD83C29C7E20B8
:10476000A3FD1F419DC3217FFCA2401E5F01E3BD4D
:104770003E6082DC237D9FC1421CFEA0E1BF5D0341
:1047800080DE3C62BEE0025CDF81633D7C22C09E35
:104790001D43A1FF4618FAA427799BC584DA386621
:1047A000E5BB5907DB856739BAE406581947A5FB0D
:1047B0007826C49A653BD987045AB8E6A7F91B4501
:1047C000C6987A24F8A6441A99C7257B3A6486D8F5
:1047D0005B05E7B98CD2306EEDB3510F4E10F2ACE1
:1047E0002F7193CD114FADF3702ECC92D38D6F31CD
:1047F000B2EC0E50AFF1134DCE90722C6D33D18FC1
:104800000C52B0EE326C8ED0530DEFB1F0AE4C12B4
:1048100091CF2D73CA947628ABF517490856B4EAA0
:104820006937D58B5709EBB536688AD495CB29778C
:10483000F4AA4816E9B7550B88D6346A2B7597C980
:104840004A14F6A8742AC896154BA9F7B6E80A5474
:10485000D7896B350000000000000000010203044E
:104860000607080900000000010203048C48000844
:1048700000000020F8010000780500082849000821
:10488000F8010020180B0000E634000801110010A8
:1048900024053533060450010220D8C7030B9F4B73
:1048A0001A01021008AA5ACF107C21721308800343
:1048B00025E0F12B0D01343CC81122340A24613467
:1048C000150211DA2722C52AD70822422A540811D4
:1048D00013082E22A023066022C0F20EBB2303344D
:1048E00012043A5834AA3934EA3F341A042413F033
:1048F0000D2A0F2B1BD330D1051E1A03082BAB1426
:1049000005341B3141341A07DA091C3400082C061F
:104910004DB2DE2107F808092B06074DB2F8071C37
:08492000E3346193127A0000F8
:04000005080000B53A
:00000001FF
