:020000040800F2
:10400000900B0020CD40000825650008EB640008F7
:1040100000000000000000000000000000000000A0
:10402000000000000000000000000000FD78000813
:104030000000000000000000D56500082579000898
:10404000DF40000800000000DF400008DF400008FB
:10405000DF400008DF400008DF4000080D46000890
:1040600000000000DF400008DF400008DF400008DB
:10407000DF400008DF400008DF40000800000000CB
:10408000E97900080000000000000000DF4000089F
:10409000DF400008D9790008DF400008DF40000851
:1040A000DF400008DF400008DF400008DF40000874
:1040B000B57F00080448854600F02CFA0048004708
:1040C00009940008C046C046900B00200448804771
:1040D00004480047FEE7FEE7FEE7FEE7FEE7FEE7EF
:1040E00065790008B540000830B50B460146002050
:1040F0002022012409E00D46D5409D4205D31D46EE
:104100009540491B2546954040191546521E002DE5
:10411000F1DC30BD10B5202A04DB0846203AD0403F
:10412000002110BD0B46D340D0402024A21A91405C
:104130000843194610BD03460B439B0703D009E013
:1041400008C9121F08C0042AFAD203E00B780370D2
:10415000401C491C521EF9D27047D2B201E00270D5
:10416000401C491EFBD270470022F6E710B51346EB
:104170000A4604461946FFF7F0FF204610BD421CD0
:104180000178401C0029FBD1801A7047F0B51FB49C
:1041900088B00B990998002448400999C00F49003C
:1041A00049080991C0070B990090490049080B91F3
:1041B00009990898A64608431CD00B990A98084309
:1041C00018D0099801244000420D4800410D09987B
:1041D00024050003000B204309900B980003000BFB
:1041E00020430B9050181C4940180022019014469F
:1041F000104605E0002001460DB0F0BD032801DAAD
:10420000034600E003239C46C11A0AAE0AE05F00A1
:1042100008ADED5B4F00F75B7D430027AA187C419A
:10422000491C5B1E6145F2DD410004AB5A5221047A
:10423000120C0A43240C401C0828DFDB0198029072
:104240000099704601910090059B049A0799069881
:1042500000F00EF9D0E700000DFCFFFFF0B50C46B2
:104260005C4085B0E40FE40703944C00002664082A
:1042700059009446490802460296224321D06246DC
:104280000A431ED06200570D4A000E032303550D4A
:10429000012402462C492405781B1B0B360B4018C1
:1042A00023432643614600901C46501AB44103D371
:1042B0000098401C009002E0921800985B41002892
:1042C00003DA0020014605B0F0BD002001210905F8
:1042D0000746864611E064461D46141BB54106D3C9
:1042E0006546521BB341744607430C43A646CD07AF
:1042F00040084908284392185B4105460D43EAD11E
:104300001046184313D06046194650407140084388
:1043100006D06046101AB34106D20122002306E0FF
:1043200000220123DB0702E00122D2435310009850
:1043300074460105381C6141029C039D00196941C6
:1043400000F089F8BFE70000FD030000C217C10FAD
:10435000504010B54018CA079623002100F042F8DB
:1043600010BD000070B5CD0F4A0009030123090BF1
:104370001B0519430B4BED070024520D9A4201DA3D
:10438000002070BD074B34339A4203DC9A1AFFF7C2
:10439000C1FE02E00449511888402C43F1D040424C
:1043A00070BD0000FF030000CDFBFFFFC20FD2076E
:1043B000400040080BD0C10D0723DB01C9184002A3
:1043C0000905400A1143C208400711437047002005
:1043D00001467047002904DA401C490001D1400819
:1043E0004000704770B40024050C05D1102400046F
:1043F00002D1002921D01124050E01D10002083478
:10440000050F01D10001241D850F01D18000A41CDE
:10441000002801DB4000641C002908D020252E1B49
:104420000D46F540A14000D0012129430843010673
:104430001B1B000ADB1D02D5002070BC7047DB058A
:10444000181880180029F8DA401C4900F5D170BC12
:1044500040084000704710B5002B08DA0024401CCB
:10446000614192185B411A4301D14008400010BDE0
:10447000F0B51FB482B005460C0003D0084603F027
:10448000B5FD02E003F0B2FD203002460090214667
:10449000284600F051F8049B059A04460F4618433D
:1044A0001143084314D0184610431BD000984021F4
:1044B0000A1A18460599FFF72DFE05460E46009A82
:1044C0000599049800F038F8084305D0012004E06D
:1044D0002046394607B0F0BD0020C11705430E4302
:1044E0002C43374300990E986305401A7905E40A76
:1044F00000220C43FD0A0A3002D500200146E9E7FC
:104500000105101969410C9C0D9D00196941FFF7C7
:10451000A2FFDFE7064C0125064E05E0E36807CC65
:104520002B430C3C98471034B442F7D3FFF7C6FD39
:104530002CB800084CB8000810B5202A04DB01464E
:10454000203A9140002010BD914020239C1A034640
:10455000E3401943904010BD01460020302905DB9F
:10456000392903DC0A46303AD0B202E00A46373A2B
:10457000D0B2704730B502460023002004E0145C3E
:104580005C40034D2B5D401C8842F8D3184630BD7B
:10459000E4AE000810B50B110A07120F092B03DC5B
:1045A0001C463034047002E01C4637340470092A7B
:1045B00003DC14463034447002E01446373444704F
:1045C00010BD000070B50146002200230024002524
:1045D0000C48046801F0DCFC024600BF01F0D8FC86
:1045E000034608480068A04207D906480068001B37
:1045F000054E7043C018851A00E09D1A8D42EDD318
:1046000070BD0000F000002050C30000704731B5BD
:10461000002400F09BF9044600BF00F097F9001B4E
:1046200000998842F9D338BDF0B502460B46002008
:10463000002100246FE0012585401D402946002906
:1046400068D0156847000326BE40B5431560C5080D
:10465000AE0015462035AD594607F70E0F26BE4071
:10466000B543C608B60017462037BD5195684700C8
:104670000326BE40B5439560556801268640B54384
:104680005560D56847000326BE40B543D560244D2C
:104690008608B600AC5985072E0F0F25B5402C4073
:1046A0000925ED06AA4201D100250FE01D4DAA42C1
:1046B00001D101250AE01C4DAA4201D1022505E0E5
:1046C0001A4DAA4201D1032500E005258607360FC1
:1046D000B540A5421ED185072E0F0F25B5402C46AB
:1046E0000F4D8608B600AD59A5430D4E8708BF0093
:1046F000F5510F4D2D688D430D4E356035466D6873
:104700008D4375603546AD688D43B5603546ED68BF
:104710008D43F560401C1D46C540002D8BD1F0BD7A
:10472000080001400004004800080048000C004850
:104730000004014078B50346002200240020DEE09A
:10474000012696400D6835402C46002C7ED04D68E1
:10475000022D02D04D68122D15D1D508AE001D4690
:104760002035A8595507EE0E0F25B5400646AE4335
:1047700030465607F60E0D69B5402843D508AD0002
:104780001E4620367051186856000325B54006466F
:10479000AE4330460D79AD07AD0F5600B540284306
:1047A00018604D68012D08D04D68022D05D04D6868
:1047B000112D02D04D68122D18D19868560003258E
:1047C000B5400646AE4330465600CD68B540284356
:1047D00098605868012595400646AE43304610263D
:1047E0004D6835402D09954028435860D8685600DB
:1047F0000325B5400646AE43304656008D68B540A9
:104800002843D860012636074D683540B54275D13A
:1048100000BF3E4DAD69012635433C4EB56135467E
:10482000AD69ED07ED0F009500BF00BF384D96084C
:10483000B600A85995072E0F0F25B5400646AE4382
:1048400030460925ED06AB4203D100E056E00025D5
:104850000FE0304DAB4201D101250AE02E4DAB42B5
:1048600001D1022505E02D4DAB4201D1032500E029
:1048700005259607360FB5402843254D9608B60006
:10488000A851274D28680546A54328460126360429
:104890004D683540B54202D1054625432846204D96
:1048A000286068680546A5432846012676044D68B9
:1048B0003540B54202D1054625432846184D68606B
:1048C000A8680546A5432846012636054D683540AB
:1048D000B54202D1054625432846114DA860E86837
:1048E0000546A5432846012676054D683540B54264
:1048F00002D1054625432846094DE860521C0D6843
:10490000D540002D00D01BE778BD0000001002400C
:10491000080001400004004800080048000C00485E
:1049200000040140024613690B40002B01D0012016
:1049300000E00020704742694A4042617047002A07
:1049400001D0816100E08162704700000148006889
:10495000704700006001002070B504460025002C5F
:1049600001D1012070BD2068C068C007C00F0121BF
:104970004840484000280FD02068C0680221084005
:104980004008002808D02068C0680421084080083A
:10499000002801D00120E5E7607C002803D12074C5
:1049A000204600F03FF8022060741C48216808602F
:1049B00020684068C008C0006168084321684860FA
:1049C00020688068000B0003A168084321688860A4
:1049D0001349E068884203D120680069884219D0F1
:1049E000FFF7B4FF054609E0FFF7B0FF401B7D214C
:1049F000C900884202D903206074B3E72068C06808
:104A00000028F1D120680069000B0003E168084329
:104A100021680861012060740020A3E7555500005B
:104A2000FF0F00007047000070B50446002500BF6E
:104A3000207C012801D1022070BD0120207400BF1C
:104A400002206074FFF782FF05460EE0FFF77EFF4D
:104A5000401B7D21C900884207D90320607400BF34
:104A60000020207400BF0320E6E72068C068022110
:104A7000084040080028E9D1054821680860012065
:104A8000607400BF0020207400BF00BFD4E70000A6
:104A9000AAAA000070B50446002500BF207C0128AA
:104AA00001D1022070BD0120207400BF022060747B
:104AB0001D49E068884202D11C48216808601C48F2
:104AC00021680860FFF742FF05460EE0FFF73EFF52
:104AD000401B7D21C900884207D90320607400BFB4
:104AE0000020207400BF0320DCE72068C068C007F6
:104AF000C00F01214840484000280DD02068C06800
:104B0000022108404008002806D02068C06804211F
:104B1000084080080028D9D10120607400BF00201F
:104B2000207400BF00BFBDE7FF0F0000AAAA00006D
:104B3000CCCC00000B480068401C0A4908600A48B9
:104B40000088401C084908800846008807498842B8
:104B500007DD00200449088005480068401C04491E
:104B6000086070476001002064010020E703000036
:104B7000F400002010B506480068102108430449DD
:104B80000860032000F006F800F017F8002010BDC0
:104B90000020024070B5044600F0FCF806467D2176
:104BA000C900FFF7A1FA054601F096F80022214658
:104BB000501E00F01BF8002070BD704700BFC206F9
:104BC000D20E01219140024A116000BF70470000DF
:104BD00080E100E000BFC206D20E01219140024AEE
:104BE000116000BF7047000000E100E070B50446AE
:104BF0000D4616462946204601F096FC70BD000081
:104C000070B504460D4600265D480068C007C00F19
:104C1000A8420ED25A48006840084000284358492C
:104C2000086008460068C007C00FA84201D00120F4
:104C300070BD022120680840022807D15148406811
:104C4000F0218843A16808434E4948602078C00796
:104C5000C00F00285FD06068012808D1494800686B
:104C6000012149040840002815D10120E0E76068CF
:104C7000022808D14348006801214906084000285D
:104C800009D10120D4E73F480068022108400028EC
:104C900001D10120CCE73B48406880088000616872
:104CA000084338494860FFF751FE0646606801280E
:104CB0000FD107E0FFF74AFE801B3349884201D934
:104CC0000320B5E72F4840680C2108400428F1D1A3
:104CD00021E0606802280FD107E0FFF737FE801B54
:104CE0002949884201D90320A2E7264840680C21BF
:104CF00008400828F1D10EE007E0FFF727FE801BEF
:104D00002149884201D9032092E71E4840680C21BE
:104D100008400028F1D11A480068C007C00FA84217
:104D20000ED917480068400840002843144908601D
:104D300008460068C007C00FA84201D0012077E7ED
:104D4000042120680840042808D10E484068072143
:104D500009028843E16808430A49486000F032F8D4
:104D600008494968F02211400909084A515CC840C5
:104D7000074908600320FFF70DFF002058E70000F7
:104D800000200240001002408813000012B8000802
:104D90006801002001480068704700006801002099
:104DA00000B5FFF7F7FF05494968072212021140D5
:104DB000090A034A515CC84000BD000000100240CF
:104DC00022B80008F0B589B024A001460EC9C06819
:104DD00005AC0EC4089025A001460EC9C06801AC00
:104DE0000EC4049000240027002500260020009017
:104DF000224844680C202040002827D0042802D0F4
:104E0000082822D102E01E48009022E00F208004F2
:104E10002040800C05A90E5C1848C06A0007000FEE
:104E200001A90F5C012000042040012109048842EF
:104E300006D139461248FFF757F97043054602E09C
:104E4000104835464543009503E000BF0C480090EC
:104E500000BF00BF009809B0F0BD000002030405C8
:104E6000060708090A0B0C0D0E0F101001020304AF
:104E700005060708090A0B0C0D0E0F100010024062
:104E800000127A0000093D00F8B50446002520789C
:104E9000C007C00F002871D0F94840680C210840B5
:104EA00004280BD0F64840680840082812D1F4487E
:104EB000406801210904084088420BD1F04800688D
:104EC00001214904084000286BD06068002868D19F
:104ED0000120F8BD00BF6068012807D1E8480068DC
:104EE000012109040843E649086031E060680028B0
:104EF0000ED1E3480068012109048843E0490860B5
:104F000008460068012189048843DD4908601FE0E4
:104F1000606805280ED1DA48006801218904084339
:104F2000D749086008460068012109040843D449AC
:104F300008600DE0D2480068012109048843D04987
:104F4000086008460068012189048843CC4908604C
:104F500000BF6068002812D0FFF7F8FC054606E0A5
:104F6000FFF7F4FC401B642801D90320B1E7C448D3
:104F700000680121490408400028F1D011E0FFF742
:104F8000E5FC054606E0FFF7E1FC401B642801D97B
:104F900003209EE7BA480068012149040840002820
:104FA000F1D1022120680840022861D1B44840684C
:104FB0000C21084000280BD0B14840680840082860
:104FC0001BD1AF484068012109040840002814D1D2
:104FD000AB48006802210840002804D0E06801289E
:104FE00001D0012075E7A6480068F82188432169AF
:104FF000C9000843A24908603AE0E068002820D0D0
:105000009F480068012108439D490860FFF79EFC06
:10501000054606E0FFF79AFC401B022801D9032051
:1050200057E797480068022108400028F2D09448CA
:105030000068F82188432169C90008439049086045
:1050400016E08F480068400840008D490860FFF76F
:105050007DFC054606E0FFF779FC401B022801D9DC
:10506000032036E786480068022108400028F2D174
:10507000082120680840082831D1E069002817D0AD
:105080007F48406A012108437D494862FFF75EFC82
:10509000054606E0FFF75AFC401B022801D9032011
:1050A00017E77748406A022108400028F2D016E04E
:1050B0007348406A4008400071494862FFF746FC67
:1050C000054606E0FFF742FC401B022801D90320F9
:1050D000FFE66B48406A022108400028F2D1042113
:1050E00020680840042871D100266548C0698906F7
:1050F000084000280DD100BF6148C06908436049DD
:10510000C8610846C06909040840009000BF00BF9C
:1051100001265C480068FF2101310840002816D1B3
:1051200058480068084357490860FFF70FFC0546D8
:1051300006E0FFF70BFC401B642801D90320C8E6FA
:1051400050480068FF21013108400028F1D000BF1D
:10515000A068012806D14A48006A0121084348494D
:1051600008622BE0A06800280CD14548006A40087E
:105170004000434908620846006A042188434049C8
:1051800008621BE0A06805280CD13D48006A042194
:1051900008433B4908620846006A01210843384930
:1051A00008620BE03648006A400840003449086253
:1051B0000846006A042188433149086200BFA0689C
:1051C000002813D0FFF7C2FB054608E029E0FFF7EF
:1051D000BDFB401B2C49884201D9032079E62848B1
:1051E000006A022108400028F1D011E0FFF7AEFB71
:1051F000054607E0FFF7AAFB401B2349884201D977
:10520000032066E61E48006A022108400028F1D10A
:10521000012E05D11A48C069310788431849C86171
:1052200000BF10212068084010285FD16069012864
:105230002CD11348406B04210843114948630846A8
:10524000406B012108430E494863FFF77FFB054689
:1052500006E0FFF77BFB401B022801D9032038E65C
:105260000748406B022108400028F2D00448406BF8
:10527000F8218843A169C90008430149486335E022
:105280000010024000700040881300006069401D5B
:1052900000280FD14E48406B042188434C49486395
:1052A0000846406BF8218843A169C9000843484972
:1052B00048631BE04648406B042108434449486367
:1052C0000846406B400840004863FFF73FFB054637
:1052D00006E0FFF73BFB401B022801D90320F8E55D
:1052E0003B48406B022108400028F2D1206A002888
:1052F0006CD0374840680C210840082864D0206AE8
:10530000022847D132480068012109068843304904
:105310000860FFF71BFB054606E0FFF717FB401B85
:10532000022801D90320D4E5294800680121490653
:1053300008400028F1D100BF2548C06A00090001DB
:10534000E16A08432249C862616AA06A08432049A9
:1053500049683D221204914308431D49486000BF3B
:105360000846006801210906084319490860FFF74B
:10537000EDFA054606E0FFF7E9FA401B022801D9DD
:105380000320A6E5124800680121490608400028CC
:10539000F1D01BE00E4800680121090688430C4942
:1053A0000860FFF7D3FA054606E0FFF7CFFA401B87
:1053B000022801D903208CE505480068012149062F
:1053C00008400028F1D101E0012082E5002080E5BD
:1053D0000010024070B50446002C01D1012070BDC0
:1053E0005D20005D002805D100215C20015520468C
:1053F00000F068F802215D20015520680068402116
:1054000088432168086007210902E068884201D9C1
:10541000002501E001252D030F210902E0688842E3
:1054200006D007210902E068884201D00021A1626C
:10543000206B002809D107210902E068884202D9BF
:105440000221216301E001212163A1686068084312
:10545000216908436169084301225202A169114090
:105460000843E1690843216A0843A16A08432168A7
:105470000860206B022805D120680068910008436D
:1054800021680860A069000C04210840616A084393
:10549000616B0843E168084328432168486021683C
:1054A000E06A08612068C069054908402168C86150
:1054B0000020206601215D20015500208FE70000BB
:1054C000FFF7000070470000F0B585B004460F46B6
:1054D00016461D46FFF73AFA029000200190FF2180
:1054E0000531606888420BD1A068002808D1334696
:1054F0003A4639462046009500F02CFA05B0F0BD3A
:1055000000BF5C20005D012801D10220F6E70121E7
:105510005C20015500BF5D20005D012802D0022003
:10552000019022E1002F01D0002E02D10120019034
:105530001BE104215D2001550020206627644420E2
:105540000653462006530020A063A087E087C902C7
:10555000A06A884214D100BF2068006888490840CA
:105560002168086020680068012149030843216818
:10557000086000BF4620005B401E81B246200153F8
:1055800007210902E068884207D9206840680121A4
:10559000090388432168486006E0206840680121CB
:1055A00009030843216848600121C903A0688842B3
:1055B00005D1206800684910884321680860206888
:1055C000006840210840402804D020680068084353
:1055D0002168086007210902E068884226D820E097
:1055E00020688068C007C00F00280CD02068017BAD
:1055F000226C501C206411704620005B401E81B25A
:10560000462001530DE0002D08D0681C002808D06A
:10561000FFF79CF90299401AA84202D30320019097
:10562000A3E04620005B0028DADC26E021E02068C9
:105630008068C007C00F00280DD02068C068216CAA
:105640000880206C801C20644620005B401E81B2D4
:10565000462001530DE0002D08D0681C002808D01A
:10566000FFF774F90299401AA84202D3032001906F
:105670007BE04620005B0028D9DC01214903A06AB9
:10568000884256D1206800684910084321680860A4
:105690002B4601221146204602F0DAF8002802D0FB
:1056A0000320019061E007210902E068884204D9E3
:1056B0002068C068216C088003E02068007B216CB2
:1056C00008702B4601221146204602F0C1F800283E
:1056D00004D0022020660320019046E00F21090239
:1056E000E068884206D12068C06881B203916846AC
:1056F00080891EE02068017B03916846808907212C
:105700000902E068884214D1206B022811D12B468F
:1057100001221146204602F09BF8002804D0022006
:1057200020660320019020E02068017B03916846F9
:1057300080892946204601F041FF002801D0202021
:10574000206620688068102108400009002806D0E3
:10575000206E0221084320660A4821688860206E76
:10576000002801D00120019000BF01215D200155DA
:1057700000BF00215C20015500BF0198BEE600007B
:10578000FFDF0000EFFF0000FEB504460F4616469F
:105790001D46FFF7DBF802900020019000BF5C205F
:1057A000005D012801D10220FEBD01215C200155D0
:1057B00000BF5D20005D012802D002200190BCE006
:1057C000002F01D0002E02D101200190B5E003216D
:1057D0005D20015500202066A763A687E687206428
:1057E000002144200153462001530121C903A06830
:1057F000884205D120680068491008432168086084
:1058000001214903A06A88420ED100BF20680068C8
:105810004F49084021680860206800680121490359
:1058200008432168086000BF2068006840210840E4
:10583000402804D0206800680843216808600721D8
:105840000902E068884223D91EE0206880680221AE
:10585000084002280AD1A06B00882168C860A06BAC
:10586000801CA063E08F401EE0870DE0002D08D073
:10587000681C002808D0FFF769F80299401AA8426E
:1058800002D30320019058E0E08F0028DDDC2FE0F8
:105890002BE02068806802210840022817D1E08FA1
:1058A00001280ADDA06B00882168C860A06B801CFD
:1058B000A063E08F801EE08717E0A16B481CA06307
:1058C000087821680873E08F401EE0870DE0002D06
:1058D00008D0681C002808D0FFF738F80299401A51
:1058E000A84202D30320019027E0E08F0028D0DCFB
:1058F00001214903A06A884205D120680068491047
:105900000843216808602946204601F09BFE0028D4
:1059100001D020202066A068002808D100BF2068A0
:10592000C068009020688068009000BF00BF206EB3
:10593000002801D00120019000BF01215D20015508
:1059400000BF00215C20015500BF01982CE700003A
:10595000FFDF0000FFB583B004460F461D460C9ED6
:10596000FEF7F4FF01900020009000BF5C20005D76
:10597000012802D1022007B0F0BD01215C200155B1
:1059800000BF5D20005D012802D00220009095E15B
:10599000002F04D00598002801D0002D02D101204D
:1059A00000908BE105215D200155002020660598BF
:1059B00020644620055344200553A763E587A58747
:1059C00001214903A06A88420ED100BF2068006807
:1059D000BF49084021680860206800680121490328
:1059E00008432168086000BF07210902E068884277
:1059F00003D84620005B012807DD206840680121AC
:105A0000090388432168486006E020684068012156
:105A10000903084321684860206800684021084065
:105A2000402804D0206800680843216808600721E6
:105A30000902E06888425FD956E0E08F002830DD37
:105A4000206880680221084002282AD1A06B0088C3
:105A50002168C860A06B801CA063E08F401EE087B7
:105A6000E08F00281DD101214903A06A884218D186
:105A7000206800680421084000280BD12068406895
:105A800008210840082805D12068006889010843DA
:105A90002168086020680068012109030843216823
:105AA00008604620005B002812DD20688068C0077F
:105AB000C00F00280CD02068C068216C0880206CC2
:105AC000801C20644620005B401E81B246200153AA
:105AD000701C002808D0FEF739FF0199401AB04227
:105AE00002D303200090E9E0E08F0028A5DC4620E7
:105AF000005B0028A1DC87E07EE0E08F00283DDD30
:105B00002068806802210840022837D1E08F0128F0
:105B10000ADDA06B00882168C860A06B801CA063B0
:105B2000E08F801EE08708E0A16B481CA063087826
:105B300021680873E08F401EE087E08F00281DD1A8
:105B400001214903A06A884218D120680068042115
:105B5000084000280BD12068406808210840082828
:105B600005D1206800688901084321680860206821
:105B70000068012109030843216808604620005B92
:105B800000282DDD20688068C007C00F002827D0BE
:105B90004620005B012817DD2068C068216C088062
:105BA000206C801C20644620005B801E81B2462051
:105BB0000153005B012813DC2068406801210903C0
:105BC0000843216848600BE02068017B226C501C70
:105BD000206411704620005B401E81B246200153B4
:105BE000701C002808D0FEF7B1FE0199401AB0429F
:105BF00002D30320009061E0E08F002800DD7CE705
:105C00004620005B0028FADC01214903A06A884293
:105C100036D1334601221146204601F019FE0028F4
:105C200006D0206E0221084320660320009045E044
:105C30000F210902E068884206D12068C06881B25D
:105C40000291684600891BE02068017B029168464A
:105C50000089206B022813D13346012211462046C9
:105C600001F0F6FD002806D0206E022108432066D0
:105C70000320009022E02068017B029168460089A1
:105C800020688068102108400009002808D0206E94
:105C90000221084320660F48216888600120009097
:105CA0003146204601F0CEFC002801D0202020669D
:105CB000206E002801D00120009000BF01215D204E
:105CC000015500BF00215C20015500BF009852E63D
:105CD000FFDF0000EFFF000070B504462546681E98
:105CE0000949884201D901200CE0681E0749486132
:105CF0000321081F00F018FC0020044988610720D8
:105D00000861002070BD0000FFFFFF0000E000E020
:105D10007047704710B50446002C01D1012010BD1A
:105D20003D20005D002805D100213C200155204682
:105D300000F00CF802213D200155211D206801F0E2
:105D40005BFE01213D2001550020E8E77047014638
:105D50000868C068012210430A68D06008680068BB
:105D6000012210430A68106000207047704710B588
:105D700004462068006902210840400800281CD021
:105D80002068C06808404008002816D0481F2168D5
:105D9000086101202077206880698007800F002833
:105DA00003D02046FFF7E2FF05E0204600F0C3F8ED
:105DB000204600F0C1F80020207720680069042107
:105DC0000840800800281DD02068C068084080086E
:105DD000002817D0C8432168086102202077206876
:105DE0008069032109020840002803D02046FFF7FC
:105DF000BDFF05E0204600F09EF8204600F09CF82C
:105E0000002020772068006908210840C008002889
:105E10001CD02068C0680840C008002816D0C843BD
:105E200021680861042020772068C0698007800FFE
:105E3000002803D02046FFF799FF05E0204600F038
:105E40007AF8204600F078F8002020772068006972
:105E500010210840000900281DD02068C0680840B3
:105E60000009002817D0C84321680861082020775E
:105E70002068C069032109020840002803D0204699
:105E8000FFF774FF05E0204600F055F8204600F0CB
:105E900053F80020207720680069C007C00F012157
:105EA0004840484000280CD02068C068084048405E
:105EB0004840002805D0C81E21680861204600F02F
:105EC0003DF82068006980210840C00900280BD0F7
:105ED0002068C0680840C009002805D0C843216870
:105EE00008612046FFF714FF206800694021084040
:105EF000800900280BD02068C0680840800900286D
:105F000005D0C84321680861204600F03FF82068AA
:105F1000006920210840400900280BD02068C06893
:105F200008404009002805D0C84321680861204680
:105F3000FFF7EFFE10BD70477047000010B5044634
:105F40000C492068884203D101200B49087010E0F9
:105F50000A49206888420CD109480068401C084959
:105F60000860012189020748FEF7E5FC0648FEF7B4
:105F70005BFD10BD00040040EC0000200044014027
:105F8000F000002000040048740100207047000069
:105F900001480068406A7047D004002010B50446EC
:105FA000002C01D1012010BD242169200155206859
:105FB00000684008400021680860002021680860EF
:105FC0002168486021688860204600F0DBF80020E6
:105FD000E0660021692001556A20015500BF682054
:105FE000015500BF0020DEE710B5044600F062FF57
:105FF00000F0B8FF10BD10B504462068C069C007A6
:10600000C00F00280DD020680068FF210131084032
:10601000002806D0012021680862E06E01210843B3
:10602000E0662068C0690221084000280CD0206882
:106030008068C007C00F002806D0022021680862CF
:10604000E06E04210843E0662068C069042108402E
:1060500000280CD020688068C007C00F002806D038
:10606000042021680862E06E02210843E06620688F
:10607000C0690821084000280CD020688068C0074B
:10608000C00F002806D0082021680862E06E0821B1
:106090000843E0662068C06920210840002807D036
:1060A000206800680840002802D0204601F085FDE5
:1060B0002068C06980210840002807D02068006857
:1060C0000840002802D0204601F0B8FE2068C069D0
:1060D00040210840002807D02068006808400028B8
:1060E00002D0204601F059FDE06E002807D02021A3
:1060F000692001556A2001552046FFF775FF10BD44
:1061000010B50446002C01D1012010BDA069002863
:1061100000D000E000BF6920005D002805D100210B
:1061200068200155204600F04DF8242169200155D2
:10613000206800684008400021680860204601F09F
:106140008BFD012800D1E0E7606A002802D02046DC
:1061500001F09CFC206840680121C9028843216845
:10616000486020688068082188432168886020682A
:1061700000680121084321680860204601F0FEFC08
:10618000C3E7000010B504460D4800690121490429
:1061900008430B4908610846006901214904884306
:1061A0000749086104210920C006FEF73DFA0821CD
:1061B0000920C006FEF738FA1C20FEF7FFFC10BDD0
:1061C0000010024010B58CB0044652492068884245
:1061D00052D100BF504840690121490408434E494B
:1061E000486108464069012149040840069000BF03
:1061F00000BF00BF48484069084347494861084616
:106200004069012149040840069000BF00BF00BF5B
:106210004148C06908434049C8610846C069012136
:1062200049040840069000BF00BF042007900220E8
:1062300008900120099003200A9001200B9007A9E3
:106240000920C006FEF776FA0820079001200B907F
:1062500007A90920C006FEF76DFA012200211C20C3
:10626000FEF7C4FC1C20FEF7B5FC20688068012105
:106270000843216888604AE028492068884246D15E
:1062800000BF25484069012149040843224948616B
:1062900008464069012149040840019000BF00BF41
:1062A00000BF1D48406908431B49486108464069D2
:1062B000012149040840019000BF00BF00BF1648FB
:1062C0008069C91008431449886108468069012122
:1062D00089030840019000BF00BF481102900220CE
:1062E000039001200490032005900120069002A94C
:1062F0000920C006FEF71EFA01208002029001204C
:10630000069002A90920C006FEF714FA00BF0CB0DF
:1063100010BD000000440040001002400038014061
:1063200010B503466A20C05C202860D1002901D046
:10633000002A01D1012010BD012424039868A04245
:1063400008D11869002805D1C807C00F002801D05E
:106350000120F0E700BF6820C05C012801D10220C5
:10636000E9E701246820C45400BF59655820C2528F
:106370005A20C25200BF24039868A0420AD118696B
:10638000002803D11B4C5C20C45210E0FF245C2089
:10639000C4520CE09868002809D11869002803D17C
:1063A000FF245C20C45202E07F245C20C45200BF62
:1063B0000020D86622246A20C45418680068FF248C
:1063C000013420431C682060186880680124204341
:1063D0001C68A06000BF00246820C45400BF186877
:1063E0000068202420431C6820600020A3E70220CE
:1063F000A1E70000FF01000010B5044600F0ECF832
:1064000000F0B0FD10BDFFB581B004460D46164644
:106410006920005D202865D1002D01D0002E02D119
:10642000012005B0F0BD01210903A068884208D110
:106430002069002805D1E807C00F002801D00120FD
:10644000EFE700BF6820005D012801D10220E8E7E6
:1064500001216820015500BF0020E066212169204C
:106460000155502006535220065323E05220005B72
:10647000401E81B252200153002280212046049BFD
:1064800001F015FD002801D00320CAE7012109030E
:10649000A06888420AD12069002807D12F46388891
:1064A000C005C00D21680885AD1C03E028786D1C6F
:1064B000216808855220005B0028D7DC002240219B
:1064C0002046049B01F0F3FC002801D00320A8E73C
:1064D00020216920015500BF00216820015500BF1F
:1064E00000209EE702209CE7704700BFFEE7000007
:1064F00010B50A480A49086006204860002108488B
:10650000C160FF213B318160FEF726FA0448FEF7A7
:10651000C1FA002801D000BFFEE710BD00300040E6
:10652000740100207047000010B5002819DA1A4ADB
:1065300003071B0F083B9B089B00D2588307DC0E08
:10654000FF23A3409A438B071B0E8407E40EA3404E
:106550001A43114B0407240F083CA408A4001A5145
:1065600018E00E4A03231B02D21883089B00D2585E
:106570008307DC0EFF23A3409A438B071B0E84077F
:10658000E40EA3401A43054B032424021B1984087C
:10659000A4001A5110BD00001CED00E000E100E075
:1065A00000BF00BF00BFBFF34F8F00BF00BF00BFE1
:1065B00006480749C86000BF00BF00BFBFF34F8F48
:1065C00000BF00BF00BF00BF00BFFDE70400FA0529
:1065D00000ED00E07047000010B503480178034863
:1065E00003F0EDF910BD0000D60000200C040020DF
:1065F00010B50024244803F0BFF9002841D02248F8
:1066000003F0C1F9C4B23A2C06D100201F4908702A
:1066100001201F49087010BD1D480078002830D0A7
:106620001A4801780078401C184A107019484454E0
:1066300010460078A02805DB002011460870144998
:106640000870E8E70A2C1CD110480078062813DDF2
:1066500000210E480078401E0E4A11540B48007865
:10666000801E115409480078801E084908700846A9
:106670000178104600F010F8002004490870044921
:10668000087000BFC7E700000C040020D500002000
:10669000DC0000206C030020F3B5DBB006460025CB
:1066A00000205A9059905890579056905590549079
:1066B000539064213AA8FDF757FD00275C9801909C
:1066C00000240020F64908703078FDF745FF0301EB
:1066D0007078FDF741FF1818C0B25A90B078FDF7F6
:1066E0003BFF0301F078FDF737FF1818C5B2019999
:1066F000891E705CFDF730FF03010199491E705C33
:10670000FDF72AFF1818C0B258901E213AA8FDF7CD
:106710002BFD314612A85C9AFDF70DFDA0213046F5
:10672000FDF722FD0020DF490870DF4909785A98FB
:10673000884202D040205DB0F0BD5C98811E12A856
:10674000FDF718FF579058995798884205D0A02117
:106750003046FDF709FD3020EDE72B0001F05DFC30
:1067600007F305319FF2F1F0F30002F049FD559077
:1067700002F0FEFD80B2569002F0D0FDC0B2539000
:106780003AA85599FDF706FF569801123AA802302B
:10679000FDF700FF5698C1B23BA8FDF7FBFE3BA8F2
:1067A00002305399FDF7F6FE02F0DCFD0146009041
:1067B0003CA8FDF7EFFE0A2229463AA800F0E6FBC6
:1067C00003E310A9087BFDF7C7FE030110A9487B6E
:1067D000FDF7C2FE1818C0B2599059980007000F73
:1067E000599010A9087CFDF7B7FE030110A9487C59
:1067F000FDF7B2FE1818AD49087010A9887CFDF7A6
:10680000ABFE030110A9C87CFDF7A6FE1818A84925
:10681000087010A9087DFDF79FFE030110A9487DAF
:10682000FDF79AFE1818A349087010A9887DFDF796
:1068300093FE030110A9C87DFDF78EFE18189E492E
:10684000087002F06BFDC0B253905998012801DD29
:10685000502070E7954800781E2803DC93480078A4
:10686000102805DA02F05AFDC0B25390502062E7BA
:1068700091480178599802F02BF802F0C1FC55902C
:106880003AA85599FDF786FE3AA802305399FDF7CC
:1068900081FE042229463AA800F078FB95E287A100
:1068A000894801F08FFB89490870084601788648BD
:1068B00002F07CFC02F032FD40B254900421549866
:1068C000084000281AD082A17F4801F07BFB7F4955
:1068D0000870084601787C4802F068FC0420539058
:1068E0003AA85399FDF756FE28468030C1B20222DD
:1068F0003AA800F04BFB02F011FD1CE70A2002F061
:1069000085FC5490549800281EDA78A16E4801F056
:1069100059FB6E490870084601786B4802F046FC46
:10692000042053903AA85399FDF734FE284680304E
:10693000C1B202223AA800F029FB0020C043FAE6C7
:1069400035E2DBE173E03FE210A9087BFDF704FECE
:10695000030310A9487BFDF7FFFD00021B1810A9D7
:10696000887BFDF7F9FD00011B1810A9C87BFDF716
:10697000F3FD1818634908800846028862A152484E
:1069800001F020FB51490870084601784E4802F09A
:106990000DFC5C4800880321090288420CDB60A1E1
:1069A000494801F00FFB49490870084601784648FC
:1069B00002F0FCFB6020BEE65248008804F036FA84
:1069C00000281ADA5EA1404801F0FCFA3F4908703D
:1069D000084601783C4802F0E9FB012053903AA8B0
:1069E0005399FDF7D7FD28468030C1B202223AA85C
:1069F00000F0CCFA0020C0439DE601F04DFF0020DE
:106A00005449088053900120534908700020539046
:106A100029480178002001F05BFF3AA85399FDF75F
:106A2000B9FD022229463AA800F0B0FACDE14A4861
:106A30000078002832D000204849087001988A2840
:106A40000CD047A1204801F0BDFA20490870084643
:106A500001781D4802F0AAFB90206CE610A9087B83
:106A6000FDF77AFD030310A9487BFDF775FD0002D1
:106A7000034310A9887BFDF76FFD0001034310A9B4
:106A8000C87BFDF769FD03431F4632480088381A6A
:106A9000012804D93B462F4802886DE02DE18AE0A9
:106AA000ED00002000010020D7000020D1000020D0
:106AB000D2000020D30000201D0100204E6F747909
:106AC00020736D73210A000068020020D4000020AA
:106AD00053797374656D206572726F722063616E95
:106AE000277420757064617465210A0045726173B2
:106AF000657220736563746F722066616C736521C3
:106B00000A000000D80000204E756D62657220708A
:106B100061636B6167653A202564210A000000000B
:106B20004E756D626572207061636B6167653A20B6
:106B300065786365656420657870656374210A0013
:106B40005570646174652073697A652066616C7341
:106B500065210A00DA000020CF000020EE000020AE
:106B60005061636B6167652077726F6E672C61623D
:106B70006F617274210A000095A1A34801F022FA06
:106B8000A2490870084601789F4802F00FFB0220D6
:106B9000539000209E49087013983A903BA853994F
:106BA000FDF7F8FC28468030C1B206223AA800F072
:106BB000EDF9A020BFE597490F800020009017E075
:106BC00000994900083112AA505CFDF7C5FC030189
:106BD00000994900093112AA505CFDF7BDFC181854
:106BE000C1B202AA009811540098401CC0B2009093
:106BF00000984028E4DBB9B202A802F0FBFE0028AE
:106C00001FDA3A4684A1804801F0DCF97F49087018
:106C1000084601787C4802F0C9FA08205390002009
:106C20007B49087013983A903BA85399FDF7B2FC42
:106C300028468030C1B206223AA800F0A7F9A02069
:106C400079E581480188781C814249D17FA16E484D
:106C500001F0B8F96D490870084601786A4802F0F9
:106C6000A5FA0020539002F007FE00281EDA7EA14C
:106C7000654801F0A7F9654908700846017862483F
:106C800002F094FA0820539000206149087013988C
:106C90003A903BA85399FDF77DFC28468030C1B25D
:106CA00006223AA800F072F9A02044E574A15648E3
:106CB00001F088F95549087008460178524802F0F9
:106CC00075FA0020539013983A903BA85399FDF71A
:106CD00061FC062229463AA800F058F9FFF760FC4B
:106CE0000020539013983A903BA85399FDF752FC1B
:106CF000062229463AA800F049F966E0002402F08D
:106D00000DFB3AA908553AA8005D092808DC214680
:106D1000621CD4B23AAA881801783031017007E0B9
:106D20002146621CD4B23AAA881801783731017022
:106D30005D48FDF724FA3AA9009008195A49009ACB
:106D4000FDF7F9F95848FDF71AFA0019C4B22C22D8
:106D50002146601CC4B23AA842545448FDF70FFAC9
:106D60003AA9009008195149009AFDF7E4F94F48F3
:106D7000FDF705FA0019C4B22C222046611CCCB2E2
:106D80003AA90A544A48FDF7FAF93AA900900819B5
:106D90004749009AFDF7CFF94548FDF7F0F900198A
:106DA000C4B2224629463AA800F0F0F80DE00020CF
:106DB00053903AA85399FDF7EDFB022229463AA8D1
:106DC00000F0E4F8FFF7ECFB00BF00BF0020B2E4E6
:106DD0004C6F73742062616E2074696E2C20626542
:106DE000666F7265207061636B6167653A20256428
:106DF00020616E64206E6F77207061636B616765E0
:106E00003A20256420210A0068020020D4000020D6
:106E1000CF000020DA000020536176652066697299
:106E20006D7761726520746F20666C61736820668F
:106E3000616C73652C207061636B616765203D2018
:106E40002564210A00000000D8000020447520734A
:106E50006F2062616E2074696E2063616E207570B0
:106E60006461746521200A00726571756573742010
:106E70007570646174652066616C7365210A000039
:106E800072657175657374207570646174652073C3
:106E90007563636573732C20726573657474696EB2
:106EA000672E2E2E210A00003F0100201F01002026
:106EB0005C05002000B587B000BF2448406901216F
:106EC0008904084321494861084640690121890431
:106ED0000840019000BF00BFA0221D491D4802F0DC
:106EE00067FD00BF1948C0690121490408431749DB
:106EF000C8610846C069012149040840019000BFEB
:106F000000BF1548154908604B20C00148600021AA
:106F100012488160C160016181610C2141610020E2
:106F20000E4948620846FFF739F80C48FFF7E8F8C1
:106F300001200390032005900120C002029002A9C5
:106F40000748FDF7F7FB07B000BD00000010024046
:106F5000CC0200200C0400200044004088010020E6
:106F60000004004810B500220121C9020448FDF7C1
:106F7000E6FC012203490448FFF7D2F910BD0000E6
:106F800000040048D600002088010020F0B5A9B018
:106F900006460F4615460024002028901FA00068D2
:106FA0002790982101A8FDF7DFF8982101A8FDF7A7
:106FB000DBF83A20694608711948017801A80130C8
:106FC000FDF7E8FA394601A80330FDF7E3FA00209F
:106FD00005E0315C01AA431DD154411CC8B2A8424E
:106FE000F7DB6C1D611E01A80130FDF7C3FA289084
:106FF00001A908192899FDF7CDFAA41C20A8007F43
:1070000001A9085520A8417F01AA601C1154A41CA5
:10701000214601A800F006F829B0F0BD0D0A0000D5
:10702000D700002070B504460D460122D102094860
:10703000FDF785FC0120FDF7EAFAAAB2064B2146CE
:107040000648FFF7E0F900220121C9020148FDF7D7
:1070500076FC70BD00040048FFFF0000880100209E
:1070600070B504460D46164633462A462146044866
:10707000FEF72AFA002800D170BD0020C043FBE7CC
:1070800018040020F8B5044625030026771E0120C9
:107090004002844201DD701EF8BD00F0A7F8401CDC
:1070A000002801D1401EF7E7002210210920C00668
:1070B000FDF745FCFF220121234800F021FC0122BD
:1070C00010210920C006FDF73AFC02F081F80022E9
:1070D00010210920C006FDF732FCFF2201211B48C8
:1070E00000F00EFC2802010E0091FF2201216846EB
:1070F00000F006FC2804010E0091FF2201216846E1
:1071000000F0FEFBE9B20091FF220121684600F089
:10711000F7FB012210210920C006FDF710FC07E053
:107120001420FDF774FA00F061F80746701CC6B22F
:10713000781C002801D1282EF2DB282E02DB00204B
:10714000C043A9E70020A7E7E0000020E5000020F9
:107150000EB54021029100210191009100F046F806
:10716000002802D00020C0430EBD002210210920BB
:10717000C006FDF7E4FBFF2201211A4800F0C0FB26
:10718000012210210920C006FDF7D9FB0520FDF7DB
:107190003EFA002210210920C006FDF7D0FBFF2295
:1071A0000121114800F0ACFBFF22012102A800F0F0
:1071B000A7FBFF22012101A800F0A2FBFF22012171
:1071C000684600F09DFB012210210920C006FDF752
:1071D000B6FB00F00BF8002802D00020C043C3E744
:1071E0000020C1E7E2000020E300002038B50024C1
:1071F00001200090002210210920C006FDF79FFB0E
:1072000001F0E6FFFF220121124800F079FB06E0C1
:10721000FF2201216846FFF723FF601C84B27D2016
:10722000C000844205DA68460078C007C00F002815
:10723000EED1012210210920C006FDF780FB68462F
:107240000078C007C00F002802D00020C04338BD1E
:107250000020FCE7DD000020F8B506460C46174686
:10726000002000903348844202D90020C043F8BD7A
:10727000FFF7BCFF401C002801D1401EF7E70022A9
:1072800010210920C006FDF75AFBFF2201212A48E0
:1072900000F036FB012210210920C006FDF74FFB4C
:1072A00001F096FF002210210920C006FDF747FBE0
:1072B000FF220121214800F023FB2002010E009152
:1072C000FF220121684600F01BFB2004010E009103
:1072D000FF220121684600F013FBE1B20091FF227A
:1072E0000121684600F00CFB002511E07019144ADA
:1072F000012100F005FB002808DA012210210920F5
:10730000C006FDF71CFB0020C043B0E7681C85B237
:10731000BD42EBDB012210210920C006FDF70FFB67
:10732000FFF764FF002802D00020C0439FE7002041
:107330009DE70000FFFF1F00E0000020E4000020A8
:10734000FF01000038B505460C4600200090224899
:10735000844202D90020C04338BDFFF747FF401CDC
:10736000002801D1401EF7E7002210210920C006A5
:10737000FDF7E5FAFF220121184800F0C1FA2002CA
:10738000010E0091FF220121684600F0B9FA2004A5
:10739000010E0091FF220121684600F0B1FAE1B22E
:1073A0000091FF220121684600F0AAFA01F010FFC7
:1073B0000B4A01212846FFF753FE01221021092024
:1073C000C006FDF7BCFAFFF711FF002802D000202D
:1073D000C043C1E70020BFE7FFFF1F00E800002017
:1073E000FF010000F8B506460C4615460020009047
:1073F0002248844202D90020C043F8BDFFF7F6FEC0
:10740000401C002801D1401EF7E70022102109206E
:10741000C006FDF794FAFF220121194800F070FA26
:107420002002010E0091FF220121684600F068FA57
:107430002004010E0091FF220121684600F060FA4D
:10744000E1B20091FF220121684600F059FA01F0F3
:10745000BFFEA9B20B4A3046FFF702FE01221021FF
:107460000920C006FDF76BFAFFF7C0FE002802D026
:107470000020C043C1E70020BFE70000FFFF1F005E
:10748000E8000020FF01000013B582B00C46002088
:1074900001902B48844203D90020C04304B010BDA2
:1074A000FFF7A4FE401C002801D1401EF6E7002291
:1074B00010210920C006FDF742FAFF2201212148D0
:1074C00000F01EFA012210210920C006FDF737FA4C
:1074D00001F07EFE002210210920C006FDF72FFAE0
:1074E000FF220121184800F00BFA2002010E019141
:1074F000FF22012101A800F003FA2004010E0191EE
:10750000FF22012101A800F0FBF9E1B20191FF2265
:10751000012101A800F0F4F9FF22012102A800F0E6
:10752000EFF9012210210920C006FDF708FAFFF744
:107530005DFE002802D00020C043AFE70020ADE789
:10754000FFFF1F00E0000020E4000020F7B582B03C
:107550000E4614460020019027460025F0B2019007
:107560001548864202D9681E05B0F0BD20E0FF2113
:10757000013101980F1AA74201D3204600E0384696
:1075800085B22A4631460298FFF766FE002802D0EF
:107590000020C043E8E77619A54203D1381B80B22A
:1075A000019001E000200190029840190290641BB4
:1075B000002CDCD10020D7E7FFFF1F0070B5044688
:1075C0000D46FF210531606888420ED10121C903B3
:1075D000A068884203D04911A068884205D120687C
:1075E000006840218843216808602B4600228021E2
:1075F000204600F02DF9002805D0206E20210843F8
:107600002066032070BDFF2105316068884217D1D4
:107610000121C903A068884203D04911A0688842AB
:107620000ED12B46002203214902204600F0B0F87B
:10763000002805D0206E2021084320660320E1E7C2
:107640000020DFE770B504460D462B4600220321DB
:10765000C902204600F09CF8002805D0206E2021A9
:1076600008432066032070BD2B460022802120465F
:1076700000F0EEF8002805D0206E20210843206697
:107680000320F0E70020EEE708B500BF3C48406962
:107690000121490408433A494861084640690121EB
:1076A00049040840009000BF00BF012035494860F0
:1076B0000320C860102008600920C006FDF73AF8D2
:1076C000012210210920C006FDF739F900BF2C481E
:1076D00080690121090308432949886108468069B6
:1076E00089140840009000BF00BF0220254948606F
:1076F0000320C86020200860002008610920C0061F
:10770000FDF718F802201F4948600320C860402098
:107710000860002008610920C006FDF70BF8022070
:10772000184948600320C860802008600020086174
:107730000920C006FCF7FEFFFF2005301249486013
:1077400000211148816007210902C1603821C1610F
:107750000121490281610221016101214161002170
:10776000016281620721C162084807490860084632
:10777000FDF730FE002801D0012008BD0020FCE705
:10778000001002407C04002018040020003001405A
:10779000FEB504460E4617461D46FDF7D7F8009085
:1077A0004DE003204002864206D1002F04D120681C
:1077B000017B019168460079681C00283FD0002DAC
:1077C00005D0FDF7C3F80099401AA84237D32068C6
:1077D0004068E021884321684860FF2105316068E6
:1077E00088420ED10121C903A068884203D0491103
:1077F000A068884205D1206800684021884321683C
:10780000086001214903A06A88420ED100BF2068A8
:1078100000680E490840216808602068006801215E
:10782000490308432168086000BF01215D2001551C
:1078300000BF00215C20015500BF0320FEBD206871
:1078400080683040B842ACD10020F7E7FFDF00008D
:10785000F8B504460E4617461D46FDF777F800902A
:1078600042E0681C00283FD0002D05D0FDF76EF8DF
:107870000099401AA84237D320684068E021884325
:1078800021684860FF210531606888420ED10121DE
:10789000C903A068884203D04911A068884205D175
:1078A000206800684021884321680860012149035D
:1078B000A06A88420ED100BF206800680E490840C7
:1078C0002168086020680068012149030843216895
:1078D000086000BF01215D20015500BF00215C2030
:1078E000015500BF0320F8BD206880683040B842D1
:1078F000B7D10020F7E70000FFDF0000704700006D
:1079000070B504460D46164633462A4621460448BD
:10791000FDF73AFF002800D170BD0020C043FBE70F
:107920001804002010B5FDF705F910BD00B591B0A1
:10793000002001900220099000210A910C9105215C
:10794000C9040B9101A8FDF79FFA07200D900220B2
:107950000E9000200F90109001210DA8FDF750F916
:1079600011B000BD1948006801210843174908609B
:1079700008464068164908401449486008460068AF
:10798000144908401149086008460068012189042B
:1079900088430E490860084640683F21090488432F
:1079A0000A4948600846C06A00090001C8620846E2
:1079B000006BFF2114318843044908630846406B7B
:1079C0004008400048630020886070470010024073
:1079D0000CB8FF08FFFFF6FE10B50248FEF7C7F926
:1079E00010BD0000D004002010B50248FEF7BFF91A
:1079F00010BD00009004002010B5002202681D4B4D
:107A0000984202D01C4B984205D170241346A343E0
:107A10001A464B681A43174B98420ED0164B9842A1
:107A20000BD0164B984208D0154B984205D0154BF9
:107A3000984202D0144B984206D1032424021346E4
:107A4000A3431A46CB681A4302608B68C3620B6873
:107A50008362084B984208D0094B984205D0094BE5
:107A6000984202D0084B984201D10B69036301236D
:107A7000436110BD002C0140000400400020004084
:107A8000004001400044014000480140818CC9078A
:107A9000C90F002908D001684968012252049143A6
:107AA000826A1143026851600222416A1140002932
:107AB00007D001684968D2039143C26A1143026842
:107AC00051600422416A1140002907D001684968C9
:107AD00012049143026B1143026851600822416A0B
:107AE0001140002907D00168496812039143426B95
:107AF0001143026851601022416A1140002907D0E9
:107B00000168896812029143826B11430268916097
:107B10002022416A1140002907D0016889681202B9
:107B20009143C26B1143026891604022416A114047
:107B3000002915D00168496892039143026C1143F2
:107B40000268516001221205016C914208D101685E
:107B50004968032252059143426C11430268516007
:107B60008022416A1140002907D001684968120348
:107B70009143826C114302685160704701460020B6
:107B8000C8662022692042546A20425400BF002265
:107B90006820425400BF0020704710B5044620689A
:107BA0000068402188432168086020216920015530
:107BB0002046FEF799FC002010BD70B504465C20FD
:107BC000065B6A20005D22283DD101210903A068DF
:107BD00088420BD12069002808D1656D2068808C0F
:107BE00030402880606D801C606507E02068808CD4
:107BF000F1B20840626D511C616510705A20005B43
:107C0000401E81B25A20015300291AD12068006811
:107C1000202188432168086020680068FF21013125
:107C20008843216808602068806840084000216817
:107C3000886020216A2001552046FEF7DDFB0020E8
:107C400070BD0020FCE72068806908210843216896
:107C500088610220F4E70000FEB5044600251026E6
:107C600000270020029001902169A0680843616903
:107C70000843E169084305462068006868490840F0
:107C8000284321680860206840680321090388436D
:107C9000E168084321684860216AA06908430546F5
:107CA000206880680B210902884328432168886086
:107CB00000BF5C492068884217D15B48006B800791
:107CC000800F002806D0012808D0022808D00328F9
:107CD00008D101E0002607E0022605E0042603E0C3
:107CE000082601E0102600BF06E0504920688842BF
:107CF00001D1002600E0102600BF0121C903E06980
:107D0000884249D1042E20D004DC002E07D0022E58
:107D100032D111E0082E25D0102E2DD12DE0FDF707
:107D20003FF8400061684908401800906168FCF71E
:107D3000DBF980B2029023E061684A083C4BD0181E
:107D4000FCF7D2F980B202901AE0FDF73BF8400050
:107D500061684908401800906168FCF7C5F980B275
:107D600002900DE061684A0801231B04D018FCF75B
:107D7000BBF980B2029003E000BF0120019000BF78
:107D800000BF2C4902980840074602980007400FA0
:107D900007432068C76040E0042E21D004DC002E99
:107DA00007D0022E34D111E0082E26D0102E2FD16C
:107DB0002FE0FCF7F5FF6168490840180090616802
:107DC000FCF792F980B22168C86025E061684A0832
:107DD000194BD018FCF788F980B22168C8601BE005
:107DE000FCF7F0FF61684908401800906168FCF7F3
:107DF0007BF980B22168C8600EE061684A080123FF
:107E0000DB03D018FCF770F980B22168C86003E08A
:107E100000BF0120019000BF00BF0198FEBD00001F
:107E2000F369FFFF003801400010024000440040A9
:107E30000024F400F0FF000000127A0001466920DF
:107E4000405C212831D15220405A00280DD10868C9
:107E50000068802398430B68186008680068402316
:107E600018430B6818600020704701231B038868C3
:107E700098420CD10869002809D1CA6C1088C00545
:107E8000C00D0B681885C86C801CC86405E0CB6CFD
:107E9000581CC86418780B6818855220405A401E38
:107EA00083B2522043520020DEE70220DCE7FFB518
:107EB00081B004460E461D46FCF748FD0746039870
:107EC00000283BD12FE0681C00282CD0002D04D0C6
:107ED000FCF73CFDC01BA84225D920680068802122
:107EE0008843216808602068006820218843216851
:107EF000086020680068FF2101318843216808601C
:107F0000206880684008400021688860202169203E
:107F100001556A20015500BF00216820015500BFAE
:107F2000032005B0F0BD2068C0693040B04201D1E7
:107F3000012000E000200028C5D039E02EE0681CB8
:107F400000282BD0002D04D0FCF700FDC01BA84258
:107F500024D920680068802188432168086020684F
:107F60000068202188432168086020680068FF219C
:107F7000013188432168086020688068400840001B
:107F8000216888602021692001556A20015500BFC1
:107F900000216820015500BF0320C2E72068C069A6
:107FA0003040B04201D1012000E000200028C6D1BD
:107FB0000020B6E710B50248FEF71DF810BD00001E
:107FC000880100200FB410B504A9074B02AA03983A
:107FD00000F040F8044602A9002000F0E3F9204632
:107FE00010BC08BC04B01847A58300082021020C6F
:107FF00001D010211046020A01D0104608390209AA
:1080000001D01046091F820801D01046891E42087F
:1080100001D0881E7047081A704730B47446641E39
:108020002578641CAB4204D3635D5B00E31830BC6D
:1080300018471D46F8E702E008C8121F08C1002AC9
:10804000FAD170477047002001E001C1121F002AD9
:10805000FBD17047FFB58FB00546002606E0252806
:108060000AD0129A119990476D1C761C2878002826
:10807000F5D1304613B0F0BD002402940121B54A79
:10808000009400E004436D1C2B780846203B984088
:108090001042F7D128782A280ED0022228780146EB
:1080A0003039092916D802990A2359433039401822
:1080B00014436D1C0290F1E7109802C802911090D1
:1080C000002904DA012040030443484202900220C0
:1080D00004436D1C28782E2817D1042004436878A7
:1080E0006D1C2A280CD110986D1C02C800911090AC
:1080F0000BE000990A225143303940186D1C009062
:108100002878014630390929F3D928786C2810D00D
:1081100006DC4C281AD068280ED06A2817D104E053
:10812000742813D07A2812D110E0012040050443AE
:108130000CE00121090501E0032109050C436978E0
:10814000814203D10120000524186D1C6D1C287884
:10815000692874D006DC00288BD0632827D06428D7
:1081600006D16CE06E2808D073282CD0752878D002
:10817000129A11999047761C5FE06002400F022826
:1081800009D003280DD00428109801680DD00E6086
:10819000001D109051E01098F21701680E604A60BF
:1081A000F6E7109801680E80F2E70E70F0E710987D
:1081B0006A4601781173001D10900020507303A8C7
:1081C0000190012005E0109802C801911090002054
:1081D000C04361070CD5002700E07F1C00998F4247
:1081E0000FDA8742F9DB0199C95D0029F5D108E072
:1081F000002700E07F1C8742FCDB0199C95D002954
:10820000F8D102982146C01B0290129B119A00F0EF
:10821000B3F88019C61907E0019801990078491C44
:108220000191129A119990477F1EF5D22146129B17
:10823000119A029800F090F886196D1C16E70A2032
:108240000190109901C910916102490F032900D1D1
:1082500000B2042900D140B2002803DA40422D21A7
:1082600003E00DE0210504D52B216A46117301219D
:1082700003E0E10711D02021F7E70CAF0C9114E0E7
:108280000A200190109901C910916102490F032938
:1082900000D180B2042900D1C0B20021EDE70199DC
:1082A000FBF722FF30317F1E39700028F7D104A878
:1082B000C01B20300190600704D5012000048443D6
:1082C000009801E0012000900199884201DD401AE8
:1082D00000E00020411800900C9809180298401AFC
:1082E0000290E00306D42146129B119A029800F0F6
:1082F00043F8861900200D9008E003A9085C129A43
:10830000119990470D98401C761C0D900C9988424D
:10831000F3DBE0030CD52146129B119A029800F082
:108320002BF8861904E0129A302011999047761C98
:108330000099481E00900029F5DC05E03878129A73
:108340007F1C11999047761C0199481E01900029C5
:10835000F4DC6BE709280100F8B5044600251E4649
:108360001746880404D405E039462020B0476D1C28
:10837000641EF9D52846F8BDFFB50446002581B036
:108380001E46C80301D5302700E02027880404D505
:1083900005E038460399B0476D1C641EF9D52846A0
:1083A00005B0F0BD0A68531C0B60107070470000E8
:1083B00000B587B000BF2048406901218904084307
:1083C0001D4948610846406901218904084001901F
:1083D00000BF00BF01200390032005908811029088
:1083E00002A91648FCF7A6F915480178002000F00C
:1083F0006FFA00BF104840690121890408430E4903
:10840000486108464069012189040840019000BF85
:1084100000BF012249110948FCF791FA002003909E
:108420000320059001204003029002A90348FCF7B5
:1084300081F907B000BD00000010024000040048B0
:108440001D01002010B50F2000F094FE0022012134
:1084500009030448FCF773FAFF20E13000F0BFFE87
:1084600010BD00000004004810B5142000F082FE8A
:108470000022012109030448FCF761FAFF20B33010
:1084800000F0ADFE10BD00000004004810B5102043
:1084900000F070FE0022012109030448FCF74FFAA6
:1084A000FF20373000F09BFE10BD000000040048A4
:1084B00010B50E2000F05EFE0022012109030448E1
:1084C000FCF73DFAFF20643000F089FE10BD00008B
:1084D0000004004810B5122000F04CFE00220121DB
:1084E00009030448FCF72BFAFF20B93000F077FEAF
:1084F00010BD00000004004810B50E2000F03AFE48
:108500000022012109030448FCF719FAFF208C30EE
:1085100000F065FE10BD00000004004810B51120F9
:1085200000F028FE0022012109030448FCF707FAA5
:10853000FF20373000F053FE10BD0000000400485B
:1085400010B5122000F016FE002201210903044894
:10855000FCF7F5F9FF20F53000F041FE10BD0000FA
:108560000004004810B50F2000F004FE0022012195
:1085700009030448FCF7E3F9FF208C3000F02FFEDC
:1085800010BD00000004004810B5162000F0F2FDF8
:108590000022012109030448FCF7D1F9FF20F23041
:1085A00000F01DFE10BD00000004004810B51220B0
:1085B00000F0E0FD0022012109030448FCF7BFF9A7
:1085C000FF20B93000F00BFE10BD00000004004891
:1085D00010B5102000F0CEFD00220121090304484F
:1085E000FCF7ADF9FF20483000F0F9FD10BD0000A8
:1085F0000004004810B50F2000F0BCFD002201214E
:1086000009030348FCF79BF9024800F0E8FD10BDA0
:10861000000400489605000010B5142000F0AAFDE3
:108620000022012109030348FCF789F9024800F000
:10863000D6FD10BD000400480604000010B510204F
:1086400000F098FD0022012109030348FCF777F9A7
:10865000024800F0C4FD10BD000400482E040000D4
:1086600010B50E2000F086FD002201210903034809
:10867000FCF765F9024800F0B2FD10BD00040048A7
:108680000104000010B5122000F074FD0022012149
:1086900009030348FCF753F9024800F0A0FD10BDA0
:1086A000000400486405000010B50E2000F062FDD3
:1086B0000022012109030348FCF741F9024800F0B8
:1086C0008EFD10BD000400488604000010B5112086
:1086D00000F050FD0022012109030448FCF72FF9A6
:1086E0007D20C00000F07BFD10BD000000040048AC
:1086F00010B5122000F03EFD0022012109030348BD
:10870000FCF71DF9024800F06AFD10BD00040048A6
:10871000DC05000010B50F2000F02CFD0022012127
:1087200009030348FCF70BF9024800F058FD10BD9F
:10873000000400488604000010B5162000F01AFD61
:108740000022012109030348FCF7F9F8024800F070
:1087500046FD10BD00040048DC05000010B51220E5
:1087600000F008FD0022012109030348FCF7E7F8A7
:10877000024800F034FD10BD000400481E05000052
:1087800010B5102000F0F6FC002201210903044876
:10879000FCF7D5F87D20C00000F021FD10BD0000E1
:1087A0000004004870B5044600F0DCFD054600F00A
:1087B000E5FD064628460A214843054600F0CCFD63
:1087C00000285BD000F01CFD012851D100F0CAFD4B
:1087D00014282ED1AC4214DA2C480068401C2B49D6
:1087E0000860084600680A284DD300200860284821
:1087F00000780D21084026490870002025490860AE
:1088000041E024480068401C22490860084600688E
:10881000E1218900884236D300201C4908601C48A9
:108820000078022108431A4908700020194908609D
:1088300029E000201749086020463230A84213DCA6
:10884000124800680A2809D3114800780D21084011
:108850000F49087000200D49086014E00B480068BB
:10886000401C0A4908600EE00020084908600AE040
:108870000020064908600749086004E00020034919
:10888000086004490860002070BD00001401002049
:108890001C01002018010020002002490870024934
:1088A00008607047100100201401002010B5FEF789
:1088B000EBFE002802D00020C04310BDFEF748FCAC
:1088C000002802D00020C043F7E70020F5E70000B1
:1088D00070B505460C4600F051FD52490860322142
:1088E0005148FBF741FC5048801E047045704078A9
:1088F00000282CD0601E4000401C352358434B4BB1
:10890000C0182030027D601E4000401C35235843B3
:10891000464BC018811C4448FBF70DFC601E40000C
:10892000401C35214843414940182030017D3E48D4
:108930001E30017500F016FD064601F0E1FB00F067
:1089400005FD064601F06AFB01F0CEFB1EE0601E4D
:10895000400035235843354BC0182030027D601E3F
:10896000400035235843314BC018811C2E48FBF77B
:10897000E2FB601E4000352148432C49401820305E
:10898000017D29481E300175FFF786FF2300FFF7A0
:1089900044FB14440B14110E171A1D202326292CF6
:1089A0002F3235383B3E414400F094FB36E000F076
:1089B000FFFA33E000F068F830E000F065F82DE0F1
:1089C00000F0E6F82AE000F0E3F927E000F034F9DF
:1089D00024E000F02FFA21E000F052FA1EE000F04F
:1089E000FDF91BE000F0A4FA18E000F00BFB15E025
:1089F00000F020F812E000F065F90FE000F0F2F866
:108A00000CE000F06BFA09E000F026FB06E000F055
:108A100099F903E000F088FB00E000BF00BF0448C4
:108A2000057070BD0C0100201C050020E4AF00089B
:108A30001101002070B50025002400BF1AE001F0EC
:108A4000EDFC002405E00D49085D01F0A3F9601C70
:108A5000C4B20A481E30007DA042F4DC01F040FEA2
:108A60000748FBF7E1FF012189020648FBF763FF96
:108A7000681CC5B2022DE2DB70BD00001C050020A1
:108A8000740100200004004870B5002500243D4812
:108A90000078022802D0032871D13EE0002539E099
:108AA000022001F0CDFC002406E03649891C085D57
:108AB00001F0BDF8601CC4B2082CF6DB022000F007
:108AC000E9FE082406E02F49891C085D01F0AFF893
:108AD000601CC4B2102CF6DB022000F0DBFE102478
:108AE00006E02849891C085D01F0A1F8601CC4B2A9
:108AF00024482030007DA042F3DC022001F002FE79
:108B00002148FBF791FF012189022048FBF713FF61
:108B1000681CC5B2022DC3DB32E000252BE0032028
:108B200001F08EFC002406E01649891C085D01F066
:108B30007EF8601CC4B2072CF6DB032000F0AAFE0E
:108B4000072406E00F49891C085D01F070F8601CDD
:108B5000C4B20C482030007DA042F3DC032001F0B9
:108B6000D1FD0948FBF760FF012189020748FBF7A7
:108B7000E2FE681CC5B2022DD1DB01E0FFE700BFB9
:108B800000BF70BD1A0500207401002000040048D9
:108B900070B50025002400BF1AE001F09FFC0024FE
:108BA00005E00D49085D01F042F8601CC4B20A48B6
:108BB0001E30007DA042F4DC01F0CAFD0748FBF73F
:108BC00033FF012189020648FBF7B5FE681CC5B2D8
:108BD000022DE2DB70BD00001C05002074010020A6
:108BE0000004004870B50025002400BF1AE001F021
:108BF0008DFC002405E00D49085D01F02DF8601C96
:108C0000C4B20A481E30007DA042F4DC01F0C0FD71
:108C10000748FBF709FF012189020648FBF78BFE95
:108C2000681CC5B2022DE2DB70BD00001C050020EF
:108C30007401002000040048F8B500260025002437
:108C400000271D480078002812D000F08BFB044656
:108C5000132C09D0162C07D0182C05D0192C03D0B2
:108C60001A2C01D01C2C01D1012702E0022700E0C0
:108C7000012700261CE001F05BFC002507E00E49FF
:108C8000891C485D394600F0FCFF681CC5B20A48E3
:108C90002030007DA842F2DC01F084FD0748FBF79C
:108CA000C3FE012189020648FBF745FE701CC6B2CF
:108CB000022EE0DBF8BD00001A0500207401002040
:108CC0000004004870B50025002400BF31E001F029
:108CD000AFFC002405E01849085D01F05BF8601C5A
:108CE000C4B215491E31087DC10F09184910A142AF
:108CF000F1DC00F017FE10491E31087DC10F091884
:108D00004C1005E00C49085D01F044F8601CC4B249
:108D100009481E30007DA042F4DC01F0C1FD074887
:108D2000FBF782FE012189020548FBF704FE681C5F
:108D3000C5B2022DCBDB70BD1C05002074010020E4
:108D40000004004870B50025002400BF17E001F0C2
:108D500007FC002405E00B49085D00F0B2FF601C31
:108D6000C4B2072CF7DB01F02FFD0748FBF75CFED0
:108D7000012189020548FBF7DEFD681CC5B2022D02
:108D8000E5DB70BD1C0500207401002000040048D4
:108D900070B50025002400BF17E001F0F3FB0024AC
:108DA00005E00B49085D00F0A1FF601CC4B2122C65
:108DB000F7DB01F01BFD0748FBF736FE01218902B6
:108DC0000548FBF7B8FD681CC5B2022DE5DB70BD98
:108DD0001C050020740100200004004870B5002527
:108DE000002400BF1AE001F0CDFB002405E00D498E
:108DF000085D00F07BFF601CC4B20B2CF7DB01F0B8
:108E0000F5FC0948FBF710FE012189020748FBF732
:108E100092FD074800F0E3F9681CC5B2022DE2DBC1
:108E200070BD00001C0500207401002000040048F3
:108E300050C3000070B50025002400BF17E001F00A
:108E4000B7FB002405E00B49085D00F064FF601CDF
:108E5000C4B20E2CF7DB01F0DBFC0748FBF7E4FDA6
:108E6000012189020548FBF766FD681CC5B2022D89
:108E7000E5DB70BD1C0500207401002000040048E3
:108E800010B5002401F094FB00BF05E01049085D17
:108E900000F041FF601CC4B20E2CF7DB01F0B8FCFF
:108EA00001F086FB0E2405E00949085D00F033FF60
:108EB000601CC4B21C2CF7DB01F0AAFC0548FBF7D0
:108EC000B3FD012189020448FBF735FD10BD000008
:108ED0001C050020740100200004004870B5002526
:108EE000002400BF1AE001F075FB002405E00D49E5
:108EF000085D00F025FF601CC4B20A481E30007DEA
:108F0000A042F4DC01F096FC0748FBF78DFD01213F
:108F100089020648FBF70FFD681CC5B2022DE2DB93
:108F200070BD00001C0500207401002000040048F2
:108F300070B50025002400BF30E001F04FFB002495
:108F400005E01849085D00F010FF601CC4B2082C51
:108F5000F7DB01F081FC1448FBF766FD0121890273
:108F60001248FBF7E8FC01F039FB082405E00D4945
:108F7000085D00F0FAFE601CC4B20A481E30007D95
:108F8000A042F4DC01F068FC0748FBF74DFD01212D
:108F900089020648FBF7CFFC681CC5B2012DCCDB6B
:108FA00070BD00001C050020740100200004004872
:108FB00070B50025002400BF1AE001F021FB002459
:108FC00005E00D49085D00F032FE601CC4B20A489D
:108FD0001E30007DA042F4DC01F050FC0748FBF796
:108FE00023FD012189020648FBF7A5FC681CC5B2D8
:108FF000022DE2DB70BD00001C0500207401002082
:109000000004004870B50025002400BF1AE001F0FC
:109010000FFB002405E00D49085D00F0BBFE601C5D
:10902000C4B20A481E30007DA042F4DC01F038FCD6
:109030000748FBF7F9FC012189020648FBF77BFC96
:10904000681CC5B2022DE2DB70BD00001C050020CB
:10905000740100200004004870B50025002400BF02
:109060002FE001F0F9FA002405E01749085D00F04F
:10907000A6FE601CC4B2072CF7DB00F063FC0724DB
:1090800005E01149085D00F09AFE601CC4B20E2C88
:10909000F7DB00F057FC0E2405E00B49085D00F0FB
:1090A0008EFE601CC4B2152CF7DB01F00BFC0748E8
:1090B000FBF7BAFC012189020548FBF73CFC681C60
:1090C000C5B2012DCDDB70BD1C0500207401002050
:1090D0000004004870B50025002400BF1AE001F02C
:1090E000D5FA002405E00D49085D00F0A0FD601CE4
:1090F000C4B20A481E30007DA042F4DC01F0F4FB4B
:109100000748FBF791FC012189020648FBF713FC95
:10911000681CC5B2022DE2DB70BD00001C050020FA
:10912000740100200004004870B50025002400BF31
:1091300017E001F0C3FA002405E00B49085D00F0D8
:1091400053FE601CC4B20E2CF7DB01F0F3FB0748A2
:10915000FBF76AFC012189020548FBF7ECFB681C60
:10916000C5B2022DE5DB70BD1C0500207401002096
:109170000004004870B50446002500BF11E001223C
:1091800011030948FBF7DBFB0A2000F028F8002256
:10919000012109030448FBF7D2FB112000F01FF85E
:1091A0006D1CA542EBD970BD0004004870B50446A3
:1091B0000D46054B2A4621460448FDF724F90028B0
:1091C00001D000BFFEE770BDFFFF0000F8010020E6
:1091D000002001E0411CC8B23228FBDB704730B5EB
:1091E000014606244C432246083A002300BF0020D3
:1091F00000E0401C0024851A9C41FADB30BD0000D1
:1092000001480078704700001101002010B50446A5
:109210002046FDF737FF10BDF3B585B00C460020A2
:1092200002900394039C600000F0C6F905460026F6
:1092300006E071000598405A71006852701CC6B271
:10924000A642F6DB002618E0701CC7B211E07000E1
:10925000285E7900695E884209DD7800285E029008
:109260007000285A79006852710002986852781C80
:10927000C7B2A742EBDB701CC6B2601EB042E3DC93
:109280002046E10F091849104900611A0DD0E10F7D
:10929000091849104900611A4900695E2846019180
:1092A00000F012F8019807B0F0BD2046E10F091850
:1092B00049104900611A491E4900695E2846049117
:1092C00000F002F80498EEE710B5002823D0124B06
:1092D0000022001F196803E0814203D80A4649684A
:1092E0000029F9D1002A0AD01368841A9C4204D1BB
:1092F000006818181060104602E0506000E0186026
:10930000002907D002680B1A934203D10B68D218C8
:1093100002604968416010BD6C010020014800787E
:10932000704700001C01002010B5012149030548C9
:10933000FBF7F8FA012801D1032000E002200249DE
:10934000087010BD00040048D700002001480078D4
:1093500070470000D00000200148007870470000EE
:10936000100100200148007870470000D100002063
:1093700001480068704700000401002001480068AF
:1093800070470000F400002070B505461648C06A1A
:10939000164908601448006B48601348406B8860A9
:1093A00013A11548FEF70EFE14490870084601780F
:1093B0001148FFF7FBFE00240EE00C48025D10A1EF
:1093C0000D48FEF7FFFD0D490870084601780A4870
:1093D000FFF7ECFE601CC4B20C2CEEDB012109A0EF
:1093E000FFF7E4FE70BD000080F7FF1F500500206E
:1093F0005549443A2000000068020020D4000020B3
:10940000256420000A00000008B500256E1E002417
:1094100000BF07E0A000524940180068A100514A6F
:109420005050641C302CF5D372B600BF4E48806992
:10943000012108434C49886108468069C007C00F74
:10944000009000BF00BF00BF48480068800880004F
:1094500046490860084600680321084343490860FC
:1094600000BF62B6FBF786FBFEF760FA01F0ACFCCA
:1094700001F010FDFDF73CF801F06EFC3CA1404806
:10948000FEF7A0FD3F490870084601783C48FFF709
:109490008DFEFEF78DFF00BFFFF708FA0646681C39
:1094A000C5B2032D01DA002EF6DB002E0ADA36A152
:1094B0003348FEF787FD3349087008460178304885
:1094C000FFF774FE00F084FD33A12D48FEF77AFD0E
:1094D0002C490870084601782948FFF767FE01F01B
:1094E000DDFBFFF721FFFDF7E5FCFDF73BFD00BFCE
:1094F00034E0FDF77DF8FBF729FA2B490968C831FC
:10950000884205D2FBF722FA27490968884211D21E
:1095100026480078401C2549087008460078052830
:1095200004DD00F07FF8002020490870FBF70EFAF8
:109530001D490860FFF722FF1D490968E122120159
:109540008918884201D900F003F91A4800780028E8
:1095500004D001F001FA002016490870C9E70000A4
:109560000040000800000020001002400000014000
:109570004E65772070726F6772616D21200A00005E
:1095800068020020D4000020496E697420666C6176
:10959000736821200A000000496E697420646F6EB0
:1095A0006521200A00000000C8000020CC00002037
:1095B0000C010020F8000020F0B50B30C108C900F4
:1095C000144F0026144A0FE003688B420BD38B42E2
:1095D00005D95C1A4318456830C3083B00E043686E
:1095E000136002C004E0021D10680028ECD1304670
:1095F000002803D13868002801D00020F0BD064AB9
:1096000006481060064A121AD208D20044C001204F
:109610003860D7E7700100206C010020940500201D
:109620009007002010B521480078002813D020486A
:109630000078401C1E49087008460078322806DD74
:1096400000F0D1F900201A4908701849087000206C
:109650001849087027E017480078401C1549087021
:1096600008460078C82810DB13480078002807D186
:10967000124801780120FFF72BF901200E490870EC
:1096800000F0B1F900200B4908700D4800680D4941
:109690000968401A032806D9094800680949086082
:1096A000012009490870002010BD0000CF000020F3
:1096B000EE000020ED000020000100201D01002030
:1096C000F4000020FC000020F800002070B57D258B
:1096D0000024012280211D48FBF731F900F056FCDF
:1096E0006420FAF76FFF00F02FFC00BF681EC0B2C5
:1096F000051E01D1401E70BD7D200001FAF762FFFA
:1097000080211248FBF70EF90028EFD000228021BB
:109710000E48FBF714F900F039FC7D20C000FAF781
:1097200051FF012280210948FBF709F900F00CFCE8
:109730006420FAF747FF80210448FBF7F3F804465A
:10974000FF20F530FAF73EFF2046D4E7000400483A
:1097500010B5FFF755FD002801D0012000E00020E2
:10976000044605480078002804D0044801782046C3
:10977000FFF7AEF810BD0000CE0000201D01002054
:1097800070B500240025002280210F48FBF7D7F890
:1097900000F0FCFB0120FAF715FF012280210A48A6
:1097A000FBF7CDF800F0D0FB6421012001F05EFB57
:1097B0000546062D01D8012000E000200446322095
:1097C000FAF700FF204670BD0004004870B5002481
:1097D000002500BF06E0FFF7D3FFA0402843C5B235
:1097E000601CC4B2082CF6DB284670BDF8B50546EF
:1097F0000024002000900026462218212846FAF76F
:10980000ACFCFDF7F3FC401C002801D1401EF8BD64
:10981000002411E007221203A1182819FDF792FD78
:10982000002807D0462218212846FAF796FC002087
:10983000C043ECE7601CC4B2182CEBDB072000032C
:1098400021186846FDF77EFD002802D00020C043A5
:10985000DDE718212846FAF78DFEC6B26846007883
:10986000B04207D0462218212846FAF776FC00209D
:10987000C043CCE70020CAE710B505491020FDF72A
:1098800003FE002802D00020C04310BD0020FCE7EA
:109890000A90000010B50446022C02D0032C36D1E9
:1098A00010E0FEF7A7FE0022012109031948FBF78B
:1098B00046F81948FFF793FC8220FFF75BFCFEF7A0
:1098C00099FE25E0FEF796FE0022012109031148CA
:1098D000FBF735F81148FFF782FC012211030D4810
:1098E000FBF72DF8BC20FFF745FC002201210903FE
:1098F0000848FBF724F80A48FFF771FC012211031E
:109900000448FBF71CF80B20FFF734FC00E000BF15
:1099100000BF10BD000400485E8800006A630000BC
:109920006608000010B5FEF72FFEFEF705FFFEF7F4
:109930002BFEFEF729FE0248FFF751FC10BD000088
:109940006842000010B50022012109030848FAF717
:10995000F6FF1420FFF70EFC0648FFF740FC6B20D3
:10996000FFF708FCF5204001FFF739FC10BD0000AF
:1099700000040048410A00000146C8880A89801A8C
:109980008A88104070470146C8880B89C01A8B88A6
:109990001840002809DD0B890868C25C0889401C52
:1099A0008B8818400881104670470020C043FBE7B1
:1099B0000160531E83800023C380038170470246E9
:1099C000D0881389C01A93881840984201D100208A
:1099D0007047D3881068C154D088401C93881840C1
:1099E000D0800120F4E710B5FDF764FAFDF7BAFA6C
:1099F00010BD0000F0B591B007460C462046E117B7
:109A0000890E091889110B318EB2A0010521490375
:109A10004018009000253346224646A14D48FEF7E7
:109A2000D1FA4D490870084601784A48FFF7BEFB55
:109A3000402238460099FDF789FD00280EDA2246BB
:109A400046A14448FEF7BEFA43490870084601782B
:109A50004048FFF7ABFB681E11B0F0BD402101A8E4
:109A6000FAF782FBFFF7B4FB402201A80099FDF74B
:109A7000B9FC00280ED022463EA13648FEF7A2FAD5
:109A800035490870084601783248FFF78FFB0020FF
:109A9000C043E1E7002515E0785D01A9495D8842F2
:109AA0000ED022463BA12B48FEF78CFA2A490870BB
:109AB000084601782748FFF779FB0020C043CBE731
:109AC000681CC5B2402DE7DB2046E117890E091856
:109AD00089118901611A3F2929D1324634A11D48D3
