:020000040800F2
:10000000080E0020D90000089D210008E320000808
:1000100000000000000000000000000000000000E0
:10002000000000000000000000000000E5000008E3
:100030000000000000000000E70000081522000892
:10004000EB000008EB000008EB000008EB000008E4
:10005000EB000008EB000008EB000008EB000008D4
:1000600000000000EB000008EB000008EB000008B7
:10007000EB000008EB000008EB000008EB000008B4
:10008000EB000008EB000008EB0000080000000097
:10009000EB000008EB000008EB000008EB00000894
:1000A000EB000008EB000008EB000008D92B00086B
:1000B000E92B0008EB000008000000000000000031
:1000C0000448854600F0D0FA004800474D3E00083D
:1000D000C046C046080E0020044880470448004738
:1000E000FEE7FEE7FEE7FEE7FEE7FEE7592400082D
:1000F000C100000830B50B46014600202022012433
:1001000009E00D46D5409D4205D31D469540491B4B
:100110002546954040191546521E002DF1DC30BD94
:10012000F0B51FB40646002082B005464024019178
:1001300000901BE0019922460F46304600F0D4F8AB
:10014000049A059B801A994110D3104619462246FD
:1001500000F0BAF8361A8F4101972246012000219B
:10016000009F00F0B1F838184D4100902046641E01
:100170000028DFDC019B00982946324607B0F0BD1D
:1001800003460B439B0703D009E008C9121F08C0B0
:10019000042AFAD203E00B780370401C491C521E5B
:1001A000F9D27047D2B201E00270401C491EFBD266
:1001B00070470022F6E710B513460A460446194672
:1001C000FFF7F0FF204610BD421C0178401C0029BB
:1001D000FBD1801A70470000F0B50C465C4085B03A
:1001E000E40FE40703944C00002664085900944689
:1001F000490802460296224321D062460A431ED095
:100200006200570D4A000E032303550D01240246D8
:100210002C492405781B1B0B360B4018234326431F
:10022000614600901C46501AB44103D30098401C0C
:10023000009002E0921800985B41002803DA002049
:10024000014605B0F0BD002001210905074686469C
:1002500011E064461D46141BB54106D36546521B8A
:10026000B341744607430C43A646CD0740084908EE
:10027000284392185B4105460D43EAD110461843C6
:1002800013D06046194650407140084306D060467E
:10029000101AB34106D20122002306E000220123F6
:1002A000DB0702E00122D243531000987446010597
:1002B000381C6141029C039D0019694100F025F83A
:1002C000BFE70000FD03000010B5202A04DB014653
:1002D000203A9140002010BD914020239C1A0346F3
:1002E000E3401943904010BD10B5202A04DB0846B6
:1002F000203AD040002110BD0B46D340D0402024EE
:10030000A21A91400843194610BD10B5002B08DA17
:100310000024401C614192185B411A4301D14008FE
:10032000400010BDF0B51FB482B005460C0003D0EC
:10033000084602F075FC02E002F072FC2030024632
:10034000009021462846FFF7BFFF049B059A04460C
:100350000F4618431143084314D0184610431BD0CE
:10036000009840210A1A18460599FFF7BDFF054677
:100370000E46009A05990498FFF7A6FF084305D09A
:10038000012004E02046394607B0F0BD0020C11727
:1003900005430E432C43374300990E986305401ADA
:1003A0007905E40A00220C43FD0A0A3002D5002038
:1003B0000146E9E70105101969410C9C0D9D0019E2
:1003C0006941FFF7A2FFDFE7F0B50746084658404E
:1003D00087B0C00F049048000E46590040084908F5
:1003E000BC1A884105D2384631461E4617460B4690
:1003F00002465800400810434DD0300D0390400590
:100400005900400D490D0590401A0290402873DABA
:1004100018030121000B090508430190049800927C
:10042000002806D01146019A4942002090410091CF
:100430000190029840210A1A01990098FFF744FFA1
:1004400005460C466B4607CB00F020F9C0197141F8
:10045000039A0E0D0023D71756401A467A401643CA
:1004600044D0049A002A2DD0029A012A039A15DC5E
:100470001205C01A914101263605001C7141D20FA8
:10048000059ED2070093019202962A462346FFF763
:1004900049FF07B0F0BD38463146FAE71605234A52
:1004A0000F46B218C01AB74101210905001C4F417F
:1004B00000187F41114618187941E20F10436D1959
:1004C000644113E0E2076D0815436408C207144352
:1004D000039A01261205C01A91413605001C71418C
:1004E000CE07400830434908C01851412A462346E8
:1004F000FFF70BFFCDE7FFE7049801224000C1178B
:10050000121A00238B4104983146C417381AA141AE
:10051000EEE730B40124E407634030BC54E730B464
:100520000124E407614030BC4EE700000000E0FF1A
:10053000F0B51FB488B00B99099800244840099978
:10054000C00F490049080991C0070B990090490064
:1005500049080B9109990898A64608431CD00B99A5
:100560000A98084318D0099801244000420D480019
:10057000410D099824050003000B204309900B98B6
:100580000003000B20430B9050181C494018002218
:1005900001901446104605E0002001460DB0F0BD64
:1005A000032801DA034600E003239C46C11A0AAE81
:1005B0000AE05F0008ADED5B4F00F75B7D4300276D
:1005C000AA187C41491C5B1E6145F2DD410004AB69
:1005D0005A522104120C0A43240C401C0828DFDB69
:1005E000019802900099704601910090059B049A31
:1005F00007990698FFF796FED0E700000DFCFFFF75
:100600004A0009030123090B1B0519430A4B10B5C6
:10061000520D9A4202DA0020014610BD064B3433D7
:100620009A4203DC9A1AFFF75FFE10BD034BD21803
:10063000FFF74AFE10BD0000FF030000CDFBFFFFE7
:1006400010B5002904DB0124E40740428C41214617
:10065000002B04DB1C460123DB075242A3419942D5
:1006600000D1904210BD0000064C0125064E05E069
:10067000E36807CC2B430C3C98471034B442F7D3C3
:10068000FFF722FDB8400008D840000810B5202A26
:1006900006DBCB170846203A1041C1170B4306E092
:1006A0000B461341D0402024A21A9140084319461A
:1006B00010BD70B5044600252520005D022803D03A
:1006C0000420E063012520E0206800680E218843B3
:1006D00021680860206800684008400021680860C0
:1006E0001C21606C084001218140206C4160012187
:1006F0002520015500BF00212420015500BFA06B1B
:10070000002802D02046A16B8847284670BD70B5EE
:10071000044600F01DF906462546681C002800D056
:100720006D1C00BF00F014F9801BA842FAD370BD05
:1007300070B50346002200240020DFE00126964029
:100740000D6835402C46002C77D04D68022D02D024
:100750004D68122D15D1D508AE001D462035A8597B
:100760005507EE0E0F25B5400646AE4330465607F8
:10077000F60E0D69B5402843D508AD001E4620365B
:1007800070514D68012D08D04D68022D05D04D687F
:10079000112D02D04D68122D18D1986856000325EE
:1007A000B5400646AE4330465600CD68B5402843B6
:1007B00098605868012595400646AE43304610269D
:1007C0004D6835402D0995402843586018685600FB
:1007D0000325B5400646AE4330460D79AD07AD0F53
:1007E0005600B54028431860D86856000325B54028
:1007F0000646AE43304656008D68B5402843D86063
:10080000012636074D683540B54276D13E4D6D6BB9
:10081000012635433C4E75633C4D9608B600A859F9
:1008200095072E0F0F25B5400646AE4330460525E9
:100830002D07AB4202D100251AE05EE0344DAB42F9
:1008400001D1012514E0334DAB4201D102250FE067
:10085000314DAB4201D103250AE0304DAB4201D10D
:10086000042505E02E4DAB4201D1052500E006250B
:100870009607360FB5402843244D9608B600A85178
:10088000284D28680546A5432846012636044D68AC
:100890003540B54202D1054625432846214D286002
:1008A00068680546A5432846012676044D6835400C
:1008B000B54202D10546254328461A4D6860A8680E
:1008C0000546A5432846012636054D683540B54204
:1008D00002D1054625432846124DA860E868054622
:1008E000A5432846012676054D683540B54202D11C
:1008F0000546254328460B4DE860521C0D68D5403F
:10090000002D00D01AE770BD001002400800014021
:100910000004005000080050000C0050001000506F
:10092000001C005000040140024613690B40002BDC
:1009300001D0012000E00020704742694A40426136
:100940007047002A01D0816100E081627047000099
:1009500001480068704700009400002002480068C9
:10096000401C0149086070479400002010B5002425
:100970000B480068402108430949086008460068A0
:100980000221084306490860032000F00BF8002804
:1009900001D0012401E000F01FF8204610BD000046
:1009A0000020024070B5044600257D21C900094899
:1009B0000068FFF79FFB064601F064F8002801D0AD
:1009C000012504E000222146501E00F019F82846B7
:1009D00070BD00009800002070470000014600290B
:1009E00009DB00BF00BFCB06DB0E01229A40034BA0
:1009F0001A6000BF00BF00BF7047000000E100E0C8
:100A000070B504460D4616462946204602F074F994
:100A100070BD000003480068FF210131884301498F
:100A2000086070470070004003480068FF210131F2
:100A3000084301490860704700700040F8B504465B
:100A400020212068084020287BD1206808402028E9
:100A500000D100BF00278948806B012109070840A9
:100A6000002805D18548806B0843844988630127A5
:100A700083480068FF2101310840002816D18048D2
:100A8000006808437E490860FFF762FF064606E0FB
:100A9000FFF75EFF801B642801D90320F8BD78486A
:100AA0000068FF21013108400028F1D07348056833
:100AB000032109050D4060680840A8420DD00911C6
:100AC00060680840884208D16C48006801214904E8
:100AD0000840002801D00120E0E768484030006964
:100AE0000321090408400546002D3CD060680840F9
:100AF000A84238D0202120680840202833D15F4800
:100B00004030006903210904884305465B484030B2
:100B100000690121C9040843584940310861084669
:100B200000690121C90488435449403108610846DD
:100B3000056180152840002815D0FFF709FF0646FB
:100B400008E039E0FFF704FF801B4E49884201D9D5
:100B50000320A3E7494840300069012149020840C9
:100B6000400A0028EED000BF00BF032109046068DE
:100B7000084088420AD1414800680901884303229D
:100B800012056168114008433C49086000BF3B48BA
:100B9000403000690322120461681140084337495C
:100BA0004031086100BF012F05D13448806B8905B1
:100BB00088433249886300BF2078C007C00F0028EF
:100BC00009D02E484030C06880088000A1680843E2
:100BD0002A494031C860022120680840022809D112
:100BE00026484030C0680C218843E1680843234907
:100BF0004031C86004212068084004280AD11F48F9
:100C00004030C068032189028843216908431B4999
:100C10004031C86008212068084008280AD11748D8
:100C20004030C068032109038843616908431349C0
:100C30004031C860FF2101312068084088420AD154
:100C40000E484030C068032109048843A169084365
:100C50000A494031C86080212068084080280AD1B4
:100C600006484030C068032189048843E16908438D
:100C700002494031C860002010E700000010024027
:100C80000070004088130000F8B504460D46002CA3
:100C900001D10120F8BD79480068C007C00FA84203
:100CA0000ED2764800684008400028437349086027
:100CB00008460068C007C00FA84201D00120E9E73C
:100CC000022120680840022807D16D48C068F02141
:100CD0008843A16808436A49C8602078C007C00FEC
:100CE00000284CD06068022809D1654800680121BD
:100CF00049040840400C002824D10120CAE760685C
:100D0000032809D15E480068012149060840400EC9
:100D1000002817D10120BDE76068012808D1584894
:100D2000006804210840800800280BD10120B1E7A9
:100D300053480068012149020840400A002801D1B7
:100D40000120A7E74E48C06880088000616808431A
:100D50004B49C860FFF7FCFD0646606802280FD1CA
:100D600007E0FFF7F5FD801B4649884201D90320C3
:100D700090E74348C0680C2108400828F1D134E0CE
:100D8000606803280FD107E0FFF7E2FD801B3D49B3
:100D9000884201D903207DE73948C0680C2108400A
:100DA0000C28F1D121E0606801280FD107E0FFF79E
:100DB000CFFD801B3349884201D903206AE73048C0
:100DC000C0680C2108400428F1D10EE007E0FFF7CD
:100DD000BFFD801B2B49884201D903205AE72848D0
:100DE000C0680C2108400028F1D124480068C007E1
:100DF000C00FA8420ED9214800684008400028438F
:100E00001E49086008460068C007C00FA84201D00C
:100E100001203FE7042120680840042808D1184831
:100E2000C068072109028843E16808431449C86083
:100E3000082120680840082809D11148C068072106
:100E4000C90288432169C90008430D49C86000F000
:100E500049F80B49C968F022114009090A4A515C56
:100E6000C8400A4908600320FFF79CFD0746002F91
:100E700001D038460EE700200CE7000000200240B9
:100E800000100240881300009440000898000020E1
:100E900001480068704700009800002000B5FFF787
:100EA000F7FF0549C968072212021140090A034ADF
:100EB000515CC84000BD000000100240A440000882
:100EC00000B5FFF7E5FF0549C9680722D2021140C6
:100ED000C90A034A515CC84000BD0000001002402E
:100EE000A4400008FEB52E48C7680C2038400028F2
:100EF00045D0042804D008280CD00C283ED10BE0A3
:100F00002748006810210840002801D0254C00E047
:100F1000254C41E0254C3FE00F2080043840800CF8
:100F200023490E5C032080053840800D401C019051
:100F30001B48C068012109040840002807D01B494C
:100F4000714308460199FFF7D5F8054614E01448A7
:100F5000006810210840002807D012497143084654
:100F60000199FFF7C7F8054606E00F4971430846A7
:100F70000199FFF7BFF805462C460DE000BF084871
:100F80004068072149030840400B00900098401C2E
:100F900001218140CC0300BF00BF2046FEBD000000
:100FA0000010024000093D000024F40000127A0005
:100FB000AC400008FEB50446002C01D10120FEBD66
:100FC000FA48C7680C210F40C06801210904084095
:100FD00001902078C007C00F002872D0082F04D0DD
:100FE0000C2F0FD1019888420CD1F04800680121E4
:100FF00049040840400C002863D06068002860D194
:101000000120DCE700BF012109046068884205D1A6
:10101000E64800680843E549086027E0052109041F
:10102000606888420ED1E1480068012189040843C4
:10103000DE49086008460068012109040843DB49CD
:10104000086013E0D9480068012109048843D749A2
:10105000086008460068012109040840009000BFAC
:10106000D248006889008843D049086000BF6068A2
:10107000002813D0FFF76CFC054606E0FFF768FC7C
:10108000401B642801D9032099E7C8480068012162
:1010900049040840400C0028F0D012E0FFF758FC4B
:1010A000054606E0FFF754FC401B642801D90320E5
:1010B00085E7BE480068012149040840400C00282B
:1010C000F0D102212068084002286BD1E668202078
:1010D0003040002809D0B548006820210843B349B2
:1010E00008602021304688430646042F04D00C2F88
:1010F00033D10198002830D1AC4800680421084061
:101100008008002803D0002E01D1012057E7A7480E
:1011100040681F2109028843216909020843A34945
:101120004860084600680921884330439F490860A9
:10113000FFF7D8FE9D49C968F022114009099C4A71
:10114000515CC8409B4908600320FFF72BFC0290CC
:10115000029800283FD0029831E7002E23D0934810
:10116000006809218843304390490860FFF7F0FB8D
:10117000054606E0FFF7ECFB401B022801D90320DF
:101180001DE78A4800680421084080080028F1D043
:10119000864840681F2109028843216909020843E3
:1011A0008249486017E081480068400840007F4954
:1011B0000860FFF7CDFB054606E0FFF7C9FB401BC3
:1011C000022801D90320FAE6784800680421084083
:1011D00080080028F1D1102120680840102867D12C
:1011E000002F36D17148006849010840400A0028A4
:1011F00004D0A069002801D10120E0E66B484068D6
:10120000072149038843216A084368494860084622
:1012100040680002000A217F0906084363494860CC
:10122000206A400B401C01218140C8035F49C96806
:10123000F022114009095E4A515CC8405D490860CE
:101240000320FFF7AFFB0290029800284BD00298D2
:10125000B5E6A06900282CD054480068FF21013170
:10126000084352490860FFF773FB054606E0FFF7A5
:101270006FFB401B022801D90320A0E64B48006801
:10128000012149020840400A0028F0D04748406840
:10129000072149038843216A0843444948600846B6
:1012A00040680002000A217F090608433F49486060
:1012B00019E03E480068FF21013188433B4908603E
:1012C000FFF746FB054606E0FFF742FB401B0228FE
:1012D00001D9032073E6354800680121490208401E
:1012E000400A0028F0D1082120680840082839D198
:1012F000606900281BD02D48403000690121084357
:101300002A4940310861FFF723FB054606E0FFF755
:101310001FFB401B022801D9032050E62348403020
:1013200000690221084040080028F0D01AE01F4858
:1013300040300069400840001C4940310861FFF717
:1013400007FB054606E0FFF703FB401B022801D917
:10135000032034E615484030006902210840400867
:101360000028F0D1042120680840042879D1002009
:1013700000900E48806B89060840002806D10B4873
:10138000806B084309498863012000900A4800687F
:10139000FF210131084000281ED10748006808439A
:1013A00005490860FFF7D4FA05460EE00010024038
:1013B000944000089800002000700040FFF7C8FA31
:1013C000401B642801D90320F9E587480068FF2104
:1013D000013108400028F1D000BFFF210131A06891
:1013E000884205D18148006908438049086130E09E
:1013F000A06800280DD17D480069FF210131884394
:101400007A490861084600690915884377490861E7
:101410001FE005210902A06888420DD173480069C8
:10142000012189020843714908610846006989154C
:1014300008436E4908610CE06C480069FF210131E6
:1014400088436A4908610846006909158843674965
:10145000086100BFA068002815D0FFF779FA05469B
:1014600008E031E0FFF774FA401B6149884201D976
:101470000320A4E55D480069012149020840400AB3
:101480000028EFD013E0FFF763FA054607E0FFF707
:101490005FFA401B5649884201D903208FE5534823
:1014A0000069012149020840400A0028EFD1009854
:1014B000012808D14D484038806B01210907884335
:1014C0004A494039886300BF606A00284CD00C2F1D
:1014D00069D0606A022848D1444840380068012138
:1014E00009068843414940390860FFF731FA05464B
:1014F00006E0FFF72DFA401B022801D903205EE524
:101500003A4840380068012149060840400E00284A
:10151000EFD1E16AA06A0843216B0843334940399F
:10152000C968FD2212049143084330494039C8601C
:10153000084600680121090608432C494039086023
:10154000FFF706FA054606E0FFF702FA401B0228FD
:1015500001D9032033E525484038006801214906B8
:101560000840400E0028EFD03CE02048403800689A
:101570000121090688431D4940390860FFF7E8F951
:10158000054606E0FFF7E4F9401B022801D90320D5
:1015900015E5164840380068012149060840400E0C
:1015A0000028EFD11EE0606A012800D107E50F484E
:1015B0004038C06801900121090401980840A16ADF
:1015C00088420DD10F21890401980840E16A8842C0
:1015D00006D10321890501980840216B884201D07A
:1015E0000120ECE40020EAE40070004040100240DA
:1015F0008813000002461068034650338800C31861
:101600001868704710B50468234650338C00E318FF
:101610001A6010BDF0B506460C46174630684068A3
:10162000124908400546FF2000042840000CE070E5
:101630001F2000022840000A6070A806800EA070DB
:10164000072040032840400B2070002F0BD1E0788A
:1016500000F0A6FDE070607800F0A2FD6070A07858
:1016600000F09EFDA0700020F0BD00003FFFFF00D5
:10167000F0B505460C4617462868806A6060286801
:1016800000694004400CA0602868006812490840C6
:1016900006463F2000043040000C20707F200002EE
:1016A0003040000A60707006400EA0700120800576
:1016B0003040000CE070002F0BD1207800F070FD5E
:1016C0002070607800F06CFD6070A07800F068FD1C
:1016D000A0700020F0BD00007F7F7F0010B50446A1
:1016E000002C01D1012010BD2120005D002805D172
:1016F000002120200155204600F06EF80221212013
:10170000015500BFCA202168486253202168486201
:1017100000BF204600F05EFD002809D000BFFF207A
:101720002168486200BF0421212001550120DAE729
:1017300020688068274908402168886021696068BE
:101740000843A169084321688968084321688860C3
:101750002168E0680861206800692189090408435C
:10176000216808612068C068802188432168C860BA
:101770002068C06C800880002168C8646169E069E5
:1017800008432168C96C08432168C86420688068E0
:1017900020210840002813D1204600F055F90028E8
:1017A0000ED000BFFF202168486200BF0421212025
:1017B000015500BF00212020015500BF012092E704
:1017C00000BFFF202168486200BF01212120015590
:1017D000002088E7BFFF8FFF70470000F7B5044681
:1017E0000D4600BF2020005D012801D10220FEBD72
:1017F00001212020015500BF02212120015502981E
:10180000002809D1687810210840102804D1687890
:10181000EF2108400A3068700298002811D1E8785A
:1018200000F0CAFC0704687800F0C6FC0002074319
:10183000A87800F0C1FC0743287840033E460643E1
:101840000AE0E8780004697809020843A9780843A7
:10185000297849030843064600BFCA202168486228
:1018600053202168486200BF204600F0B3FC0028E6
:101870000ED000BFFF202168486200BF0421212054
:10188000015500BF00212020015500BF0120AEE717
:1018900019483040216848602068C068802188432A
:1018A0002168C8602068806820210840002813D182
:1018B000204600F0C9F800280ED000BFFF202168A4
:1018C000486200BF04212120015500BF00212020D3
:1018D000015500BF01208AE700BFFF202168486250
:1018E00000BF01212120015500BF0021202001550A
:1018F00000BF00207BE700003FFFFF00F7B5044674
:101900000D4600BF2020005D012801D10220FEBD50
:1019100001212020015500BF0221212001550298FC
:1019200000281BD12068806840210840002800D092
:1019300002E00020E87000BF287800F03DFC0704BA
:10194000687800F039FC00020743A87800F034FC06
:101950000743E87800043E46064314E020688068A8
:1019600040210840002800D002E00020E87000BFBD
:1019700028780004697809020843A9780843E978BF
:1019800009040843064600BFCA2021684862532064
:101990002168486200BF204600F01CFC00280ED0E1
:1019A00000BFFF202168486200BF042121200155AB
:1019B00000BF00212020015500BF0120A7E72148DA
:1019C00030402168086020688068012189048843CC
:1019D000216888602969E8680843216889680843A4
:1019E000216888602068C068802188432168C860B9
:1019F0002068806820210840002813D1204600F08C
:101A000023F800280ED000BFFF202168486200BFE5
:101A100004212120015500BF00212020015500BFD5
:101A2000012074E700BFFF202168486200BF012148
:101A30002120015500BF00212020015500BF0020BA
:101A400065E700007F7F7F0070B504462068C068AE
:101A5000A02188432168C860FEF77AFF054608E0A8
:101A6000FEF776FF401B7D21C900884201D9032083
:101A700070BD2068C068202108400028F0D00020F8
:101A8000F6E7000070B504462546681E09498842FD
:101A900001D901200CE0681E074948610321081F95
:101AA00001F02AF90020044988610720086100201C
:101AB00070BD0000FFFFFF0000E000E0704710B5C0
:101AC0000446002C01D1012010BD2420606720684D
:101AD0000068400840002168086000202168086014
:101AE0002168486021688860204600F032F90020B3
:101AF000E0676067A06700BF00217020015500BF4C
:101B00000020E1E770470000FEB504462068C56983
:101B100020680668206887682807000F01900198F0
:101B200000280ED12020284000280AD02020304054
:101B3000002806D0206E002802D02046216E88475B
:101B4000FEBD019800287DD0F807C00F002804D101
:101B5000FF20213030400028F5D0E807C00F0028D2
:101B60000BD0FF2001303040002806D00120216832
:101B70000862E06F01210843E06702202840002846
:101B80000AD0F807C00F002806D00220216808629A
:101B9000E06F04210843E0670420284000280AD0B1
:101BA000F807C00F002806D0042021680862E06F03
:101BB00002210843E0670820284000280ED020209A
:101BC0003040002803D1F807C00F002806D00820B5
:101BD00021680862E06F08210843E067E06F002891
:101BE00046D020202840002809D02020304000285E
:101BF00005D0206E002802D02046216E8847E06F75
:101C000000902068806840210840002804D1082105
:101C100000980840002826D0204600F00DFD2068DE
:101C2000806840210840002819D0206880688843D7
:101C300021688860E06E00280DD02548E16E886339
:101C4000E06E00E015E0FEF734FD002810D0E06EF5
:101C5000816B88470CE02046FFF754FF08E02046E0
:101C6000FFF750FF04E02046FFF74CFF0020E0673D
:101C700066E701200005284000280CD001208005DF
:101C80003840002807D0012000052168086220465E
:101C9000FFF714FF54E78020284000280AD0802056
:101CA0003040002806D0606E002802D02046616EC9
:101CB000884745E740202840002807D04020304092
:101CC000002803D0204600F0C9FC39E700BF37E701
:101CD0002126000810B50446002C01D1012010BDBA
:101CE000A069002800D000E000BF606F002805D187
:101CF000002170200155204600F02CF82420606758
:101D0000206800684008400021680860204600F014
:101D10002DFD012800D1E2E7606A002802D02046AC
:101D200000F0CEFB206840680921C9028843216881
:101D30004860206880682A2188432168886020687C
:101D400000680121084321680860204600F030FC4B
:101D5000C5E7704710B586B00446444920688842FC
:101D60003DD100BF4248C06A012108434049C862D2
:101D70000846C06AC007C00F009000BF00BF00BF88
:101D80000846C06A012108433949C8620846C06A4A
:101D9000C007C00F009000BF00BF4815019002208F
:101DA000029001200390032004900420059001A9D3
:101DB00005200007FEF7BCFC0120800201900420F2
:101DC000059001A905200007FEF7B2FC00220321BF
:101DD0001B20FEF715FE1B20FEF700FE44E0254900
:101DE0002068884240D100BF2148C06A01210843D1
:101DF0001F49C8620846C06AC007C00F009000BFF4
:101E000000BF00BF0846C06A012108431849C862E4
:101E10000846C06AC007C00F009000BF00BF042082
:101E200001900220029001200390032004900420DE
:101E3000059001A905200007FEF77AFC0820019013
:101E40000420059001A905200007FEF771FC02207F
:101E5000019001200290002003900320049001A92A
:101E600005200007FEF764FC06B010BD00380140F5
:101E7000001002400044004010B50346986F20282F
:101E80007DD1002901D0002A01D1012010BD0124FB
:101E900024039868A04208D11869002805D1C80712
:101EA000C00F002801D00120F0E700BF7020C05C07
:101EB000012801D10220E9E701247020C45400BFA9
:101EC00059655820C2525A20C2520020186600BFDD
:101ED00024039868A0420AD11869002803D1294C2C
:101EE0005C20C45224E0FF245C20C45220E09868A7
:101EF00000280AD11869002803D1FF245C20C452AD
:101F000016E07F245C20C45212E001242407986864
:101F1000A0420AD11869002803D17F245C20C45252
:101F200006E03F245C20C45202E000245C20C4523E
:101F300000BF0020D86722209867186880680124B5
:101F400020431C68A060012424039868A04205D1A6
:101F50001869002802D10C48186601E00B48186681
:101F600000BF00247020C45400BF18680068FF241C
:101F7000213420431C682060002087E7FFE702200F
:101F800084E70000FF0100009526000801270008F3
:101F900070B5044600250F492068884210D101F031
:101FA00017FE05460C48C18BC08B401C0A4AD083E3
:101FB00010464554C8201146088402F053F808E042
:101FC00006492068884204D101F0EEFF054602F080
:101FD00055F870BD0038014058030020004400400F
:101FE000FFB583B004460D461746606F202875D1B3
:101FF000002D01D0002F02D1012007B0F0BD01213A
:102000000903A068884208D12069002805D1E807A3
:10201000C00F002801D00120EFE700BF7020005D55
:10202000012801D10220E8E701217020015500BFFD
:102030000020E06721206067FEF78AFC01905020B5
:1020400007535220075301210903A068884205D194
:102050002069002802D10026029502E02E460020C9
:10206000029021E006980090002280212046019BEA
:1020700000F07CFD002801D00320BEE7002E09D12E
:1020800002980088C005C00D216888620298801CF3
:10209000029003E0307821688862761C5220005B51
:1020A000401E81B2522001535220005B0028D9D13A
:1020B00006980090002240212046019B00F056FD2A
:1020C000002801D0032098E72020606700BF00218E
:1020D0007020015500BF00208FE7FFE702208CE74A
:1020E000704700BFFEE7000010B586B027480069C2
:1020F00001218904084325490861142101A8FEF73C
:1021000058F800200090224822490860402048608A
:102110007F2120488160FF21C16000210161416170
:102120008161C161FFF7DAFA00211A48FFF762FA0C
:1021300004461948844227D00A21684601710F21BC
:102140004171002181714021C171002004900590EE
:10215000002201A90F48FFF7D1FB06216846017054
:1021600005214170192181701521C1700022694635
:102170000848FFF733FBFEF757FC074A00210548E4
:10218000FFF740FAFEF746FC06B010BD40100240D3
:10219000002800407C03002055AA000000F0E8FD64
:1021A0000146F020084000090A2358430246080768
:1021B000000F8018C0B2704702460023114603E0AA
:1021C0005B1C08460A38C1B20A29F9D21807000E6A
:1021D0000843704770B504462068C0684021084035
:1021E000002815D1401E2168C860FEF7B1FB0546E6
:1021F00008E0FEF7ADFB401B7D21C900884201D9F4
:10220000032070BD2068C068402108400028F0D03D
:102210000020F6E710B5FEF7A1FB214802684068F0
:102220000021521C48411E490A6048601D48006850
:10223000401C1C4908601C480068401C1A49086082
:1022400008460068C82807D3012105200007FEF7CB
:1022500074FB00201449086012480068134909689B
:10226000884207D312480068401C114908600020CA
:102270000C4908600F48008C012805DD0D48008CD2
:10228000401E0C4908840AE00A48008C012806D147
:10229000002008490884012106482030817010BDC3
:1022A000800000208C00002090000020880000208A
:1022B000780000205803002000B59BB0142116A818
:1022C000FDF777FF342109A8FDF773FF2248806BE3
:1022D000012109070843204988630846C068012195
:1022E000C903884340181C49C8600E20099001208A
:1022F0000C9000020B9001200E9010200D900020F9
:10230000129009A8FEF756FE0F2016900120179094
:102310000020189019901A90012116A8FEF7B4FC1D
:10232000A020019001204004029003208004089026
:1023300001A8FEF783FB0848403000690321C90269
:1023400088430549403108610348806B890588430B
:10235000014988631BB000BD00100240F8B500259C
:10236000002400260020009000273548C0680C217A
:1023700008400546002D06D0042D11D0082D13D09D
:102380000C2D41D114E02E48406807214903084034
:10239000470B781C01218140C8032A49086040E0AE
:1023A0002948284908603CE028482649086038E068
:1023B0002348C0680F218904084004462048C068AB
:1023C0000321890508400646A00C21490C5CB00D8C
:1023D000461C1B48C0680121090408400090009871
:1023E000002808D11849614308463146FDF782FEAE
:1023F0001449086007E01549614308463146FDF776
:1024000079FE104908600CE00D4840680721490337
:102410000840470B781C01218140C8030949086026
:1024200000BF00BF0648C068F02108400009094904
:102430000D5C04480068E84002490860F8BD0000EF
:1024400000100240980000200024F40000127A00DE
:10245000AC4000089440000815480068FF21013195
:102460000843134908600846C068124908401049EB
:10247000C86008460068104908400D4908600846D1
:10248000806840084000886008460068012189048F
:102490008843074908600846C068FD21090488434D
:1024A0000349C86000200861C80304498860704778
:1024B000001002400C40FF88F6FFF6FE00ED00E041
:1024C000818CC907C90F002908D001684968012219
:1024D00052049143826A1143026851600222416AA8
:1024E0001140002907D001684968D2039143C26AAC
:1024F0001143026851600422416A1140002907D04B
:102500000168496812049143026B114302685160EB
:102510000822416A1140002907D001684968120366
:102520009143426B1143026851601022416A11408D
:10253000002907D00168896812029143826B114318
:10254000026891602022416A1140002907D0016889
:10255000896812029143C26B114302689160402264
:10256000416A1140002915D00168496892039143DE
:10257000026C11430268516001221205016C914204
:1025800008D101684968032252059143426C114306
:10259000026851608022416A1140002907D0016819
:1025A000496812039143826C11430268516070477D
:1025B00038B504460020E067FEF7CAF905462068F2
:1025C00000680821084008280BD114482B46002237
:1025D00089040090204600F0C9FA002801D00320A9
:1025E00038BD206800680421084004280BD10B483E
:1025F0002B46002209050090204600F0B7FA00287B
:1026000001D00320ECE720206067A06700BF002115
:102610007020015500BF0020E2E70000FFFFFF012E
:1026200070B50546AC6A00215A200153522001536F
:102630002046FFF767FA70BD01680968FF22213262
:10264000914302681160016889684908490002687D
:1026500091602021816700210166704710B5044612
:102660002068006840218843216808602020606756
:10267000002060662046FFF733FD10BD70B50446AC
:102680000D4664232A4621460148FFF7A9FC70BD88
:102690009C010020F8B504465C20075BA06F22284F
:1026A00027D12068406A86B2656D30463840288060
:1026B000606D801C60655A20005B401E81B25A200C
:1026C0000153005B00281AD120680068FF212131E6
:1026D00088432168086020688068400840002168BD
:1026E00088602020A067002020662046FFF750FC6D
:1026F00005E0206880690821084321688861F8BDE9
:1027000070B504465C20065BA06F222827D12068A4
:10271000406A85B2F0B22840616D0870606D401C5F
:1027200060655A20005B401E81B25A200153005B55
:1027300000281AD120680068FF21213188432168D0
:102740000860206880684008400021688860202078
:10275000A067002020662046FFF71AFC05E02068ED
:102760008069082108432168886170BDF0B587B091
:102770000446102004900025002003900026EE4916
:102780002068884200D100E000BF2169A0680843AA
:1027900061690843E1690843074620680068E74922
:1027A0000840384321680860206840680321090315
:1027B0008843E168084321684860A769DE492068CA
:1027C000884201D0206A0743206880680B210902F3
:1027D000884338432168886000BFD949206888420F
:1027E0001CD1D848C0688007800F002806D0012877
:1027F0000AD0022805D003280CD108E0012004905B
:102800000BE00220049008E00420049005E008207A
:10281000049002E01020049000BF54E0CA492068F0
:1028200088421CD1C748C0680C210840002806D047
:1028300004280AD0082805D00C280CD108E0002074
:1028400004900BE00220049008E00420049005E0CE
:102850000820049002E01020049000BF33E0BB4940
:102860002068884202D1002004902CE0B8492068FA
:10287000884202D10020049025E0AF4920688842B8
:102880001FD1B048C068032189020840002808D041
:1028900001218902401A0AD0401A05D0401A0CD1F1
:1028A00008E0002004900BE00220049008E00420DF
:1028B000049005E00820049002E01020049000BF7E
:1028C00001E01020049000BF9B492068884256D147
:1028D000049804281AD004DC002807D002281CD150
:1028E00008E0082816D0102817D117E0FEF7D6FA0E
:1028F000064616E093484038006810210840000959
:10290000002801D0934E00E0934E0AE0FEF7EAFA69
:10291000064606E00126F60303E000BF012003900F
:1029200000BF00BF002E0AD0606841004018B042CE
:1029300003D860680003B04202D201200390F4E0A3
:10294000606802903046FF21013100F080F9626832
:10295000520800238018594101910090029AFDF716
:10296000DFFB054603200002854205D37B488542F4
:1029700002D82068C560D8E001200390D5E001218D
:10298000C903E06988426FD1049804283CD006DC72
:10299000002809D0012813D002284AD11CE00828B9
:1029A0003ED0102845D145E0FEF778FA4000616836
:1029B0004908401802906168FDF79CFB85B23CE035
:1029C000FEF77EFA4000616849084018029061688D
:1029D000FDF790FB85B230E05A484038006810217E
:1029E00008400009002807D061684A085C4BD018ED
:1029F000FDF780FB85B206E061684A08594BD018A4
:102A0000FDF778FB85B218E0FEF76CFA40006168CC
:102A10004908401802906168FDF76CFB85B20CE034
:102A200061684A0801231B04D018FDF763FB85B2D7
:102A300003E000BF0120039000BF00BF102D0FD3A3
:102A4000494885420CD848480F3828400590280747
:102A5000400F05990843059005982168C86064E017
:102A60000120039061E0FFE7049804283AD006DCD7
:102A7000002809D0012812D0022847D11AE00828DE
:102A80003BD0102842D142E0FEF708FA61684908BD
:102A9000401802906168FDF72DFB85B23AE0FEF721
:102AA0000FFA61684908401802906168FDF722FB3F
:102AB00085B22FE023484038006810210840000903
:102AC000002807D061684A08224BD018FDF712FB96
:102AD00085B206E061684A081F4BD018FDF70AFB73
:102AE00085B217E0FEF7FEF96168490840180290C8
:102AF0006168FDF7FFFA85B20CE061684A080123BE
:102B0000DB03D018FDF7F6FA85B203E000BF012021
:102B1000039000BF00BF102D05D31348854202D893
:102B20002068C56001E001200390002020666066F7
:102B3000039807B0F0BD000000480040F369FFEFC4
:102B4000003801404010024000440040004C00406A
:102B50000050004000093D000024F400FFFF0F007A
:102B600000127A000048E801FFFF0000FFB581B0C5
:102B700004460D4617460A9E22E0701C00281FD00E
:102B8000FDF7E6FE0499401AB04201D8002E17D195
:102B900020680068FF21A13188432168086020680F
:102BA0008068400840002168886020206067A06736
:102BB00000BF00217020015500BF032005B0F0BD0B
:102BC0002068C0692840A84201D1012000E000200F
:102BD000B842D2D00020F1E710B50248FEF794FFCA
:102BE00010BD00009C01002010B50248FEF78CFFCC
:102BF00010BD00001C0200200FB410B504A9074B43
:102C000002AA039800F08CF9044602A9002000F003
:102C100025FD204610BC08BC04B018475D360008EE
:102C20002021020C01D010211046020A01D01046CA
:102C30000839020901D01046091F820801D0104648
:102C4000891E420801D0881E7047081A7047F8B5DF
:102C500082B28BB2040C0D0C10465843002126465C
:102C60005E43370C36048019794116466E43370CA3
:102C700036048019794126466E438919F8BD000053
:102C800010B5002819DB1A4A03231B02D218830847
:102C90009B00D2588307DC0EFF23A3409A438B0787
:102CA0001B0E8407E40EA3401A43114B0324240295
:102CB0001B198408A4001A5118E00E4A03071B0FC1
:102CC000083B9B089B00D2588307DC0EFF23A340E0
:102CD0009A438B071B0E8407E40EA3401A43054B4F
:102CE0000407240F083CA408A4001A5110BD0000DA
:102CF00000E100E01CED00E010B5002819DB1A4AE5
:102D000003231B02D21883089B00D2588307DC0ED2
:102D1000FF23A3409A438B071B0E8407E40EA340B6
:102D20001A43114B032424021B198408A4001A51CE
:102D300018E00E4A03071B0F083B9B089B00D25864
:102D40008307DC0EFF23A3409A438B071B0E8407E7
:102D5000E40EA3401A43054B0407240F083CA408C3
:102D6000A4001A5110BD000000E100E01CED00E0DD
:102D7000BFF34F8F03480449C860BFF34F8F00BFB4
:102D800000BFFDE70400FA0500ED00E002E008C81E
:102D9000121F08C1002AFAD170477047002001E0D5
:102DA00001C1121F002AFBD170470000F0B51FB40B
:102DB00086B00998089A030D0021024314D05148A7
:102DC000514A1818504305141198012810981AD028
:102DD000281A401C00264D4F4D4900960191049041
:102DE000002812DA444211E01198012449A3012875
:102DF00001D11098C1430698119A84600360C260A3
:102E000041600BB0F0BD4042E4E7044621050020DC
:102E10003F4A001C51410391029012E0E00707D0A5
:102E200032463B4601990098FDF782FB01910090E4
:102E300032463B4610461946FDF77AFB06460F46DA
:102E40006410002CEAD10498039B0028029A099987
:102E5000089806DAFDF76CFB019B009AFDF768FB0A
:102E600005E0FDF7B9F9019B009AFDF7B5F90446B5
:102E70000E460022284BFDF7E3FB03D80020C04399
:102E8000014607E00022254B20463146FDF79CFA1B
:102E9000FDF7B6FB102409E0002C0ADB0A22002310
:102EA000FDF73EF9079B30321A55641E02460A436D
:102EB000F2D11122641C079B121B1C19119B012BC0
:102EC00003D0012308430ED10AE0084304D01120A7
:102ED00010900020119077E71098151A6D1E0BE0E6
:102EE0001098824202DD00236D1C03E0824201DA69
:102EF00000236D1E002BEED0069811998260C160F0
:102F000030C07EE701FCFFFF104D000000001440C0
:102F10000000F03F300000000000F0430000E03F00
:102F2000FFB597B0064600251BE2252876D1002480
:102F30002746F749049400E00443761C32780120C8
:102F4000203A90400842F7D130782A280ED0022249
:102F5000307801463039092916D804990A23594393
:102F6000303940181443761C0490F1E7189802C8D1
:102F700004911890002904DA0120400304434842D8
:102F8000049002200443761C30782E2814D10420AB
:102F900004437078761C2A2809D11898761C80C8BA
:102FA000189009E00A214F43303FC719761C30784A
:102FB000014630390929F5D930786C2810D006DC63
:102FC0004C281AD068280ED06A2817D104E074283B
:102FD00013D07A2812D110E00120400504430CE000
:102FE0000121090501E0032109050C4371788142A3
:102FF00003D1012000052418761C761C3078662841
:103000000BD013DC58287DD009DC00287BD0452864
:10301000F6D04628F4D047281AD1A9E118E0632851
:1030200035D0642870D0652812D1A1E170286CD009
:1030300008DC6728F1D069287DD06E280DD06F2874
:1030400006D1BCE073282ED0752873D0782859D0CB
:103050001A9A199990476D1C82E16002400F02286C
:1030600009D003280DD00428189801680DD00D60F0
:10307000001D189074E11898EA1701680D604A6005
:10308000F6E7189801680D80F2E70D70F0E71898E0
:103090006A4601781172001D18900020507202A833
:1030A0000090012005E0189802C8189000200091B7
:1030B000C04361070ED5002101E00199491C01912F
:1030C000B94213DA8142F8DB019A0099895C002940
:1030D000F3D10BE0002101E00199491C01918142EB
:1030E000FADB019A0099895C0029F5D101990498CD
:1030F0001A9B471A21463846199A00F099FA401946
:10310000019903E051E030E115E050E0451807E097
:10311000009800990078491C00911A9A19999047D3
:103120000198401E0190401CF2D1214638461A9B5E
:10313000199A12E137E00A20002100900191600203
:10314000410F022907D0189A01CA1892C217944653
:10315000032908D00AE01898C01DC108C90005C994
:103160001891944607E000B2C2179446042902D190
:1031700040B2C1178C4600226146944506DA0A46E1
:103180000021404291418C462D2102E0210504D5C9
:103190002B216A461173012103E0E10701D02021B0
:1031A000F7E7029156E00A200AE0102008E010201C
:1031B00000900021042004430191082703E0082027
:1031C0000021019100906002410F022907D0189A56
:1031D00001CA189200229446032908D008E01898E2
:1031E000C01DC108C90005C91891944603E080B20A
:1031F000042900D1C0B20021029121072AD53178DB
:103200000D91702906D0009A1021019B4A401A4363
:1032100005D00EE040216A461173012108E06146A5
:10322000014306D030216A4611730D995173022172
:103230000291009A0821019B4A401A430AD1614633
:10324000014301D1610705D530216A46117301217F
:103250007F1E02913178582904D02EA10E910DA91C
:103260000D910DE030A1F9E76146019B009AFCF752
:1032700057FF0E9B8C469B5C0D9A521E0D9213704D
:1032800061460143F0D10D9805A9081A203001903C
:10329000600703D501200004844300E00127019862
:1032A000874201DD381A00E00020019900904118A2
:1032B000029809180498401A0490E00306D42146A5
:1032C0001A9B199A049800F0B3F94519002706E0F3
:1032D00003A81A9AC05D199990476D1C7F1C02982B
:1032E0008742F5DBE0030CD521461A9B199A049816
:1032F00000F09EF9451904E01A9A30201999904778
:103300006D1C0099481E00900029F5DC1FE00000AC
:1033100009280100303132333435363738396162AB
:10332000636465660000000030313233343536376F
:103330003839414243444546000000000D980D993C
:103340000078491C0D911A9A199990476D1C0199A2
:10335000481E01900029F1DC4DE100F059F94519B2
:10336000761C3078002800D0DFE528461BB0F0BD81
:10337000600700D406271898C01DC108C900486816
:103380000A680831C30FDB071891190001D09CA10E
:1033900008E0210501D59BA104E0E10701D09AA135
:1033A00000E09AA14300109130785B0865280CD0AA
:1033B00006DC452809D046281DD0472841D141E0E8
:1033C000662818D067283CD13CE00021112F01DB92
:1033D000112000E0781C0191009008A911A8FFF7C6
:1033E000E5FC139905910021119A15927F1C129802
:1033F0000197009150E00120C00703900120019047
:1034000008A9009711A8FFF7D1FC139A1499059207
:103410000022119B009212981593059A019200299F
:1034200001D0104602E0791C40180190381A01D5ED
:10343000019804E04042401E0090781C0190C01B9F
:10344000029043E0012F00DA01270021112F01DD56
:10345000112000E038460191009008A911A8FFF75B
:10346000A5FC13990591119A0021129815920091CB
:10347000019721070CD40599B94201DB019900E0BD
:103480000191012904DD159A491E515C302906D0AD
:10349000B84201DA011D05DA0121029115E0019916
:1034A000491EEDE7002805DC0099411800910199BB
:1034B000091A03E0019A411C914200DD0191009933
:1034C000401A401C02900120C0070390200706D438
:1034D00002990198814202DB0020C0430290002043
:1034E0006946C87707AF012103980337C9078842A7
:1034F00024D0022011902B201290039800280CDA7F
:10350000404203902D20129007E00A210398FCF717
:10351000F1FD30317F1E039039701199481E1190D2
:103520000029F2DC03980028EFD1791E1298087068
:103530003078202108404530BF1E387006A8C01BD7
:10354000C01D039010980078002800D00120019938
:1035500041180298C0170918039809180498401ACE
:10356000401E0490E00306D421461A9B199A049841
:1035700000F05EF8451910980078002803D01A9AD8
:10358000199990476D1CE00324D521461A9B199A7E
:10359000049800F04DF845191CE00098002807DB5E
:1035A00000990598884203DD1598405C199901E05F
:1035B000199930201A9A904700986D1C401C009071
:1035C0000298401E0290002804D11A9A2E201999C0
:1035D00090476D1C0199481E01900029DDDC05E033
:1035E00038781A9A7F1C199990476D1C0399481EC8
:1035F00003900029F4DC21461A9B199A0498ACE642
:103600002D0000002B000000200000000000000042
:10361000F8B5044600251E461746880404D405E084
:1036200039462020B0476D1C641EF9D52846F8BDE8
:10363000FFB50446002581B01E46C80301D53027DA
:1036400000E02027880404D505E038460399B047F8
:103650006D1C641EF9D5284605B0F0BD0A68531CE0
:103660000B6010707047000030B58BB000200990DF
:103670000A9007900890142102A8FCF79AFD00F028
:103680000BFBFA4B0CCB821A994164230020D21A0F
:10369000814101D20BB030BD00F0FEFAF34A03C203
:1036A00000BFF348C06A02210843F149C8620846D6
:1036B000C06A02210840019000BF00BF00BFEC4873
:1036C000C06A0843EA49C8620846C06A0221084045
:1036D000019000BF00BF00BFE548C06A0843E4494D
:1036E000C8620846C06A02210840019000BF00BFBE
:1036F00000BFDF48C06A04210843DD49C8620846AC
:10370000C06A04210840019000BF00BF00BFD84834
:10371000C06A01210843D649C8620846C06AC0078A
:10372000C00F019000BF00BF00BF0846C06A012162
:103730000843CF49C8620846C06AC007C00F01905D
:1037400000BF00BF00BF0846C06A04210843C84943
:10375000C8620846C06A04210840019000BF00BF4B
:1037600000BFC348C06A01210843C149C862084676
:10377000C06AC007C00F019000BF00BF00BF08466D
:10378000C06A01210843BA49C8620846C06AC00736
:10379000C00F019000BF00BF00BF0846C06A0221F1
:1037A0000843B349C8620846C06A02210840019034
:1037B00000BF00BF00200790089009900A904802BF
:1037C000029001200390002004900220059002A99D
:1037D000A848FCF7ADFF0420029002A9A548FCF719
:1037E000A7FF0220029002A9A248FCF7A1FF202017
:1037F000029002A9A048FCF79BFF2020029002A99A
:1038000005200007FCF794FF002201218902994856
:10381000FDF797F8002204219648FDF792F8002260
:1038200002219448FDF78DF8002220219248FDF7EF
:1038300088F80022202105200007FDF782F80122E8
:10384000102105200007FDF77CF8012210218A488D
:10385000FDF777F80122802105200007FDF771F8B8
:103860000122402105200007FDF76BF801221146D7
:103870008048FDF766F81020029000200390022097
:10388000059002A905200007FCF752FF10200290C6
:1038900002A97948FCF74CFF8020029002A905207C
:1038A0000007FCF745FF4020029002A90520000711
:1038B000FCF73EFF0120029002A96E48FCF738FF9A
:1038C0000220FCF724FF102105200007FDF72CF84B
:1038D000002801D1012000E000206946087710216E
:1038E0006548FDF721F8002801D1012000E0002003
:1038F00069464877802105200007FDF715F8002864
:1039000001D1012000E00020694688774021052090
:103910000007FDF709F8002801D1012000E0002090
:103920006946C87701215348FCF7FEFF002801D102
:10393000012000E0002008A90870012291024D48F2
:10394000FCF7FFFF012204214A48FCF7FAFF01229D
:1039500002214848FCF7F5FF012220214648FCF7E8
:10396000F0FF0122202105200007FCF7EAFF0022DA
:10397000102105200007FCF7E4FF002210213E483B
:10398000FCF7DFFF0022802105200007FCF7D9FFAC
:103990000022402105200007FCF7D3FF002201216F
:1039A0003448FCF7CEFF01208002029000200390F3
:1039B0000220059002A92F48FCF7BAFE04200290CD
:1039C00002A92C48FCF7B4FE0220029002A9294863
:1039D000FCF7AEFE2020029002A92748FCF7A8FEC3
:1039E0002020029002A905200007FCF7A1FE10206C
:1039F000029001200390002004900220059002A96B
:103A000005200007FCF794FE1020029002A91A4836
:103A1000FCF78EFE8020029002A905200007FCF72B
:103A200087FE4020029002A905200007FCF780FED7
:103A30000120029002A90F48FCF77AFE0220FCF751
:103A400066FE012189020B48FCF76EFF002801D1B8
:103A5000012000E0002008A9087104210548FCF7B6
:103A600063FF00280AD1012009E000007000002057
:103A7000001002400004005000080050002008A977
:103A8000487102214848FCF74FFF002801D101206E
:103A900000E0002008A9887120214448FCF744FF79
:103AA000002801D1012000E0002008A9C8712021D0
:103AB00005200007FCF738FF002801D1012000E0B5
:103AC000002008A9087200246AE0002564E009A823
:103AD000005D01284DD107A8405D012849D1200192
:103AE000001B334940186900691840188078012884
:103AF00050D02001001B2E49401869006918401859
:103B00004078401C2101091B294A89186A00AA181B
:103B1000891848702001001B254940186900691860
:103B200040184078032835DB01202101091B204A79
:103B300089186A00AA18891888702001001B1C497E
:103B4000401869006918405C4E2823D02001001BF2
:103B50001749401869006918405C16490870084602
:103B6000027815A11948FFF747F8184800F000FA45
:103B700010E000202101091B0D4A89186A00AA18CB
:103B8000891888702101091B094A89186A00AA1836
:103B900089184870681CC5B2052D98DB601CC4B23A
:103BA000052C92DB00BF75E50004005000080050B2
:103BB000200000206B000020627574746F6E202559
:103BC000632064756F632062616D0A009C000020B1
:103BD00001480078704700001000002010B5184818
:103BE000406B01218903084315494863154816496C
:103BF0000860E12040024860002113488160C160F4
:103C0000016181610C214161FDF759FF002801D05C
:103C100000BFFEE70C48FEF75DF8002801D000BFAA
:103C2000FEE71E210948FCF7C4FA00200749C883B3
:103C3000002106482030817000F014FA10BD000009
:103C400000100240003801409C0100205803002071
:103C500000B587B0142102A8FCF7ABFA00BF0D48ED
:103C6000C06A012108430B49C8620846C06AC00700
:103C7000C00F019000BF00BF012002900390002000
:103C800004900220059002A905200007FCF750FDD2
:103C900007B000BD00100240014903C97047000091
:103CA0008000002010B504462C2202492046FCF773
:103CB00067FA10BDDC03002000B587B0142102A80C
:103CC000FCF777FA00BF4048C06A012108433E492B
:103CD000C8620846C06AC007C00F019000BF00BF9D
:103CE00000BF0846C06A042108433749C862084635
:103CF000C06A04210840019000BF00BF00BF3248E5
:103D0000C06A08433049C8620846C06A04210840B6
:103D1000019000BF00BF00BF2B48C06A08432A497A
:103D2000C8620846C06A04210840019000BF00BF75
:103D300000BF2548C06A022108432349C8620846DB
:103D4000C06A02210840019000BF00BF00BF1E48AA
:103D5000C06A082108431C49C8620846C06A082195
:103D60000840019000BF00BF0803029001200390AB
:103D7000002004900220059002A905200007FCF70E
:103D8000D7FC01208002029002A91048FCF7D0FC69
:103D900001200003029002A90C48FCF7C9FC012095
:103DA000C002029002A90948FCF7C2FC4020029020
:103DB00002A90748FCF7BCFC0420029002A90548B0
:103DC000FCF7B6FC07B000BD001002400008005030
:103DD00000040050000C005010B5FFF75DFF174BBA
:103DE0000CCB841A9941FF22F5320020A21A81419E
:103DF00022D3012291021248FCF7A3FD0122D10334
:103E000005200007FCF79DFD012204210D48FCF769
:103E100098FD012240210C48FCF793FD0122D102BC
:103E20000748FCF78EFD012211030548FCF789FDC8
:103E3000FFF732FF014A03C210BD00001800002046
:103E400000080050000C0050000400508CB0FCF73B
:103E50008DFDFEF731FAFEF781FA24480168244807
:103E60000068FCF747F90446601E2249884201D9E0
:103E700001200CE0601E204948610321081FFEF765
:103E8000FFFE00201C4988610720086100200028EF
:103E900001D000BFFEE7FFF7DBFEFFF70DFFFFF7E6
:103EA0009DFE00F087F8FEF71FF900F059F81CE0BE
:103EB000FFF7F2FE114A13685268C31A91417D2040
:103EC000C0000022181A914109D3FFF7E5FE0B4A02
:103ED00003C200F045F801A8FFF7E4FE00BF00F0C0
:103EE0000FF8FFF7C1FBFFF777FFE1E7880000203D
:103EF00098000020FFFFFF0000E000E00800002025
:103F0000F0B589B0002500260027114880780128E7
:103F10001CD1202101A8FCF74CF90EA101A8FEF745
:103F20006BFE01A8FCF750F984B2214601A8FEF708
:103F3000A5FB002106488170002005492039C8836F
:103F40001E2103482038FCF734F900BF09B0F0BD4A
:103F500078030020686176655F6D7367200D0A0045
:103F600010B5024800F056F810BD0000DC03002038
:103F700070B504462046FCF727F985B201220221DC
:103F800005200007FCF7DDFC68002B182A462146B7
:103F90000448FEF725F80022022105200007FCF75F
:103FA000D0FC70BD1C020020014800787047000062
:103FB0001100002010B51448806B0121490408430A
:103FC00011498863114812490860E12040024860A5
:103FD00000210F488160C160016181610C21416154
:103FE000FDF76DFD002801D000BFFEE70848FDF792
:103FF00071FE002801D000BFFEE70022022105204B
:104000000007FCF79EFC10BD001002400044004079
:104010001C02002010B586B0044610481049086004
:10402000002201A90E48FDF723FB002269460C4837
:10403000FDF7F0FA68460079A06068464079606054
:1040400068468079206068468078E06068464078FD
:1040500020616846C078606106B010BD002800404D
:104060007C03002010B5012202490348FDF704FF3C
:1040700010BD0000100000209C01002010B501229E
:1040800002490348FDF7F8FE10BD000011000020B2
:104090001C020020000000000000000001020304D8
:1040A00006070809000000000102030403040608D3
:1040B0000C10182030000000D8400008000000203C
:1040C0009C0000008C2D0008744100089C0000201A
:1040D0006C0D00009C2D0008000000000000000096
:1040E00000000000000000000000000000000000D0
:1040F000000000000000000036000037000038001B
:1041000000390000300000310000320000330000B0
:104110003400003500004300004E00004400004E13
:1041200000005300004E00004C00004F0000520001
:10413000004E00004100004E00005500004E0000FF
:104140005400004E000000000000000000000000CD
:10415000000000000000000000000000000000005F
:10416000E803000000000000000000000000000064
:0441700080841E0029
:04000005080000C12E
:00000001FF
